{
	"contracts/LunVenue_update.sol": {
		"LunchVenue": {
			"abi": [
				{
					"inputs": [],
					"stateMutability": "nonpayable",
					"type": "constructor"
				},
				{
					"inputs": [
						{
							"internalType": "address",
							"name": "friendAddress",
							"type": "address"
						},
						{
							"internalType": "string",
							"name": "name",
							"type": "string"
						}
					],
					"name": "addFriend",
					"outputs": [
						{
							"internalType": "uint256",
							"name": "",
							"type": "uint256"
						}
					],
					"stateMutability": "nonpayable",
					"type": "function"
				},
				{
					"inputs": [
						{
							"internalType": "string",
							"name": "name",
							"type": "string"
						}
					],
					"name": "addRestaurant",
					"outputs": [
						{
							"internalType": "uint256",
							"name": "",
							"type": "uint256"
						}
					],
					"stateMutability": "nonpayable",
					"type": "function"
				},
				{
					"inputs": [
						{
							"internalType": "uint256",
							"name": "restaurant",
							"type": "uint256"
						}
					],
					"name": "doVote",
					"outputs": [
						{
							"internalType": "bool",
							"name": "validVote",
							"type": "bool"
						}
					],
					"stateMutability": "nonpayable",
					"type": "function"
				},
				{
					"inputs": [
						{
							"internalType": "address",
							"name": "",
							"type": "address"
						}
					],
					"name": "friends",
					"outputs": [
						{
							"internalType": "string",
							"name": "name",
							"type": "string"
						},
						{
							"internalType": "bool",
							"name": "voted",
							"type": "bool"
						}
					],
					"stateMutability": "view",
					"type": "function"
				},
				{
					"inputs": [],
					"name": "isActive",
					"outputs": [
						{
							"internalType": "bool",
							"name": "",
							"type": "bool"
						}
					],
					"stateMutability": "view",
					"type": "function"
				},
				{
					"inputs": [],
					"name": "manager",
					"outputs": [
						{
							"internalType": "address",
							"name": "",
							"type": "address"
						}
					],
					"stateMutability": "view",
					"type": "function"
				},
				{
					"inputs": [],
					"name": "numFriends",
					"outputs": [
						{
							"internalType": "uint256",
							"name": "",
							"type": "uint256"
						}
					],
					"stateMutability": "view",
					"type": "function"
				},
				{
					"inputs": [],
					"name": "numRestaurants",
					"outputs": [
						{
							"internalType": "uint256",
							"name": "",
							"type": "uint256"
						}
					],
					"stateMutability": "view",
					"type": "function"
				},
				{
					"inputs": [],
					"name": "numVotes",
					"outputs": [
						{
							"internalType": "uint256",
							"name": "",
							"type": "uint256"
						}
					],
					"stateMutability": "view",
					"type": "function"
				},
				{
					"inputs": [
						{
							"internalType": "string",
							"name": "",
							"type": "string"
						}
					],
					"name": "restaurantExists",
					"outputs": [
						{
							"internalType": "bool",
							"name": "",
							"type": "bool"
						}
					],
					"stateMutability": "view",
					"type": "function"
				},
				{
					"inputs": [
						{
							"internalType": "uint256",
							"name": "",
							"type": "uint256"
						}
					],
					"name": "restaurants",
					"outputs": [
						{
							"internalType": "string",
							"name": "",
							"type": "string"
						}
					],
					"stateMutability": "view",
					"type": "function"
				},
				{
					"inputs": [],
					"name": "stopContract",
					"outputs": [],
					"stateMutability": "nonpayable",
					"type": "function"
				},
				{
					"inputs": [],
					"name": "voteOpen",
					"outputs": [
						{
							"internalType": "bool",
							"name": "",
							"type": "bool"
						}
					],
					"stateMutability": "view",
					"type": "function"
				},
				{
					"inputs": [],
					"name": "votedRestaurant",
					"outputs": [
						{
							"internalType": "string",
							"name": "",
							"type": "string"
						}
					],
					"stateMutability": "view",
					"type": "function"
				},
				{
					"inputs": [
						{
							"internalType": "uint256",
							"name": "",
							"type": "uint256"
						}
					],
					"name": "votes",
					"outputs": [
						{
							"internalType": "address",
							"name": "voterAddress",
							"type": "address"
						},
						{
							"internalType": "uint256",
							"name": "restaurant",
							"type": "uint256"
						}
					],
					"stateMutability": "view",
					"type": "function"
				}
			],
			"devdoc": {
				"author": "Dilum Bandara, CSIRO's Data61",
				"kind": "dev",
				"methods": {
					"addFriend(address,string)": {
						"details": "To simplify the code duplication of friends is not checked",
						"params": {
							"friendAddress": "Friend's account/address",
							"name": "Friend's name"
						},
						"returns": {
							"_0": "Number of friends added so far"
						}
					},
					"addRestaurant(string)": {
						"details": "To simplify the code, duplication of restaurants isn't checked",
						"params": {
							"name": "Restaurant name"
						},
						"returns": {
							"_0": "Number of restaurants added so far"
						}
					},
					"constructor": {
						"details": "Set manager when contract starts"
					},
					"doVote(uint256)": {
						"details": "To simplify the code duplicate votes by a friend is not checked",
						"params": {
							"restaurant": "Restaurant number being voted"
						},
						"returns": {
							"validVote": "Is the vote valid? A valid vote should be from a registered  friend to a registered restaurant"
						}
					}
				},
				"title": "Contract to agree on the lunch venue",
				"version": 1
			},
			"evm": {
				"assembly": "    /* \"contracts/LunVenue_update.sol\":164:5233  contract LunchVenue{\r... */\n  mstore(0x40, 0x80)\n    /* \"contracts/LunVenue_update.sol\":683:684  0 */\n  0x00\n    /* \"contracts/LunVenue_update.sol\":654:684  uint public numRestaurants = 0 */\n  0x03\n  sstore\n    /* \"contracts/LunVenue_update.sol\":716:717  0 */\n  0x00\n    /* \"contracts/LunVenue_update.sol\":691:717  uint public numFriends = 0 */\n  0x04\n  sstore\n    /* \"contracts/LunVenue_update.sol\":747:748  0 */\n  0x00\n    /* \"contracts/LunVenue_update.sol\":724:748  uint public numVotes = 0 */\n  0x05\n  sstore\n    /* \"contracts/LunVenue_update.sol\":823:857  string public votedRestaurant = \"\" */\n  mload(0x40)\n  dup1\n  0x20\n  add\n  0x40\n  mstore\n  dup1\n  0x00\n  dup2\n  mstore\n  pop\n  0x07\n  swap1\n  dup1\n  mload\n  swap1\n  0x20\n  add\n  swap1\n  tag_1\n  swap3\n  swap2\n  swap1\n  tag_2\n  jump\t// in\ntag_1:\n  pop\n    /* \"contracts/LunVenue_update.sol\":1100:1104  true */\n  0x01\n    /* \"contracts/LunVenue_update.sol\":1077:1104  bool public voteOpen = true */\n  0x0a\n  exp(0x0100, 0x00)\n  dup2\n  sload\n  dup2\n  0xff\n  mul\n  not\n  and\n  swap1\n  dup4\n  iszero\n  iszero\n  mul\n  or\n  swap1\n  sstore\n  pop\n    /* \"contracts/LunVenue_update.sol\":1166:1170  true */\n  0x01\n    /* \"contracts/LunVenue_update.sol\":1143:1170  bool public isActive = true */\n  0x0a\n  exp(0x0100, 0x01)\n  dup2\n  sload\n  dup2\n  0xff\n  mul\n  not\n  and\n  swap1\n  dup4\n  iszero\n  iszero\n  mul\n  or\n  swap1\n  sstore\n  pop\n    /* \"contracts/LunVenue_update.sol\":1279:1385  constructor () {\r... */\n  callvalue\n  dup1\n  iszero\n  tag_3\n  jumpi\n  0x00\n  dup1\n  revert\ntag_3:\n  pop\n    /* \"contracts/LunVenue_update.sol\":1315:1325  msg.sender */\n  caller\n    /* \"contracts/LunVenue_update.sol\":1305:1312  manager */\n  0x06\n  0x00\n    /* \"contracts/LunVenue_update.sol\":1305:1325  manager = msg.sender */\n  0x0100\n  exp\n  dup2\n  sload\n  dup2\n  0xffffffffffffffffffffffffffffffffffffffff\n  mul\n  not\n  and\n  swap1\n  dup4\n  0xffffffffffffffffffffffffffffffffffffffff\n  and\n  mul\n  or\n  swap1\n  sstore\n  pop\n    /* \"contracts/LunVenue_update.sol\":164:5233  contract LunchVenue{\r... */\n  jump(tag_6)\ntag_2:\n  dup3\n  dup1\n  sload\n  tag_7\n  swap1\n  tag_8\n  jump\t// in\ntag_7:\n  swap1\n  0x00\n  mstore\n  keccak256(0x00, 0x20)\n  swap1\n  0x1f\n  add\n  0x20\n  swap1\n  div\n  dup2\n  add\n  swap3\n  dup3\n  tag_10\n  jumpi\n  0x00\n  dup6\n  sstore\n  jump(tag_9)\ntag_10:\n  dup3\n  0x1f\n  lt\n  tag_11\n  jumpi\n  dup1\n  mload\n  not(0xff)\n  and\n  dup4\n  dup1\n  add\n  or\n  dup6\n  sstore\n  jump(tag_9)\ntag_11:\n  dup3\n  dup1\n  add\n  0x01\n  add\n  dup6\n  sstore\n  dup3\n  iszero\n  tag_9\n  jumpi\n  swap2\n  dup3\n  add\ntag_12:\n  dup3\n  dup2\n  gt\n  iszero\n  tag_13\n  jumpi\n  dup3\n  mload\n  dup3\n  sstore\n  swap2\n  0x20\n  add\n  swap2\n  swap1\n  0x01\n  add\n  swap1\n  jump(tag_12)\ntag_13:\ntag_9:\n  pop\n  swap1\n  pop\n  tag_14\n  swap2\n  swap1\n  tag_15\n  jump\t// in\ntag_14:\n  pop\n  swap1\n  jump\t// out\ntag_15:\ntag_16:\n  dup1\n  dup3\n  gt\n  iszero\n  tag_17\n  jumpi\n  0x00\n  dup2\n  0x00\n  swap1\n  sstore\n  pop\n  0x01\n  add\n  jump(tag_16)\ntag_17:\n  pop\n  swap1\n  jump\t// out\n    /* \"#utility.yul\":7:327   */\ntag_8:\n    /* \"#utility.yul\":51:57   */\n  0x00\n    /* \"#utility.yul\":88:89   */\n  0x02\n    /* \"#utility.yul\":82:86   */\n  dup3\n    /* \"#utility.yul\":78:90   */\n  div\n    /* \"#utility.yul\":68:90   */\n  swap1\n  pop\n    /* \"#utility.yul\":135:136   */\n  0x01\n    /* \"#utility.yul\":129:133   */\n  dup3\n    /* \"#utility.yul\":125:137   */\n  and\n    /* \"#utility.yul\":156:174   */\n  dup1\n    /* \"#utility.yul\":146:148   */\n  tag_20\n  jumpi\n    /* \"#utility.yul\":212:216   */\n  0x7f\n    /* \"#utility.yul\":204:210   */\n  dup3\n    /* \"#utility.yul\":200:217   */\n  and\n    /* \"#utility.yul\":190:217   */\n  swap2\n  pop\n    /* \"#utility.yul\":146:148   */\ntag_20:\n    /* \"#utility.yul\":274:276   */\n  0x20\n    /* \"#utility.yul\":266:272   */\n  dup3\n    /* \"#utility.yul\":263:277   */\n  lt\n    /* \"#utility.yul\":243:261   */\n  dup2\n    /* \"#utility.yul\":240:278   */\n  eq\n    /* \"#utility.yul\":237:239   */\n  iszero\n  tag_21\n  jumpi\n    /* \"#utility.yul\":293:311   */\n  tag_22\n  tag_23\n  jump\t// in\ntag_22:\n    /* \"#utility.yul\":237:239   */\ntag_21:\n    /* \"#utility.yul\":58:327   */\n  pop\n  swap2\n  swap1\n  pop\n  jump\t// out\n    /* \"#utility.yul\":333:513   */\ntag_23:\n    /* \"#utility.yul\":381:458   */\n  0x4e487b7100000000000000000000000000000000000000000000000000000000\n    /* \"#utility.yul\":378:379   */\n  0x00\n    /* \"#utility.yul\":371:459   */\n  mstore\n    /* \"#utility.yul\":478:482   */\n  0x22\n    /* \"#utility.yul\":475:476   */\n  0x04\n    /* \"#utility.yul\":468:483   */\n  mstore\n    /* \"#utility.yul\":502:506   */\n  0x24\n    /* \"#utility.yul\":499:500   */\n  0x00\n    /* \"#utility.yul\":492:507   */\n  revert\n    /* \"contracts/LunVenue_update.sol\":164:5233  contract LunchVenue{\r... */\ntag_6:\n  dataSize(sub_0)\n  dup1\n  dataOffset(sub_0)\n  0x00\n  codecopy\n  0x00\n  return\nstop\n\nsub_0: assembly {\n        /* \"contracts/LunVenue_update.sol\":164:5233  contract LunchVenue{\r... */\n      mstore(0x40, 0x80)\n      callvalue\n      dup1\n      iszero\n      tag_1\n      jumpi\n      0x00\n      dup1\n      revert\n    tag_1:\n      pop\n      jumpi(tag_2, lt(calldatasize, 0x04))\n      shr(0xe0, calldataload(0x00))\n      dup1\n      0x5df81330\n      gt\n      tag_18\n      jumpi\n      dup1\n      0xa6c7f8b2\n      gt\n      tag_19\n      jumpi\n      dup1\n      0xa6c7f8b2\n      eq\n      tag_14\n      jumpi\n      dup1\n      0xad5461d8\n      eq\n      tag_15\n      jumpi\n      dup1\n      0xb798867f\n      eq\n      tag_16\n      jumpi\n      dup1\n      0xc1c16efc\n      eq\n      tag_17\n      jumpi\n      jump(tag_2)\n    tag_19:\n      dup1\n      0x5df81330\n      eq\n      tag_10\n      jumpi\n      dup1\n      0x6d77bd3e\n      eq\n      tag_11\n      jumpi\n      dup1\n      0x788d3851\n      eq\n      tag_12\n      jumpi\n      dup1\n      0xa3bef4d7\n      eq\n      tag_13\n      jumpi\n      jump(tag_2)\n    tag_18:\n      dup1\n      0x22f3e2d4\n      gt\n      tag_20\n      jumpi\n      dup1\n      0x22f3e2d4\n      eq\n      tag_6\n      jumpi\n      dup1\n      0x3b9f708d\n      eq\n      tag_7\n      jumpi\n      dup1\n      0x47098f36\n      eq\n      tag_8\n      jumpi\n      dup1\n      0x481c6a75\n      eq\n      tag_9\n      jumpi\n      jump(tag_2)\n    tag_20:\n      dup1\n      0x12253a6c\n      eq\n      tag_3\n      jumpi\n      dup1\n      0x124258c6\n      eq\n      tag_4\n      jumpi\n      dup1\n      0x1ddabf7a\n      eq\n      tag_5\n      jumpi\n    tag_2:\n      0x00\n      dup1\n      revert\n        /* \"contracts/LunVenue_update.sol\":4591:4668  function stopContract() public restricted {\r... */\n    tag_3:\n      tag_21\n      tag_22\n      jump\t// in\n    tag_21:\n      stop\n        /* \"contracts/LunVenue_update.sol\":2810:3585  function doVote(uint restaurant) public votingOpen returns (bool validVote){\r... */\n    tag_4:\n      tag_23\n      0x04\n      dup1\n      calldatasize\n      sub\n      dup2\n      add\n      swap1\n      tag_24\n      swap2\n      swap1\n      tag_25\n      jump\t// in\n    tag_24:\n      tag_26\n      jump\t// in\n    tag_23:\n      mload(0x40)\n      tag_27\n      swap2\n      swap1\n      tag_28\n      jump\t// in\n    tag_27:\n      mload(0x40)\n      dup1\n      swap2\n      sub\n      swap1\n      return\n        /* \"contracts/LunVenue_update.sol\":465:506  mapping(address => Friend) public friends */\n    tag_5:\n      tag_29\n      0x04\n      dup1\n      calldatasize\n      sub\n      dup2\n      add\n      swap1\n      tag_30\n      swap2\n      swap1\n      tag_31\n      jump\t// in\n    tag_30:\n      tag_32\n      jump\t// in\n    tag_29:\n      mload(0x40)\n      tag_33\n      swap3\n      swap2\n      swap1\n      tag_34\n      jump\t// in\n    tag_33:\n      mload(0x40)\n      dup1\n      swap2\n      sub\n      swap1\n      return\n        /* \"contracts/LunVenue_update.sol\":1143:1170  bool public isActive = true */\n    tag_6:\n      tag_35\n      tag_36\n      jump\t// in\n    tag_35:\n      mload(0x40)\n      tag_37\n      swap2\n      swap1\n      tag_28\n      jump\t// in\n    tag_37:\n      mload(0x40)\n      dup1\n      swap2\n      sub\n      swap1\n      return\n        /* \"contracts/LunVenue_update.sol\":2206:2472  function addFriend(address friendAddress, string memory name) public restricted returns (uint){\r... */\n    tag_7:\n      tag_38\n      0x04\n      dup1\n      calldatasize\n      sub\n      dup2\n      add\n      swap1\n      tag_39\n      swap2\n      swap1\n      tag_40\n      jump\t// in\n    tag_39:\n      tag_41\n      jump\t// in\n    tag_38:\n      mload(0x40)\n      tag_42\n      swap2\n      swap1\n      tag_43\n      jump\t// in\n    tag_42:\n      mload(0x40)\n      dup1\n      swap2\n      sub\n      swap1\n      return\n        /* \"contracts/LunVenue_update.sol\":691:717  uint public numFriends = 0 */\n    tag_8:\n      tag_44\n      tag_45\n      jump\t// in\n    tag_44:\n      mload(0x40)\n      tag_46\n      swap2\n      swap1\n      tag_43\n      jump\t// in\n    tag_46:\n      mload(0x40)\n      dup1\n      swap2\n      sub\n      swap1\n      return\n        /* \"contracts/LunVenue_update.sol\":755:777  address public manager */\n    tag_9:\n      tag_47\n      tag_48\n      jump\t// in\n    tag_47:\n      mload(0x40)\n      tag_49\n      swap2\n      swap1\n      tag_50\n      jump\t// in\n    tag_49:\n      mload(0x40)\n      dup1\n      swap2\n      sub\n      swap1\n      return\n        /* \"contracts/LunVenue_update.sol\":896:931  mapping (uint => Vote) public votes */\n    tag_10:\n      tag_51\n      0x04\n      dup1\n      calldatasize\n      sub\n      dup2\n      add\n      swap1\n      tag_52\n      swap2\n      swap1\n      tag_25\n      jump\t// in\n    tag_52:\n      tag_53\n      jump\t// in\n    tag_51:\n      mload(0x40)\n      tag_54\n      swap3\n      swap2\n      swap1\n      tag_55\n      jump\t// in\n    tag_54:\n      mload(0x40)\n      dup1\n      swap2\n      sub\n      swap1\n      return\n        /* \"contracts/LunVenue_update.sol\":1619:1918  function addRestaurant(string memory name) public restricted returns (uint){\r... */\n    tag_11:\n      tag_56\n      0x04\n      dup1\n      calldatasize\n      sub\n      dup2\n      add\n      swap1\n      tag_57\n      swap2\n      swap1\n      tag_58\n      jump\t// in\n    tag_57:\n      tag_59\n      jump\t// in\n    tag_56:\n      mload(0x40)\n      tag_60\n      swap2\n      swap1\n      tag_43\n      jump\t// in\n    tag_60:\n      mload(0x40)\n      dup1\n      swap2\n      sub\n      swap1\n      return\n        /* \"contracts/LunVenue_update.sol\":1077:1104  bool public voteOpen = true */\n    tag_12:\n      tag_61\n      tag_62\n      jump\t// in\n    tag_61:\n      mload(0x40)\n      tag_63\n      swap2\n      swap1\n      tag_28\n      jump\t// in\n    tag_63:\n      mload(0x40)\n      dup1\n      swap2\n      sub\n      swap1\n      return\n        /* \"contracts/LunVenue_update.sol\":724:748  uint public numVotes = 0 */\n    tag_13:\n      tag_64\n      tag_65\n      jump\t// in\n    tag_64:\n      mload(0x40)\n      tag_66\n      swap2\n      swap1\n      tag_43\n      jump\t// in\n    tag_66:\n      mload(0x40)\n      dup1\n      swap2\n      sub\n      swap1\n      return\n        /* \"contracts/LunVenue_update.sol\":550:597  mapping(string => bool) public restaurantExists */\n    tag_14:\n      tag_67\n      0x04\n      dup1\n      calldatasize\n      sub\n      dup2\n      add\n      swap1\n      tag_68\n      swap2\n      swap1\n      tag_58\n      jump\t// in\n    tag_68:\n      tag_69\n      jump\t// in\n    tag_67:\n      mload(0x40)\n      tag_70\n      swap2\n      swap1\n      tag_28\n      jump\t// in\n    tag_70:\n      mload(0x40)\n      dup1\n      swap2\n      sub\n      swap1\n      return\n        /* \"contracts/LunVenue_update.sol\":371:414  mapping (uint => string) public restaurants */\n    tag_15:\n      tag_71\n      0x04\n      dup1\n      calldatasize\n      sub\n      dup2\n      add\n      swap1\n      tag_72\n      swap2\n      swap1\n      tag_25\n      jump\t// in\n    tag_72:\n      tag_73\n      jump\t// in\n    tag_71:\n      mload(0x40)\n      tag_74\n      swap2\n      swap1\n      tag_75\n      jump\t// in\n    tag_74:\n      mload(0x40)\n      dup1\n      swap2\n      sub\n      swap1\n      return\n        /* \"contracts/LunVenue_update.sol\":654:684  uint public numRestaurants = 0 */\n    tag_16:\n      tag_76\n      tag_77\n      jump\t// in\n    tag_76:\n      mload(0x40)\n      tag_78\n      swap2\n      swap1\n      tag_43\n      jump\t// in\n    tag_78:\n      mload(0x40)\n      dup1\n      swap2\n      sub\n      swap1\n      return\n        /* \"contracts/LunVenue_update.sol\":823:857  string public votedRestaurant = \"\" */\n    tag_17:\n      tag_79\n      tag_80\n      jump\t// in\n    tag_79:\n      mload(0x40)\n      tag_81\n      swap2\n      swap1\n      tag_75\n      jump\t// in\n    tag_81:\n      mload(0x40)\n      dup1\n      swap2\n      sub\n      swap1\n      return\n        /* \"contracts/LunVenue_update.sol\":4591:4668  function stopContract() public restricted {\r... */\n    tag_22:\n        /* \"contracts/LunVenue_update.sol\":4795:4802  manager */\n      0x06\n      0x00\n      swap1\n      sload\n      swap1\n      0x0100\n      exp\n      swap1\n      div\n      0xffffffffffffffffffffffffffffffffffffffff\n      and\n        /* \"contracts/LunVenue_update.sol\":4781:4802  msg.sender == manager */\n      0xffffffffffffffffffffffffffffffffffffffff\n      and\n        /* \"contracts/LunVenue_update.sol\":4781:4791  msg.sender */\n      caller\n        /* \"contracts/LunVenue_update.sol\":4781:4802  msg.sender == manager */\n      0xffffffffffffffffffffffffffffffffffffffff\n      and\n      eq\n        /* \"contracts/LunVenue_update.sol\":4772:4842  require (msg.sender == manager, \"Can only be executed by the manager\") */\n      tag_83\n      jumpi\n      mload(0x40)\n      0x08c379a000000000000000000000000000000000000000000000000000000000\n      dup2\n      mstore\n      0x04\n      add\n      tag_84\n      swap1\n      tag_85\n      jump\t// in\n    tag_84:\n      mload(0x40)\n      dup1\n      swap2\n      sub\n      swap1\n      revert\n    tag_83:\n        /* \"contracts/LunVenue_update.sol\":4655:4660  false */\n      0x00\n        /* \"contracts/LunVenue_update.sol\":4644:4652  isActive */\n      0x0a\n      0x01\n        /* \"contracts/LunVenue_update.sol\":4644:4660  isActive = false */\n      0x0100\n      exp\n      dup2\n      sload\n      dup2\n      0xff\n      mul\n      not\n      and\n      swap1\n      dup4\n      iszero\n      iszero\n      mul\n      or\n      swap1\n      sstore\n      pop\n        /* \"contracts/LunVenue_update.sol\":4591:4668  function stopContract() public restricted {\r... */\n      jump\t// out\n        /* \"contracts/LunVenue_update.sol\":2810:3585  function doVote(uint restaurant) public votingOpen returns (bool validVote){\r... */\n    tag_26:\n        /* \"contracts/LunVenue_update.sol\":2870:2884  bool validVote */\n      0x00\n        /* \"contracts/LunVenue_update.sol\":4992:4996  true */\n      0x01\n        /* \"contracts/LunVenue_update.sol\":4980:4996  voteOpen == true */\n      iszero\n      iszero\n        /* \"contracts/LunVenue_update.sol\":4980:4988  voteOpen */\n      0x0a\n      0x00\n      swap1\n      sload\n      swap1\n      0x0100\n      exp\n      swap1\n      div\n      0xff\n      and\n        /* \"contracts/LunVenue_update.sol\":4980:4996  voteOpen == true */\n      iszero\n      iszero\n      eq\n        /* \"contracts/LunVenue_update.sol\":4972:5036  require(voteOpen == true, \"Can vote only while voting is open.\") */\n      tag_88\n      jumpi\n      mload(0x40)\n      0x08c379a000000000000000000000000000000000000000000000000000000000\n      dup2\n      mstore\n      0x04\n      add\n      tag_89\n      swap1\n      tag_90\n      jump\t// in\n    tag_89:\n      mload(0x40)\n      dup1\n      swap2\n      sub\n      swap1\n      revert\n    tag_88:\n        /* \"contracts/LunVenue_update.sol\":2908:2913  false */\n      0x00\n        /* \"contracts/LunVenue_update.sol\":2896:2913  validVote = false */\n      swap1\n      pop\n        /* \"contracts/LunVenue_update.sol\":3024:3025  0 */\n      0x00\n        /* \"contracts/LunVenue_update.sol\":2988:2995  friends */\n      0x01\n        /* \"contracts/LunVenue_update.sol\":2988:3007  friends[msg.sender] */\n      0x00\n        /* \"contracts/LunVenue_update.sol\":2996:3006  msg.sender */\n      caller\n        /* \"contracts/LunVenue_update.sol\":2988:3007  friends[msg.sender] */\n      0xffffffffffffffffffffffffffffffffffffffff\n      and\n      0xffffffffffffffffffffffffffffffffffffffff\n      and\n      dup2\n      mstore\n      0x20\n      add\n      swap1\n      dup2\n      mstore\n      0x20\n      add\n      0x00\n      keccak256\n        /* \"contracts/LunVenue_update.sol\":2988:3012  friends[msg.sender].name */\n      0x00\n      add\n        /* \"contracts/LunVenue_update.sol\":2982:3020  bytes(friends[msg.sender].name).length */\n      dup1\n      sload\n      tag_92\n      swap1\n      tag_93\n      jump\t// in\n    tag_92:\n      swap1\n      pop\n        /* \"contracts/LunVenue_update.sol\":2982:3025  bytes(friends[msg.sender].name).length != 0 */\n      eq\n        /* \"contracts/LunVenue_update.sol\":2978:3441  if (bytes(friends[msg.sender].name).length != 0) {  //Does friend exist?\r... */\n      tag_94\n      jumpi\n        /* \"contracts/LunVenue_update.sol\":3109:3110  0 */\n      0x00\n        /* \"contracts/LunVenue_update.sol\":3074:3085  restaurants */\n      dup1\n        /* \"contracts/LunVenue_update.sol\":3074:3097  restaurants[restaurant] */\n      0x00\n        /* \"contracts/LunVenue_update.sol\":3086:3096  restaurant */\n      dup5\n        /* \"contracts/LunVenue_update.sol\":3074:3097  restaurants[restaurant] */\n      dup2\n      mstore\n      0x20\n      add\n      swap1\n      dup2\n      mstore\n      0x20\n      add\n      0x00\n      keccak256\n        /* \"contracts/LunVenue_update.sol\":3068:3105  bytes(restaurants[restaurant]).length */\n      dup1\n      sload\n      tag_95\n      swap1\n      tag_93\n      jump\t// in\n    tag_95:\n      swap1\n      pop\n        /* \"contracts/LunVenue_update.sol\":3068:3110  bytes(restaurants[restaurant]).length != 0 */\n      eq\n        /* \"contracts/LunVenue_update.sol\":3064:3430  if (bytes(restaurants[restaurant]).length != 0) {   //Does restaurant exist?\r... */\n      tag_96\n      jumpi\n        /* \"contracts/LunVenue_update.sol\":3170:3174  true */\n      0x01\n        /* \"contracts/LunVenue_update.sol\":3158:3174  validVote = true */\n      swap1\n      pop\n        /* \"contracts/LunVenue_update.sol\":3221:3225  true */\n      0x01\n        /* \"contracts/LunVenue_update.sol\":3193:3200  friends */\n      dup1\n        /* \"contracts/LunVenue_update.sol\":3193:3212  friends[msg.sender] */\n      0x00\n        /* \"contracts/LunVenue_update.sol\":3201:3211  msg.sender */\n      caller\n        /* \"contracts/LunVenue_update.sol\":3193:3212  friends[msg.sender] */\n      0xffffffffffffffffffffffffffffffffffffffff\n      and\n      0xffffffffffffffffffffffffffffffffffffffff\n      and\n      dup2\n      mstore\n      0x20\n      add\n      swap1\n      dup2\n      mstore\n      0x20\n      add\n      0x00\n      keccak256\n        /* \"contracts/LunVenue_update.sol\":3193:3218  friends[msg.sender].voted */\n      0x01\n      add\n      0x00\n        /* \"contracts/LunVenue_update.sol\":3193:3225  friends[msg.sender].voted = true */\n      0x0100\n      exp\n      dup2\n      sload\n      dup2\n      0xff\n      mul\n      not\n      and\n      swap1\n      dup4\n      iszero\n      iszero\n      mul\n      or\n      swap1\n      sstore\n      pop\n        /* \"contracts/LunVenue_update.sol\":3244:3257  Vote memory v */\n      tag_97\n      tag_98\n      jump\t// in\n    tag_97:\n        /* \"contracts/LunVenue_update.sol\":3293:3303  msg.sender */\n      caller\n        /* \"contracts/LunVenue_update.sol\":3276:3277  v */\n      dup2\n        /* \"contracts/LunVenue_update.sol\":3276:3290  v.voterAddress */\n      0x00\n      add\n        /* \"contracts/LunVenue_update.sol\":3276:3303  v.voterAddress = msg.sender */\n      swap1\n      0xffffffffffffffffffffffffffffffffffffffff\n      and\n      swap1\n      dup2\n      0xffffffffffffffffffffffffffffffffffffffff\n      and\n      dup2\n      mstore\n      pop\n      pop\n        /* \"contracts/LunVenue_update.sol\":3337:3347  restaurant */\n      dup3\n        /* \"contracts/LunVenue_update.sol\":3322:3323  v */\n      dup2\n        /* \"contracts/LunVenue_update.sol\":3322:3334  v.restaurant */\n      0x20\n      add\n        /* \"contracts/LunVenue_update.sol\":3322:3347  v.restaurant = restaurant */\n      dup2\n      dup2\n      mstore\n      pop\n      pop\n        /* \"contracts/LunVenue_update.sol\":3366:3374  numVotes */\n      0x05\n      0x00\n        /* \"contracts/LunVenue_update.sol\":3366:3376  numVotes++ */\n      dup2\n      sload\n      dup1\n      swap3\n      swap2\n      swap1\n      tag_99\n      swap1\n      tag_100\n      jump\t// in\n    tag_99:\n      swap2\n      swap1\n      pop\n      sstore\n      pop\n        /* \"contracts/LunVenue_update.sol\":3413:3414  v */\n      dup1\n        /* \"contracts/LunVenue_update.sol\":3395:3400  votes */\n      0x08\n        /* \"contracts/LunVenue_update.sol\":3395:3410  votes[numVotes] */\n      0x00\n        /* \"contracts/LunVenue_update.sol\":3401:3409  numVotes */\n      sload(0x05)\n        /* \"contracts/LunVenue_update.sol\":3395:3410  votes[numVotes] */\n      dup2\n      mstore\n      0x20\n      add\n      swap1\n      dup2\n      mstore\n      0x20\n      add\n      0x00\n      keccak256\n        /* \"contracts/LunVenue_update.sol\":3395:3414  votes[numVotes] = v */\n      0x00\n      dup3\n      add\n      mload\n      dup2\n      0x00\n      add\n      exp(0x0100, 0x00)\n      dup2\n      sload\n      dup2\n      0xffffffffffffffffffffffffffffffffffffffff\n      mul\n      not\n      and\n      swap1\n      dup4\n      0xffffffffffffffffffffffffffffffffffffffff\n      and\n      mul\n      or\n      swap1\n      sstore\n      pop\n      0x20\n      dup3\n      add\n      mload\n      dup2\n      0x01\n      add\n      sstore\n      swap1\n      pop\n      pop\n        /* \"contracts/LunVenue_update.sol\":3112:3430  {   //Does restaurant exist?\r... */\n      pop\n        /* \"contracts/LunVenue_update.sol\":3064:3430  if (bytes(restaurants[restaurant]).length != 0) {   //Does restaurant exist?\r... */\n    tag_96:\n        /* \"contracts/LunVenue_update.sol\":2978:3441  if (bytes(friends[msg.sender].name).length != 0) {  //Does friend exist?\r... */\n    tag_94:\n        /* \"contracts/LunVenue_update.sol\":3492:3493  1 */\n      0x01\n        /* \"contracts/LunVenue_update.sol\":3488:3489  2 */\n      0x02\n        /* \"contracts/LunVenue_update.sol\":3477:3487  numFriends */\n      sload(0x04)\n        /* \"contracts/LunVenue_update.sol\":3477:3489  numFriends/2 */\n      tag_101\n      swap2\n      swap1\n      tag_102\n      jump\t// in\n    tag_101:\n        /* \"contracts/LunVenue_update.sol\":3477:3493  numFriends/2 + 1 */\n      tag_103\n      swap2\n      swap1\n      tag_104\n      jump\t// in\n    tag_103:\n        /* \"contracts/LunVenue_update.sol\":3465:3473  numVotes */\n      sload(0x05)\n        /* \"contracts/LunVenue_update.sol\":3465:3493  numVotes >= numFriends/2 + 1 */\n      lt\n        /* \"contracts/LunVenue_update.sol\":3461:3551  if (numVotes >= numFriends/2 + 1) { //Quorum is met\r... */\n      tag_105\n      jumpi\n        /* \"contracts/LunVenue_update.sol\":3526:3539  finalResult() */\n      tag_106\n        /* \"contracts/LunVenue_update.sol\":3526:3537  finalResult */\n      tag_107\n        /* \"contracts/LunVenue_update.sol\":3526:3539  finalResult() */\n      jump\t// in\n    tag_106:\n        /* \"contracts/LunVenue_update.sol\":3461:3551  if (numVotes >= numFriends/2 + 1) { //Quorum is met\r... */\n    tag_105:\n        /* \"contracts/LunVenue_update.sol\":2810:3585  function doVote(uint restaurant) public votingOpen returns (bool validVote){\r... */\n      swap2\n      swap1\n      pop\n      jump\t// out\n        /* \"contracts/LunVenue_update.sol\":465:506  mapping(address => Friend) public friends */\n    tag_32:\n      mstore(0x20, 0x01)\n      dup1\n      0x00\n      mstore\n      keccak256(0x00, 0x40)\n      0x00\n      swap2\n      pop\n      swap1\n      pop\n      dup1\n      0x00\n      add\n      dup1\n      sload\n      tag_108\n      swap1\n      tag_93\n      jump\t// in\n    tag_108:\n      dup1\n      0x1f\n      add\n      0x20\n      dup1\n      swap2\n      div\n      mul\n      0x20\n      add\n      mload(0x40)\n      swap1\n      dup2\n      add\n      0x40\n      mstore\n      dup1\n      swap3\n      swap2\n      swap1\n      dup2\n      dup2\n      mstore\n      0x20\n      add\n      dup3\n      dup1\n      sload\n      tag_109\n      swap1\n      tag_93\n      jump\t// in\n    tag_109:\n      dup1\n      iszero\n      tag_110\n      jumpi\n      dup1\n      0x1f\n      lt\n      tag_111\n      jumpi\n      0x0100\n      dup1\n      dup4\n      sload\n      div\n      mul\n      dup4\n      mstore\n      swap2\n      0x20\n      add\n      swap2\n      jump(tag_110)\n    tag_111:\n      dup3\n      add\n      swap2\n      swap1\n      0x00\n      mstore\n      keccak256(0x00, 0x20)\n      swap1\n    tag_112:\n      dup2\n      sload\n      dup2\n      mstore\n      swap1\n      0x01\n      add\n      swap1\n      0x20\n      add\n      dup1\n      dup4\n      gt\n      tag_112\n      jumpi\n      dup3\n      swap1\n      sub\n      0x1f\n      and\n      dup3\n      add\n      swap2\n    tag_110:\n      pop\n      pop\n      pop\n      pop\n      pop\n      swap1\n      dup1\n      0x01\n      add\n      0x00\n      swap1\n      sload\n      swap1\n      0x0100\n      exp\n      swap1\n      div\n      0xff\n      and\n      swap1\n      pop\n      dup3\n      jump\t// out\n        /* \"contracts/LunVenue_update.sol\":1143:1170  bool public isActive = true */\n    tag_36:\n      0x0a\n      0x01\n      swap1\n      sload\n      swap1\n      0x0100\n      exp\n      swap1\n      div\n      0xff\n      and\n      dup2\n      jump\t// out\n        /* \"contracts/LunVenue_update.sol\":2206:2472  function addFriend(address friendAddress, string memory name) public restricted returns (uint){\r... */\n    tag_41:\n        /* \"contracts/LunVenue_update.sol\":2295:2299  uint */\n      0x00\n        /* \"contracts/LunVenue_update.sol\":4795:4802  manager */\n      0x06\n      0x00\n      swap1\n      sload\n      swap1\n      0x0100\n      exp\n      swap1\n      div\n      0xffffffffffffffffffffffffffffffffffffffff\n      and\n        /* \"contracts/LunVenue_update.sol\":4781:4802  msg.sender == manager */\n      0xffffffffffffffffffffffffffffffffffffffff\n      and\n        /* \"contracts/LunVenue_update.sol\":4781:4791  msg.sender */\n      caller\n        /* \"contracts/LunVenue_update.sol\":4781:4802  msg.sender == manager */\n      0xffffffffffffffffffffffffffffffffffffffff\n      and\n      eq\n        /* \"contracts/LunVenue_update.sol\":4772:4842  require (msg.sender == manager, \"Can only be executed by the manager\") */\n      tag_114\n      jumpi\n      mload(0x40)\n      0x08c379a000000000000000000000000000000000000000000000000000000000\n      dup2\n      mstore\n      0x04\n      add\n      tag_115\n      swap1\n      tag_85\n      jump\t// in\n    tag_115:\n      mload(0x40)\n      dup1\n      swap2\n      sub\n      swap1\n      revert\n    tag_114:\n        /* \"contracts/LunVenue_update.sol\":2311:2326  Friend memory f */\n      tag_117\n      tag_118\n      jump\t// in\n    tag_117:\n        /* \"contracts/LunVenue_update.sol\":2346:2350  name */\n      dup3\n        /* \"contracts/LunVenue_update.sol\":2337:2338  f */\n      dup2\n        /* \"contracts/LunVenue_update.sol\":2337:2343  f.name */\n      0x00\n      add\n        /* \"contracts/LunVenue_update.sol\":2337:2350  f.name = name */\n      dup2\n      swap1\n      mstore\n      pop\n        /* \"contracts/LunVenue_update.sol\":2371:2376  false */\n      0x00\n        /* \"contracts/LunVenue_update.sol\":2361:2362  f */\n      dup2\n        /* \"contracts/LunVenue_update.sol\":2361:2368  f.voted */\n      0x20\n      add\n        /* \"contracts/LunVenue_update.sol\":2361:2376  f.voted = false */\n      swap1\n      iszero\n      iszero\n      swap1\n      dup2\n      iszero\n      iszero\n      dup2\n      mstore\n      pop\n      pop\n        /* \"contracts/LunVenue_update.sol\":2412:2413  f */\n      dup1\n        /* \"contracts/LunVenue_update.sol\":2387:2394  friends */\n      0x01\n        /* \"contracts/LunVenue_update.sol\":2387:2409  friends[friendAddress] */\n      0x00\n        /* \"contracts/LunVenue_update.sol\":2395:2408  friendAddress */\n      dup7\n        /* \"contracts/LunVenue_update.sol\":2387:2409  friends[friendAddress] */\n      0xffffffffffffffffffffffffffffffffffffffff\n      and\n      0xffffffffffffffffffffffffffffffffffffffff\n      and\n      dup2\n      mstore\n      0x20\n      add\n      swap1\n      dup2\n      mstore\n      0x20\n      add\n      0x00\n      keccak256\n        /* \"contracts/LunVenue_update.sol\":2387:2413  friends[friendAddress] = f */\n      0x00\n      dup3\n      add\n      mload\n      dup2\n      0x00\n      add\n      swap1\n      dup1\n      mload\n      swap1\n      0x20\n      add\n      swap1\n      tag_119\n      swap3\n      swap2\n      swap1\n      tag_120\n      jump\t// in\n    tag_119:\n      pop\n      0x20\n      dup3\n      add\n      mload\n      dup2\n      0x01\n      add\n      exp(0x0100, 0x00)\n      dup2\n      sload\n      dup2\n      0xff\n      mul\n      not\n      and\n      swap1\n      dup4\n      iszero\n      iszero\n      mul\n      or\n      swap1\n      sstore\n      pop\n      swap1\n      pop\n      pop\n        /* \"contracts/LunVenue_update.sol\":2424:2434  numFriends */\n      0x04\n      0x00\n        /* \"contracts/LunVenue_update.sol\":2424:2436  numFriends++ */\n      dup2\n      sload\n      dup1\n      swap3\n      swap2\n      swap1\n      tag_121\n      swap1\n      tag_100\n      jump\t// in\n    tag_121:\n      swap2\n      swap1\n      pop\n      sstore\n      pop\n        /* \"contracts/LunVenue_update.sol\":2454:2464  numFriends */\n      sload(0x04)\n        /* \"contracts/LunVenue_update.sol\":2447:2464  return numFriends */\n      swap2\n      pop\n      pop\n        /* \"contracts/LunVenue_update.sol\":2206:2472  function addFriend(address friendAddress, string memory name) public restricted returns (uint){\r... */\n      swap3\n      swap2\n      pop\n      pop\n      jump\t// out\n        /* \"contracts/LunVenue_update.sol\":691:717  uint public numFriends = 0 */\n    tag_45:\n      sload(0x04)\n      dup2\n      jump\t// out\n        /* \"contracts/LunVenue_update.sol\":755:777  address public manager */\n    tag_48:\n      0x06\n      0x00\n      swap1\n      sload\n      swap1\n      0x0100\n      exp\n      swap1\n      div\n      0xffffffffffffffffffffffffffffffffffffffff\n      and\n      dup2\n      jump\t// out\n        /* \"contracts/LunVenue_update.sol\":896:931  mapping (uint => Vote) public votes */\n    tag_53:\n      mstore(0x20, 0x08)\n      dup1\n      0x00\n      mstore\n      keccak256(0x00, 0x40)\n      0x00\n      swap2\n      pop\n      swap1\n      pop\n      dup1\n      0x00\n      add\n      0x00\n      swap1\n      sload\n      swap1\n      0x0100\n      exp\n      swap1\n      div\n      0xffffffffffffffffffffffffffffffffffffffff\n      and\n      swap1\n      dup1\n      0x01\n      add\n      sload\n      swap1\n      pop\n      dup3\n      jump\t// out\n        /* \"contracts/LunVenue_update.sol\":1619:1918  function addRestaurant(string memory name) public restricted returns (uint){\r... */\n    tag_59:\n        /* \"contracts/LunVenue_update.sol\":1689:1693  uint */\n      0x00\n        /* \"contracts/LunVenue_update.sol\":4795:4802  manager */\n      0x06\n      0x00\n      swap1\n      sload\n      swap1\n      0x0100\n      exp\n      swap1\n      div\n      0xffffffffffffffffffffffffffffffffffffffff\n      and\n        /* \"contracts/LunVenue_update.sol\":4781:4802  msg.sender == manager */\n      0xffffffffffffffffffffffffffffffffffffffff\n      and\n        /* \"contracts/LunVenue_update.sol\":4781:4791  msg.sender */\n      caller\n        /* \"contracts/LunVenue_update.sol\":4781:4802  msg.sender == manager */\n      0xffffffffffffffffffffffffffffffffffffffff\n      and\n      eq\n        /* \"contracts/LunVenue_update.sol\":4772:4842  require (msg.sender == manager, \"Can only be executed by the manager\") */\n      tag_123\n      jumpi\n      mload(0x40)\n      0x08c379a000000000000000000000000000000000000000000000000000000000\n      dup2\n      mstore\n      0x04\n      add\n      tag_124\n      swap1\n      tag_85\n      jump\t// in\n    tag_124:\n      mload(0x40)\n      dup1\n      swap2\n      sub\n      swap1\n      revert\n    tag_123:\n        /* \"contracts/LunVenue_update.sol\":1714:1730  restaurantExists */\n      0x02\n        /* \"contracts/LunVenue_update.sol\":1731:1735  name */\n      dup3\n        /* \"contracts/LunVenue_update.sol\":1714:1736  restaurantExists[name] */\n      mload(0x40)\n      tag_126\n      swap2\n      swap1\n      tag_127\n      jump\t// in\n    tag_126:\n      swap1\n      dup2\n      mstore\n      0x20\n      add\n      mload(0x40)\n      dup1\n      swap2\n      sub\n      swap1\n      keccak256\n      0x00\n      swap1\n      sload\n      swap1\n      0x0100\n      exp\n      swap1\n      div\n      0xff\n      and\n        /* \"contracts/LunVenue_update.sol\":1713:1736  !restaurantExists[name] */\n      iszero\n        /* \"contracts/LunVenue_update.sol\":1705:1766  require(!restaurantExists[name], \"Restaurant already exists\") */\n      tag_128\n      jumpi\n      mload(0x40)\n      0x08c379a000000000000000000000000000000000000000000000000000000000\n      dup2\n      mstore\n      0x04\n      add\n      tag_129\n      swap1\n      tag_130\n      jump\t// in\n    tag_129:\n      mload(0x40)\n      dup1\n      swap2\n      sub\n      swap1\n      revert\n    tag_128:\n        /* \"contracts/LunVenue_update.sol\":1777:1791  numRestaurants */\n      0x03\n      0x00\n        /* \"contracts/LunVenue_update.sol\":1777:1793  numRestaurants++ */\n      dup2\n      sload\n      dup1\n      swap3\n      swap2\n      swap1\n      tag_131\n      swap1\n      tag_100\n      jump\t// in\n    tag_131:\n      swap2\n      swap1\n      pop\n      sstore\n      pop\n        /* \"contracts/LunVenue_update.sol\":1834:1838  name */\n      dup2\n        /* \"contracts/LunVenue_update.sol\":1804:1815  restaurants */\n      0x00\n        /* \"contracts/LunVenue_update.sol\":1804:1831  restaurants[numRestaurants] */\n      dup1\n        /* \"contracts/LunVenue_update.sol\":1816:1830  numRestaurants */\n      sload(0x03)\n        /* \"contracts/LunVenue_update.sol\":1804:1831  restaurants[numRestaurants] */\n      dup2\n      mstore\n      0x20\n      add\n      swap1\n      dup2\n      mstore\n      0x20\n      add\n      0x00\n      keccak256\n        /* \"contracts/LunVenue_update.sol\":1804:1838  restaurants[numRestaurants] = name */\n      swap1\n      dup1\n      mload\n      swap1\n      0x20\n      add\n      swap1\n      tag_132\n      swap3\n      swap2\n      swap1\n      tag_120\n      jump\t// in\n    tag_132:\n      pop\n        /* \"contracts/LunVenue_update.sol\":1874:1878  true */\n      0x01\n        /* \"contracts/LunVenue_update.sol\":1849:1865  restaurantExists */\n      0x02\n        /* \"contracts/LunVenue_update.sol\":1866:1870  name */\n      dup4\n        /* \"contracts/LunVenue_update.sol\":1849:1871  restaurantExists[name] */\n      mload(0x40)\n      tag_133\n      swap2\n      swap1\n      tag_127\n      jump\t// in\n    tag_133:\n      swap1\n      dup2\n      mstore\n      0x20\n      add\n      mload(0x40)\n      dup1\n      swap2\n      sub\n      swap1\n      keccak256\n      0x00\n        /* \"contracts/LunVenue_update.sol\":1849:1878  restaurantExists[name] = true */\n      0x0100\n      exp\n      dup2\n      sload\n      dup2\n      0xff\n      mul\n      not\n      and\n      swap1\n      dup4\n      iszero\n      iszero\n      mul\n      or\n      swap1\n      sstore\n      pop\n        /* \"contracts/LunVenue_update.sol\":1896:1910  numRestaurants */\n      sload(0x03)\n        /* \"contracts/LunVenue_update.sol\":1889:1910  return numRestaurants */\n      swap1\n      pop\n        /* \"contracts/LunVenue_update.sol\":1619:1918  function addRestaurant(string memory name) public restricted returns (uint){\r... */\n      swap2\n      swap1\n      pop\n      jump\t// out\n        /* \"contracts/LunVenue_update.sol\":1077:1104  bool public voteOpen = true */\n    tag_62:\n      0x0a\n      0x00\n      swap1\n      sload\n      swap1\n      0x0100\n      exp\n      swap1\n      div\n      0xff\n      and\n      dup2\n      jump\t// out\n        /* \"contracts/LunVenue_update.sol\":724:748  uint public numVotes = 0 */\n    tag_65:\n      sload(0x05)\n      dup2\n      jump\t// out\n        /* \"contracts/LunVenue_update.sol\":550:597  mapping(string => bool) public restaurantExists */\n    tag_69:\n      0x02\n      dup2\n      dup1\n      mload\n      0x20\n      dup2\n      add\n      dup3\n      add\n      dup1\n      mload\n      dup5\n      dup3\n      mstore\n      0x20\n      dup4\n      add\n      0x20\n      dup6\n      add\n      keccak256\n      dup2\n      dup4\n      mstore\n      dup1\n      swap6\n      pop\n      pop\n      pop\n      pop\n      pop\n      pop\n      0x00\n      swap2\n      pop\n      sload\n      swap1\n      0x0100\n      exp\n      swap1\n      div\n      0xff\n      and\n      dup2\n      jump\t// out\n        /* \"contracts/LunVenue_update.sol\":371:414  mapping (uint => string) public restaurants */\n    tag_73:\n      mstore(0x20, 0x00)\n      dup1\n      0x00\n      mstore\n      keccak256(0x00, 0x40)\n      0x00\n      swap2\n      pop\n      swap1\n      pop\n      dup1\n      sload\n      tag_134\n      swap1\n      tag_93\n      jump\t// in\n    tag_134:\n      dup1\n      0x1f\n      add\n      0x20\n      dup1\n      swap2\n      div\n      mul\n      0x20\n      add\n      mload(0x40)\n      swap1\n      dup2\n      add\n      0x40\n      mstore\n      dup1\n      swap3\n      swap2\n      swap1\n      dup2\n      dup2\n      mstore\n      0x20\n      add\n      dup3\n      dup1\n      sload\n      tag_135\n      swap1\n      tag_93\n      jump\t// in\n    tag_135:\n      dup1\n      iszero\n      tag_136\n      jumpi\n      dup1\n      0x1f\n      lt\n      tag_137\n      jumpi\n      0x0100\n      dup1\n      dup4\n      sload\n      div\n      mul\n      dup4\n      mstore\n      swap2\n      0x20\n      add\n      swap2\n      jump(tag_136)\n    tag_137:\n      dup3\n      add\n      swap2\n      swap1\n      0x00\n      mstore\n      keccak256(0x00, 0x20)\n      swap1\n    tag_138:\n      dup2\n      sload\n      dup2\n      mstore\n      swap1\n      0x01\n      add\n      swap1\n      0x20\n      add\n      dup1\n      dup4\n      gt\n      tag_138\n      jumpi\n      dup3\n      swap1\n      sub\n      0x1f\n      and\n      dup3\n      add\n      swap2\n    tag_136:\n      pop\n      pop\n      pop\n      pop\n      pop\n      dup2\n      jump\t// out\n        /* \"contracts/LunVenue_update.sol\":654:684  uint public numRestaurants = 0 */\n    tag_77:\n      sload(0x03)\n      dup2\n      jump\t// out\n        /* \"contracts/LunVenue_update.sol\":823:857  string public votedRestaurant = \"\" */\n    tag_80:\n      0x07\n      dup1\n      sload\n      tag_139\n      swap1\n      tag_93\n      jump\t// in\n    tag_139:\n      dup1\n      0x1f\n      add\n      0x20\n      dup1\n      swap2\n      div\n      mul\n      0x20\n      add\n      mload(0x40)\n      swap1\n      dup2\n      add\n      0x40\n      mstore\n      dup1\n      swap3\n      swap2\n      swap1\n      dup2\n      dup2\n      mstore\n      0x20\n      add\n      dup3\n      dup1\n      sload\n      tag_140\n      swap1\n      tag_93\n      jump\t// in\n    tag_140:\n      dup1\n      iszero\n      tag_141\n      jumpi\n      dup1\n      0x1f\n      lt\n      tag_142\n      jumpi\n      0x0100\n      dup1\n      dup4\n      sload\n      div\n      mul\n      dup4\n      mstore\n      swap2\n      0x20\n      add\n      swap2\n      jump(tag_141)\n    tag_142:\n      dup3\n      add\n      swap2\n      swap1\n      0x00\n      mstore\n      keccak256(0x00, 0x20)\n      swap1\n    tag_143:\n      dup2\n      sload\n      dup2\n      mstore\n      swap1\n      0x01\n      add\n      swap1\n      0x20\n      add\n      dup1\n      dup4\n      gt\n      tag_143\n      jumpi\n      dup3\n      swap1\n      sub\n      0x1f\n      and\n      dup3\n      add\n      swap2\n    tag_141:\n      pop\n      pop\n      pop\n      pop\n      pop\n      dup2\n      jump\t// out\n        /* \"contracts/LunVenue_update.sol\":3745:4531  function finalResult() private{\r... */\n    tag_107:\n        /* \"contracts/LunVenue_update.sol\":3786:3803  uint highestVotes */\n      0x00\n        /* \"contracts/LunVenue_update.sol\":3818:3840  uint highestRestaurant */\n      dup1\n        /* \"contracts/LunVenue_update.sol\":3870:3876  uint i */\n      0x00\n        /* \"contracts/LunVenue_update.sol\":3879:3880  1 */\n      0x01\n        /* \"contracts/LunVenue_update.sol\":3870:3880  uint i = 1 */\n      swap1\n      pop\n        /* \"contracts/LunVenue_update.sol\":3865:4359  for (uint i = 1; i <= numVotes; i++){   //For each vote\r... */\n    tag_145:\n        /* \"contracts/LunVenue_update.sol\":3887:3895  numVotes */\n      sload(0x05)\n        /* \"contracts/LunVenue_update.sol\":3882:3883  i */\n      dup2\n        /* \"contracts/LunVenue_update.sol\":3882:3895  i <= numVotes */\n      gt\n        /* \"contracts/LunVenue_update.sol\":3865:4359  for (uint i = 1; i <= numVotes; i++){   //For each vote\r... */\n      tag_146\n      jumpi\n        /* \"contracts/LunVenue_update.sol\":3934:3948  uint voteCount */\n      0x00\n        /* \"contracts/LunVenue_update.sol\":3951:3952  1 */\n      0x01\n        /* \"contracts/LunVenue_update.sol\":3934:3952  uint voteCount = 1 */\n      swap1\n      pop\n        /* \"contracts/LunVenue_update.sol\":4002:4003  0 */\n      0x00\n        /* \"contracts/LunVenue_update.sol\":3970:3978  _results */\n      0x09\n        /* \"contracts/LunVenue_update.sol\":3970:3999  _results[votes[i].restaurant] */\n      0x00\n        /* \"contracts/LunVenue_update.sol\":3979:3984  votes */\n      0x08\n        /* \"contracts/LunVenue_update.sol\":3979:3987  votes[i] */\n      0x00\n        /* \"contracts/LunVenue_update.sol\":3985:3986  i */\n      dup7\n        /* \"contracts/LunVenue_update.sol\":3979:3987  votes[i] */\n      dup2\n      mstore\n      0x20\n      add\n      swap1\n      dup2\n      mstore\n      0x20\n      add\n      0x00\n      keccak256\n        /* \"contracts/LunVenue_update.sol\":3979:3998  votes[i].restaurant */\n      0x01\n      add\n      sload\n        /* \"contracts/LunVenue_update.sol\":3970:3999  _results[votes[i].restaurant] */\n      dup2\n      mstore\n      0x20\n      add\n      swap1\n      dup2\n      mstore\n      0x20\n      add\n      0x00\n      keccak256\n      sload\n        /* \"contracts/LunVenue_update.sol\":3970:4003  _results[votes[i].restaurant] > 0 */\n      gt\n        /* \"contracts/LunVenue_update.sol\":3967:4108  if(_results[votes[i].restaurant] > 0) { // Already start counting\r... */\n      iszero\n      tag_148\n      jumpi\n        /* \"contracts/LunVenue_update.sol\":4063:4071  _results */\n      0x09\n        /* \"contracts/LunVenue_update.sol\":4063:4092  _results[votes[i].restaurant] */\n      0x00\n        /* \"contracts/LunVenue_update.sol\":4072:4077  votes */\n      0x08\n        /* \"contracts/LunVenue_update.sol\":4072:4080  votes[i] */\n      0x00\n        /* \"contracts/LunVenue_update.sol\":4078:4079  i */\n      dup6\n        /* \"contracts/LunVenue_update.sol\":4072:4080  votes[i] */\n      dup2\n      mstore\n      0x20\n      add\n      swap1\n      dup2\n      mstore\n      0x20\n      add\n      0x00\n      keccak256\n        /* \"contracts/LunVenue_update.sol\":4072:4091  votes[i].restaurant */\n      0x01\n      add\n      sload\n        /* \"contracts/LunVenue_update.sol\":4063:4092  _results[votes[i].restaurant] */\n      dup2\n      mstore\n      0x20\n      add\n      swap1\n      dup2\n      mstore\n      0x20\n      add\n      0x00\n      keccak256\n      sload\n        /* \"contracts/LunVenue_update.sol\":4050:4092  voteCount += _results[votes[i].restaurant] */\n      dup2\n      tag_149\n      swap2\n      swap1\n      tag_104\n      jump\t// in\n    tag_149:\n      swap1\n      pop\n        /* \"contracts/LunVenue_update.sol\":3967:4108  if(_results[votes[i].restaurant] > 0) { // Already start counting\r... */\n    tag_148:\n        /* \"contracts/LunVenue_update.sol\":4154:4163  voteCount */\n      dup1\n        /* \"contracts/LunVenue_update.sol\":4122:4130  _results */\n      0x09\n        /* \"contracts/LunVenue_update.sol\":4122:4151  _results[votes[i].restaurant] */\n      0x00\n        /* \"contracts/LunVenue_update.sol\":4131:4136  votes */\n      0x08\n        /* \"contracts/LunVenue_update.sol\":4131:4139  votes[i] */\n      0x00\n        /* \"contracts/LunVenue_update.sol\":4137:4138  i */\n      dup7\n        /* \"contracts/LunVenue_update.sol\":4131:4139  votes[i] */\n      dup2\n      mstore\n      0x20\n      add\n      swap1\n      dup2\n      mstore\n      0x20\n      add\n      0x00\n      keccak256\n        /* \"contracts/LunVenue_update.sol\":4131:4150  votes[i].restaurant */\n      0x01\n      add\n      sload\n        /* \"contracts/LunVenue_update.sol\":4122:4151  _results[votes[i].restaurant] */\n      dup2\n      mstore\n      0x20\n      add\n      swap1\n      dup2\n      mstore\n      0x20\n      add\n      0x00\n      keccak256\n        /* \"contracts/LunVenue_update.sol\":4122:4163  _results[votes[i].restaurant] = voteCount */\n      dup2\n      swap1\n      sstore\n      pop\n        /* \"contracts/LunVenue_update.sol\":4204:4216  highestVotes */\n      dup4\n        /* \"contracts/LunVenue_update.sol\":4192:4201  voteCount */\n      dup2\n        /* \"contracts/LunVenue_update.sol\":4192:4216  voteCount > highestVotes */\n      gt\n        /* \"contracts/LunVenue_update.sol\":4188:4348  if (voteCount > highestVotes){ // New winner\r... */\n      iszero\n      tag_150\n      jumpi\n        /* \"contracts/LunVenue_update.sol\":4265:4274  voteCount */\n      dup1\n        /* \"contracts/LunVenue_update.sol\":4250:4274  highestVotes = voteCount */\n      swap4\n      pop\n        /* \"contracts/LunVenue_update.sol\":4313:4318  votes */\n      0x08\n        /* \"contracts/LunVenue_update.sol\":4313:4321  votes[i] */\n      0x00\n        /* \"contracts/LunVenue_update.sol\":4319:4320  i */\n      dup4\n        /* \"contracts/LunVenue_update.sol\":4313:4321  votes[i] */\n      dup2\n      mstore\n      0x20\n      add\n      swap1\n      dup2\n      mstore\n      0x20\n      add\n      0x00\n      keccak256\n        /* \"contracts/LunVenue_update.sol\":4313:4332  votes[i].restaurant */\n      0x01\n      add\n      sload\n        /* \"contracts/LunVenue_update.sol\":4293:4332  highestRestaurant = votes[i].restaurant */\n      swap3\n      pop\n        /* \"contracts/LunVenue_update.sol\":4188:4348  if (voteCount > highestVotes){ // New winner\r... */\n    tag_150:\n        /* \"contracts/LunVenue_update.sol\":3901:4359  {   //For each vote\r... */\n      pop\n        /* \"contracts/LunVenue_update.sol\":3897:3900  i++ */\n      dup1\n      dup1\n      tag_151\n      swap1\n      tag_100\n      jump\t// in\n    tag_151:\n      swap2\n      pop\n      pop\n        /* \"contracts/LunVenue_update.sol\":3865:4359  for (uint i = 1; i <= numVotes; i++){   //For each vote\r... */\n      jump(tag_145)\n    tag_146:\n      pop\n        /* \"contracts/LunVenue_update.sol\":4387:4398  restaurants */\n      0x00\n        /* \"contracts/LunVenue_update.sol\":4387:4417  restaurants[highestRestaurant] */\n      dup1\n        /* \"contracts/LunVenue_update.sol\":4399:4416  highestRestaurant */\n      dup3\n        /* \"contracts/LunVenue_update.sol\":4387:4417  restaurants[highestRestaurant] */\n      dup2\n      mstore\n      0x20\n      add\n      swap1\n      dup2\n      mstore\n      0x20\n      add\n      0x00\n      keccak256\n        /* \"contracts/LunVenue_update.sol\":4369:4384  votedRestaurant */\n      0x07\n        /* \"contracts/LunVenue_update.sol\":4369:4417  votedRestaurant = restaurants[highestRestaurant] */\n      swap1\n      dup1\n      sload\n      tag_152\n      swap1\n      tag_93\n      jump\t// in\n    tag_152:\n      tag_153\n      swap3\n      swap2\n      swap1\n      tag_154\n      jump\t// in\n    tag_153:\n      pop\n        /* \"contracts/LunVenue_update.sol\":4461:4466  false */\n      0x00\n        /* \"contracts/LunVenue_update.sol\":4450:4458  voteOpen */\n      0x0a\n      0x00\n        /* \"contracts/LunVenue_update.sol\":4450:4466  voteOpen = false */\n      0x0100\n      exp\n      dup2\n      sload\n      dup2\n      0xff\n      mul\n      not\n      and\n      swap1\n      dup4\n      iszero\n      iszero\n      mul\n      or\n      swap1\n      sstore\n      pop\n        /* \"contracts/LunVenue_update.sol\":3775:4531  {\r... */\n      pop\n      pop\n        /* \"contracts/LunVenue_update.sol\":3745:4531  function finalResult() private{\r... */\n      jump\t// out\n    tag_98:\n      mload(0x40)\n      dup1\n      0x40\n      add\n      0x40\n      mstore\n      dup1\n      and(0xffffffffffffffffffffffffffffffffffffffff, 0x00)\n      dup2\n      mstore\n      0x20\n      add\n      0x00\n      dup2\n      mstore\n      pop\n      swap1\n      jump\t// out\n    tag_118:\n      mload(0x40)\n      dup1\n      0x40\n      add\n      0x40\n      mstore\n      dup1\n      0x60\n      dup2\n      mstore\n      0x20\n      add\n      iszero(iszero(0x00))\n      dup2\n      mstore\n      pop\n      swap1\n      jump\t// out\n    tag_120:\n      dup3\n      dup1\n      sload\n      tag_155\n      swap1\n      tag_93\n      jump\t// in\n    tag_155:\n      swap1\n      0x00\n      mstore\n      keccak256(0x00, 0x20)\n      swap1\n      0x1f\n      add\n      0x20\n      swap1\n      div\n      dup2\n      add\n      swap3\n      dup3\n      tag_157\n      jumpi\n      0x00\n      dup6\n      sstore\n      jump(tag_156)\n    tag_157:\n      dup3\n      0x1f\n      lt\n      tag_158\n      jumpi\n      dup1\n      mload\n      not(0xff)\n      and\n      dup4\n      dup1\n      add\n      or\n      dup6\n      sstore\n      jump(tag_156)\n    tag_158:\n      dup3\n      dup1\n      add\n      0x01\n      add\n      dup6\n      sstore\n      dup3\n      iszero\n      tag_156\n      jumpi\n      swap2\n      dup3\n      add\n    tag_159:\n      dup3\n      dup2\n      gt\n      iszero\n      tag_160\n      jumpi\n      dup3\n      mload\n      dup3\n      sstore\n      swap2\n      0x20\n      add\n      swap2\n      swap1\n      0x01\n      add\n      swap1\n      jump(tag_159)\n    tag_160:\n    tag_156:\n      pop\n      swap1\n      pop\n      tag_161\n      swap2\n      swap1\n      tag_162\n      jump\t// in\n    tag_161:\n      pop\n      swap1\n      jump\t// out\n    tag_154:\n      dup3\n      dup1\n      sload\n      tag_163\n      swap1\n      tag_93\n      jump\t// in\n    tag_163:\n      swap1\n      0x00\n      mstore\n      keccak256(0x00, 0x20)\n      swap1\n      0x1f\n      add\n      0x20\n      swap1\n      div\n      dup2\n      add\n      swap3\n      dup3\n      tag_165\n      jumpi\n      0x00\n      dup6\n      sstore\n      jump(tag_164)\n    tag_165:\n      dup3\n      0x1f\n      lt\n      tag_166\n      jumpi\n      dup1\n      sload\n      dup6\n      sstore\n      jump(tag_164)\n    tag_166:\n      dup3\n      dup1\n      add\n      0x01\n      add\n      dup6\n      sstore\n      dup3\n      iszero\n      tag_164\n      jumpi\n      0x00\n      mstore\n      keccak256(0x00, 0x20)\n      swap2\n      0x1f\n      add\n      0x20\n      swap1\n      div\n      dup3\n      add\n    tag_167:\n      dup3\n      dup2\n      gt\n      iszero\n      tag_168\n      jumpi\n      dup3\n      sload\n      dup3\n      sstore\n      swap2\n      0x01\n      add\n      swap2\n      swap1\n      0x01\n      add\n      swap1\n      jump(tag_167)\n    tag_168:\n    tag_164:\n      pop\n      swap1\n      pop\n      tag_169\n      swap2\n      swap1\n      tag_162\n      jump\t// in\n    tag_169:\n      pop\n      swap1\n      jump\t// out\n    tag_162:\n    tag_170:\n      dup1\n      dup3\n      gt\n      iszero\n      tag_171\n      jumpi\n      0x00\n      dup2\n      0x00\n      swap1\n      sstore\n      pop\n      0x01\n      add\n      jump(tag_170)\n    tag_171:\n      pop\n      swap1\n      jump\t// out\n        /* \"#utility.yul\":7:419   */\n    tag_173:\n        /* \"#utility.yul\":85:90   */\n      0x00\n        /* \"#utility.yul\":110:176   */\n      tag_175\n        /* \"#utility.yul\":126:175   */\n      tag_176\n        /* \"#utility.yul\":168:174   */\n      dup5\n        /* \"#utility.yul\":126:175   */\n      tag_177\n      jump\t// in\n    tag_176:\n        /* \"#utility.yul\":110:176   */\n      tag_178\n      jump\t// in\n    tag_175:\n        /* \"#utility.yul\":101:176   */\n      swap1\n      pop\n        /* \"#utility.yul\":199:205   */\n      dup3\n        /* \"#utility.yul\":192:197   */\n      dup2\n        /* \"#utility.yul\":185:206   */\n      mstore\n        /* \"#utility.yul\":237:241   */\n      0x20\n        /* \"#utility.yul\":230:235   */\n      dup2\n        /* \"#utility.yul\":226:242   */\n      add\n        /* \"#utility.yul\":275:278   */\n      dup5\n        /* \"#utility.yul\":266:272   */\n      dup5\n        /* \"#utility.yul\":261:264   */\n      dup5\n        /* \"#utility.yul\":257:273   */\n      add\n        /* \"#utility.yul\":254:279   */\n      gt\n        /* \"#utility.yul\":251:253   */\n      iszero\n      tag_179\n      jumpi\n        /* \"#utility.yul\":282:361   */\n      tag_180\n      tag_181\n      jump\t// in\n    tag_180:\n        /* \"#utility.yul\":251:253   */\n    tag_179:\n        /* \"#utility.yul\":372:413   */\n      tag_182\n        /* \"#utility.yul\":406:412   */\n      dup5\n        /* \"#utility.yul\":401:404   */\n      dup3\n        /* \"#utility.yul\":396:399   */\n      dup6\n        /* \"#utility.yul\":372:413   */\n      tag_183\n      jump\t// in\n    tag_182:\n        /* \"#utility.yul\":91:419   */\n      pop\n      swap4\n      swap3\n      pop\n      pop\n      pop\n      jump\t// out\n        /* \"#utility.yul\":425:564   */\n    tag_184:\n        /* \"#utility.yul\":471:476   */\n      0x00\n        /* \"#utility.yul\":509:515   */\n      dup2\n        /* \"#utility.yul\":496:516   */\n      calldataload\n        /* \"#utility.yul\":487:516   */\n      swap1\n      pop\n        /* \"#utility.yul\":525:558   */\n      tag_186\n        /* \"#utility.yul\":552:557   */\n      dup2\n        /* \"#utility.yul\":525:558   */\n      tag_187\n      jump\t// in\n    tag_186:\n        /* \"#utility.yul\":477:564   */\n      swap3\n      swap2\n      pop\n      pop\n      jump\t// out\n        /* \"#utility.yul\":584:924   */\n    tag_188:\n        /* \"#utility.yul\":640:645   */\n      0x00\n        /* \"#utility.yul\":689:692   */\n      dup3\n        /* \"#utility.yul\":682:686   */\n      0x1f\n        /* \"#utility.yul\":674:680   */\n      dup4\n        /* \"#utility.yul\":670:687   */\n      add\n        /* \"#utility.yul\":666:693   */\n      slt\n        /* \"#utility.yul\":656:658   */\n      tag_190\n      jumpi\n        /* \"#utility.yul\":697:776   */\n      tag_191\n      tag_192\n      jump\t// in\n    tag_191:\n        /* \"#utility.yul\":656:658   */\n    tag_190:\n        /* \"#utility.yul\":814:820   */\n      dup2\n        /* \"#utility.yul\":801:821   */\n      calldataload\n        /* \"#utility.yul\":839:918   */\n      tag_193\n        /* \"#utility.yul\":914:917   */\n      dup5\n        /* \"#utility.yul\":906:912   */\n      dup3\n        /* \"#utility.yul\":899:903   */\n      0x20\n        /* \"#utility.yul\":891:897   */\n      dup7\n        /* \"#utility.yul\":887:904   */\n      add\n        /* \"#utility.yul\":839:918   */\n      tag_173\n      jump\t// in\n    tag_193:\n        /* \"#utility.yul\":830:918   */\n      swap2\n      pop\n        /* \"#utility.yul\":646:924   */\n      pop\n      swap3\n      swap2\n      pop\n      pop\n      jump\t// out\n        /* \"#utility.yul\":930:1069   */\n    tag_194:\n        /* \"#utility.yul\":976:981   */\n      0x00\n        /* \"#utility.yul\":1014:1020   */\n      dup2\n        /* \"#utility.yul\":1001:1021   */\n      calldataload\n        /* \"#utility.yul\":992:1021   */\n      swap1\n      pop\n        /* \"#utility.yul\":1030:1063   */\n      tag_196\n        /* \"#utility.yul\":1057:1062   */\n      dup2\n        /* \"#utility.yul\":1030:1063   */\n      tag_197\n      jump\t// in\n    tag_196:\n        /* \"#utility.yul\":982:1069   */\n      swap3\n      swap2\n      pop\n      pop\n      jump\t// out\n        /* \"#utility.yul\":1075:1404   */\n    tag_31:\n        /* \"#utility.yul\":1134:1140   */\n      0x00\n        /* \"#utility.yul\":1183:1185   */\n      0x20\n        /* \"#utility.yul\":1171:1180   */\n      dup3\n        /* \"#utility.yul\":1162:1169   */\n      dup5\n        /* \"#utility.yul\":1158:1181   */\n      sub\n        /* \"#utility.yul\":1154:1186   */\n      slt\n        /* \"#utility.yul\":1151:1153   */\n      iszero\n      tag_199\n      jumpi\n        /* \"#utility.yul\":1189:1268   */\n      tag_200\n      tag_201\n      jump\t// in\n    tag_200:\n        /* \"#utility.yul\":1151:1153   */\n    tag_199:\n        /* \"#utility.yul\":1309:1310   */\n      0x00\n        /* \"#utility.yul\":1334:1387   */\n      tag_202\n        /* \"#utility.yul\":1379:1386   */\n      dup5\n        /* \"#utility.yul\":1370:1376   */\n      dup3\n        /* \"#utility.yul\":1359:1368   */\n      dup6\n        /* \"#utility.yul\":1355:1377   */\n      add\n        /* \"#utility.yul\":1334:1387   */\n      tag_184\n      jump\t// in\n    tag_202:\n        /* \"#utility.yul\":1324:1387   */\n      swap2\n      pop\n        /* \"#utility.yul\":1280:1397   */\n      pop\n        /* \"#utility.yul\":1141:1404   */\n      swap3\n      swap2\n      pop\n      pop\n      jump\t// out\n        /* \"#utility.yul\":1410:2064   */\n    tag_40:\n        /* \"#utility.yul\":1488:1494   */\n      0x00\n        /* \"#utility.yul\":1496:1502   */\n      dup1\n        /* \"#utility.yul\":1545:1547   */\n      0x40\n        /* \"#utility.yul\":1533:1542   */\n      dup4\n        /* \"#utility.yul\":1524:1531   */\n      dup6\n        /* \"#utility.yul\":1520:1543   */\n      sub\n        /* \"#utility.yul\":1516:1548   */\n      slt\n        /* \"#utility.yul\":1513:1515   */\n      iszero\n      tag_204\n      jumpi\n        /* \"#utility.yul\":1551:1630   */\n      tag_205\n      tag_201\n      jump\t// in\n    tag_205:\n        /* \"#utility.yul\":1513:1515   */\n    tag_204:\n        /* \"#utility.yul\":1671:1672   */\n      0x00\n        /* \"#utility.yul\":1696:1749   */\n      tag_206\n        /* \"#utility.yul\":1741:1748   */\n      dup6\n        /* \"#utility.yul\":1732:1738   */\n      dup3\n        /* \"#utility.yul\":1721:1730   */\n      dup7\n        /* \"#utility.yul\":1717:1739   */\n      add\n        /* \"#utility.yul\":1696:1749   */\n      tag_184\n      jump\t// in\n    tag_206:\n        /* \"#utility.yul\":1686:1749   */\n      swap3\n      pop\n        /* \"#utility.yul\":1642:1759   */\n      pop\n        /* \"#utility.yul\":1826:1828   */\n      0x20\n        /* \"#utility.yul\":1815:1824   */\n      dup4\n        /* \"#utility.yul\":1811:1829   */\n      add\n        /* \"#utility.yul\":1798:1830   */\n      calldataload\n        /* \"#utility.yul\":1857:1875   */\n      0xffffffffffffffff\n        /* \"#utility.yul\":1849:1855   */\n      dup2\n        /* \"#utility.yul\":1846:1876   */\n      gt\n        /* \"#utility.yul\":1843:1845   */\n      iszero\n      tag_207\n      jumpi\n        /* \"#utility.yul\":1879:1958   */\n      tag_208\n      tag_209\n      jump\t// in\n    tag_208:\n        /* \"#utility.yul\":1843:1845   */\n    tag_207:\n        /* \"#utility.yul\":1984:2047   */\n      tag_210\n        /* \"#utility.yul\":2039:2046   */\n      dup6\n        /* \"#utility.yul\":2030:2036   */\n      dup3\n        /* \"#utility.yul\":2019:2028   */\n      dup7\n        /* \"#utility.yul\":2015:2037   */\n      add\n        /* \"#utility.yul\":1984:2047   */\n      tag_188\n      jump\t// in\n    tag_210:\n        /* \"#utility.yul\":1974:2047   */\n      swap2\n      pop\n        /* \"#utility.yul\":1769:2057   */\n      pop\n        /* \"#utility.yul\":1503:2064   */\n      swap3\n      pop\n      swap3\n      swap1\n      pop\n      jump\t// out\n        /* \"#utility.yul\":2070:2579   */\n    tag_58:\n        /* \"#utility.yul\":2139:2145   */\n      0x00\n        /* \"#utility.yul\":2188:2190   */\n      0x20\n        /* \"#utility.yul\":2176:2185   */\n      dup3\n        /* \"#utility.yul\":2167:2174   */\n      dup5\n        /* \"#utility.yul\":2163:2186   */\n      sub\n        /* \"#utility.yul\":2159:2191   */\n      slt\n        /* \"#utility.yul\":2156:2158   */\n      iszero\n      tag_212\n      jumpi\n        /* \"#utility.yul\":2194:2273   */\n      tag_213\n      tag_201\n      jump\t// in\n    tag_213:\n        /* \"#utility.yul\":2156:2158   */\n    tag_212:\n        /* \"#utility.yul\":2342:2343   */\n      0x00\n        /* \"#utility.yul\":2331:2340   */\n      dup3\n        /* \"#utility.yul\":2327:2344   */\n      add\n        /* \"#utility.yul\":2314:2345   */\n      calldataload\n        /* \"#utility.yul\":2372:2390   */\n      0xffffffffffffffff\n        /* \"#utility.yul\":2364:2370   */\n      dup2\n        /* \"#utility.yul\":2361:2391   */\n      gt\n        /* \"#utility.yul\":2358:2360   */\n      iszero\n      tag_214\n      jumpi\n        /* \"#utility.yul\":2394:2473   */\n      tag_215\n      tag_209\n      jump\t// in\n    tag_215:\n        /* \"#utility.yul\":2358:2360   */\n    tag_214:\n        /* \"#utility.yul\":2499:2562   */\n      tag_216\n        /* \"#utility.yul\":2554:2561   */\n      dup5\n        /* \"#utility.yul\":2545:2551   */\n      dup3\n        /* \"#utility.yul\":2534:2543   */\n      dup6\n        /* \"#utility.yul\":2530:2552   */\n      add\n        /* \"#utility.yul\":2499:2562   */\n      tag_188\n      jump\t// in\n    tag_216:\n        /* \"#utility.yul\":2489:2562   */\n      swap2\n      pop\n        /* \"#utility.yul\":2285:2572   */\n      pop\n        /* \"#utility.yul\":2146:2579   */\n      swap3\n      swap2\n      pop\n      pop\n      jump\t// out\n        /* \"#utility.yul\":2585:2914   */\n    tag_25:\n        /* \"#utility.yul\":2644:2650   */\n      0x00\n        /* \"#utility.yul\":2693:2695   */\n      0x20\n        /* \"#utility.yul\":2681:2690   */\n      dup3\n        /* \"#utility.yul\":2672:2679   */\n      dup5\n        /* \"#utility.yul\":2668:2691   */\n      sub\n        /* \"#utility.yul\":2664:2696   */\n      slt\n        /* \"#utility.yul\":2661:2663   */\n      iszero\n      tag_218\n      jumpi\n        /* \"#utility.yul\":2699:2778   */\n      tag_219\n      tag_201\n      jump\t// in\n    tag_219:\n        /* \"#utility.yul\":2661:2663   */\n    tag_218:\n        /* \"#utility.yul\":2819:2820   */\n      0x00\n        /* \"#utility.yul\":2844:2897   */\n      tag_220\n        /* \"#utility.yul\":2889:2896   */\n      dup5\n        /* \"#utility.yul\":2880:2886   */\n      dup3\n        /* \"#utility.yul\":2869:2878   */\n      dup6\n        /* \"#utility.yul\":2865:2887   */\n      add\n        /* \"#utility.yul\":2844:2897   */\n      tag_194\n      jump\t// in\n    tag_220:\n        /* \"#utility.yul\":2834:2897   */\n      swap2\n      pop\n        /* \"#utility.yul\":2790:2907   */\n      pop\n        /* \"#utility.yul\":2651:2914   */\n      swap3\n      swap2\n      pop\n      pop\n      jump\t// out\n        /* \"#utility.yul\":2920:3038   */\n    tag_221:\n        /* \"#utility.yul\":3007:3031   */\n      tag_223\n        /* \"#utility.yul\":3025:3030   */\n      dup2\n        /* \"#utility.yul\":3007:3031   */\n      tag_224\n      jump\t// in\n    tag_223:\n        /* \"#utility.yul\":3002:3005   */\n      dup3\n        /* \"#utility.yul\":2995:3032   */\n      mstore\n        /* \"#utility.yul\":2985:3038   */\n      pop\n      pop\n      jump\t// out\n        /* \"#utility.yul\":3044:3153   */\n    tag_225:\n        /* \"#utility.yul\":3125:3146   */\n      tag_227\n        /* \"#utility.yul\":3140:3145   */\n      dup2\n        /* \"#utility.yul\":3125:3146   */\n      tag_228\n      jump\t// in\n    tag_227:\n        /* \"#utility.yul\":3120:3123   */\n      dup3\n        /* \"#utility.yul\":3113:3147   */\n      mstore\n        /* \"#utility.yul\":3103:3153   */\n      pop\n      pop\n      jump\t// out\n        /* \"#utility.yul\":3159:3523   */\n    tag_229:\n        /* \"#utility.yul\":3247:3250   */\n      0x00\n        /* \"#utility.yul\":3275:3314   */\n      tag_231\n        /* \"#utility.yul\":3308:3313   */\n      dup3\n        /* \"#utility.yul\":3275:3314   */\n      tag_232\n      jump\t// in\n    tag_231:\n        /* \"#utility.yul\":3330:3401   */\n      tag_233\n        /* \"#utility.yul\":3394:3400   */\n      dup2\n        /* \"#utility.yul\":3389:3392   */\n      dup6\n        /* \"#utility.yul\":3330:3401   */\n      tag_234\n      jump\t// in\n    tag_233:\n        /* \"#utility.yul\":3323:3401   */\n      swap4\n      pop\n        /* \"#utility.yul\":3410:3462   */\n      tag_235\n        /* \"#utility.yul\":3455:3461   */\n      dup2\n        /* \"#utility.yul\":3450:3453   */\n      dup6\n        /* \"#utility.yul\":3443:3447   */\n      0x20\n        /* \"#utility.yul\":3436:3441   */\n      dup7\n        /* \"#utility.yul\":3432:3448   */\n      add\n        /* \"#utility.yul\":3410:3462   */\n      tag_236\n      jump\t// in\n    tag_235:\n        /* \"#utility.yul\":3487:3516   */\n      tag_237\n        /* \"#utility.yul\":3509:3515   */\n      dup2\n        /* \"#utility.yul\":3487:3516   */\n      tag_238\n      jump\t// in\n    tag_237:\n        /* \"#utility.yul\":3482:3485   */\n      dup5\n        /* \"#utility.yul\":3478:3517   */\n      add\n        /* \"#utility.yul\":3471:3517   */\n      swap2\n      pop\n        /* \"#utility.yul\":3251:3523   */\n      pop\n      swap3\n      swap2\n      pop\n      pop\n      jump\t// out\n        /* \"#utility.yul\":3529:3906   */\n    tag_239:\n        /* \"#utility.yul\":3635:3638   */\n      0x00\n        /* \"#utility.yul\":3663:3702   */\n      tag_241\n        /* \"#utility.yul\":3696:3701   */\n      dup3\n        /* \"#utility.yul\":3663:3702   */\n      tag_232\n      jump\t// in\n    tag_241:\n        /* \"#utility.yul\":3718:3807   */\n      tag_242\n        /* \"#utility.yul\":3800:3806   */\n      dup2\n        /* \"#utility.yul\":3795:3798   */\n      dup6\n        /* \"#utility.yul\":3718:3807   */\n      tag_243\n      jump\t// in\n    tag_242:\n        /* \"#utility.yul\":3711:3807   */\n      swap4\n      pop\n        /* \"#utility.yul\":3816:3868   */\n      tag_244\n        /* \"#utility.yul\":3861:3867   */\n      dup2\n        /* \"#utility.yul\":3856:3859   */\n      dup6\n        /* \"#utility.yul\":3849:3853   */\n      0x20\n        /* \"#utility.yul\":3842:3847   */\n      dup7\n        /* \"#utility.yul\":3838:3854   */\n      add\n        /* \"#utility.yul\":3816:3868   */\n      tag_236\n      jump\t// in\n    tag_244:\n        /* \"#utility.yul\":3893:3899   */\n      dup1\n        /* \"#utility.yul\":3888:3891   */\n      dup5\n        /* \"#utility.yul\":3884:3900   */\n      add\n        /* \"#utility.yul\":3877:3900   */\n      swap2\n      pop\n        /* \"#utility.yul\":3639:3906   */\n      pop\n      swap3\n      swap2\n      pop\n      pop\n      jump\t// out\n        /* \"#utility.yul\":3912:4278   */\n    tag_245:\n        /* \"#utility.yul\":4054:4057   */\n      0x00\n        /* \"#utility.yul\":4075:4142   */\n      tag_247\n        /* \"#utility.yul\":4139:4141   */\n      0x19\n        /* \"#utility.yul\":4134:4137   */\n      dup4\n        /* \"#utility.yul\":4075:4142   */\n      tag_234\n      jump\t// in\n    tag_247:\n        /* \"#utility.yul\":4068:4142   */\n      swap2\n      pop\n        /* \"#utility.yul\":4151:4244   */\n      tag_248\n        /* \"#utility.yul\":4240:4243   */\n      dup3\n        /* \"#utility.yul\":4151:4244   */\n      tag_249\n      jump\t// in\n    tag_248:\n        /* \"#utility.yul\":4269:4271   */\n      0x20\n        /* \"#utility.yul\":4264:4267   */\n      dup3\n        /* \"#utility.yul\":4260:4272   */\n      add\n        /* \"#utility.yul\":4253:4272   */\n      swap1\n      pop\n        /* \"#utility.yul\":4058:4278   */\n      swap2\n      swap1\n      pop\n      jump\t// out\n        /* \"#utility.yul\":4284:4650   */\n    tag_250:\n        /* \"#utility.yul\":4426:4429   */\n      0x00\n        /* \"#utility.yul\":4447:4514   */\n      tag_252\n        /* \"#utility.yul\":4511:4513   */\n      0x23\n        /* \"#utility.yul\":4506:4509   */\n      dup4\n        /* \"#utility.yul\":4447:4514   */\n      tag_234\n      jump\t// in\n    tag_252:\n        /* \"#utility.yul\":4440:4514   */\n      swap2\n      pop\n        /* \"#utility.yul\":4523:4616   */\n      tag_253\n        /* \"#utility.yul\":4612:4615   */\n      dup3\n        /* \"#utility.yul\":4523:4616   */\n      tag_254\n      jump\t// in\n    tag_253:\n        /* \"#utility.yul\":4641:4643   */\n      0x40\n        /* \"#utility.yul\":4636:4639   */\n      dup3\n        /* \"#utility.yul\":4632:4644   */\n      add\n        /* \"#utility.yul\":4625:4644   */\n      swap1\n      pop\n        /* \"#utility.yul\":4430:4650   */\n      swap2\n      swap1\n      pop\n      jump\t// out\n        /* \"#utility.yul\":4656:5022   */\n    tag_255:\n        /* \"#utility.yul\":4798:4801   */\n      0x00\n        /* \"#utility.yul\":4819:4886   */\n      tag_257\n        /* \"#utility.yul\":4883:4885   */\n      0x23\n        /* \"#utility.yul\":4878:4881   */\n      dup4\n        /* \"#utility.yul\":4819:4886   */\n      tag_234\n      jump\t// in\n    tag_257:\n        /* \"#utility.yul\":4812:4886   */\n      swap2\n      pop\n        /* \"#utility.yul\":4895:4988   */\n      tag_258\n        /* \"#utility.yul\":4984:4987   */\n      dup3\n        /* \"#utility.yul\":4895:4988   */\n      tag_259\n      jump\t// in\n    tag_258:\n        /* \"#utility.yul\":5013:5015   */\n      0x40\n        /* \"#utility.yul\":5008:5011   */\n      dup3\n        /* \"#utility.yul\":5004:5016   */\n      add\n        /* \"#utility.yul\":4997:5016   */\n      swap1\n      pop\n        /* \"#utility.yul\":4802:5022   */\n      swap2\n      swap1\n      pop\n      jump\t// out\n        /* \"#utility.yul\":5028:5146   */\n    tag_260:\n        /* \"#utility.yul\":5115:5139   */\n      tag_262\n        /* \"#utility.yul\":5133:5138   */\n      dup2\n        /* \"#utility.yul\":5115:5139   */\n      tag_263\n      jump\t// in\n    tag_262:\n        /* \"#utility.yul\":5110:5113   */\n      dup3\n        /* \"#utility.yul\":5103:5140   */\n      mstore\n        /* \"#utility.yul\":5093:5146   */\n      pop\n      pop\n      jump\t// out\n        /* \"#utility.yul\":5152:5427   */\n    tag_127:\n        /* \"#utility.yul\":5284:5287   */\n      0x00\n        /* \"#utility.yul\":5306:5401   */\n      tag_265\n        /* \"#utility.yul\":5397:5400   */\n      dup3\n        /* \"#utility.yul\":5388:5394   */\n      dup5\n        /* \"#utility.yul\":5306:5401   */\n      tag_239\n      jump\t// in\n    tag_265:\n        /* \"#utility.yul\":5299:5401   */\n      swap2\n      pop\n        /* \"#utility.yul\":5418:5421   */\n      dup2\n        /* \"#utility.yul\":5411:5421   */\n      swap1\n      pop\n        /* \"#utility.yul\":5288:5427   */\n      swap3\n      swap2\n      pop\n      pop\n      jump\t// out\n        /* \"#utility.yul\":5433:5655   */\n    tag_50:\n        /* \"#utility.yul\":5526:5530   */\n      0x00\n        /* \"#utility.yul\":5564:5566   */\n      0x20\n        /* \"#utility.yul\":5553:5562   */\n      dup3\n        /* \"#utility.yul\":5549:5567   */\n      add\n        /* \"#utility.yul\":5541:5567   */\n      swap1\n      pop\n        /* \"#utility.yul\":5577:5648   */\n      tag_267\n        /* \"#utility.yul\":5645:5646   */\n      0x00\n        /* \"#utility.yul\":5634:5643   */\n      dup4\n        /* \"#utility.yul\":5630:5647   */\n      add\n        /* \"#utility.yul\":5621:5627   */\n      dup5\n        /* \"#utility.yul\":5577:5648   */\n      tag_221\n      jump\t// in\n    tag_267:\n        /* \"#utility.yul\":5531:5655   */\n      swap3\n      swap2\n      pop\n      pop\n      jump\t// out\n        /* \"#utility.yul\":5661:5993   */\n    tag_55:\n        /* \"#utility.yul\":5782:5786   */\n      0x00\n        /* \"#utility.yul\":5820:5822   */\n      0x40\n        /* \"#utility.yul\":5809:5818   */\n      dup3\n        /* \"#utility.yul\":5805:5823   */\n      add\n        /* \"#utility.yul\":5797:5823   */\n      swap1\n      pop\n        /* \"#utility.yul\":5833:5904   */\n      tag_269\n        /* \"#utility.yul\":5901:5902   */\n      0x00\n        /* \"#utility.yul\":5890:5899   */\n      dup4\n        /* \"#utility.yul\":5886:5903   */\n      add\n        /* \"#utility.yul\":5877:5883   */\n      dup6\n        /* \"#utility.yul\":5833:5904   */\n      tag_221\n      jump\t// in\n    tag_269:\n        /* \"#utility.yul\":5914:5986   */\n      tag_270\n        /* \"#utility.yul\":5982:5984   */\n      0x20\n        /* \"#utility.yul\":5971:5980   */\n      dup4\n        /* \"#utility.yul\":5967:5985   */\n      add\n        /* \"#utility.yul\":5958:5964   */\n      dup5\n        /* \"#utility.yul\":5914:5986   */\n      tag_260\n      jump\t// in\n    tag_270:\n        /* \"#utility.yul\":5787:5993   */\n      swap4\n      swap3\n      pop\n      pop\n      pop\n      jump\t// out\n        /* \"#utility.yul\":5999:6209   */\n    tag_28:\n        /* \"#utility.yul\":6086:6090   */\n      0x00\n        /* \"#utility.yul\":6124:6126   */\n      0x20\n        /* \"#utility.yul\":6113:6122   */\n      dup3\n        /* \"#utility.yul\":6109:6127   */\n      add\n        /* \"#utility.yul\":6101:6127   */\n      swap1\n      pop\n        /* \"#utility.yul\":6137:6202   */\n      tag_272\n        /* \"#utility.yul\":6199:6200   */\n      0x00\n        /* \"#utility.yul\":6188:6197   */\n      dup4\n        /* \"#utility.yul\":6184:6201   */\n      add\n        /* \"#utility.yul\":6175:6181   */\n      dup5\n        /* \"#utility.yul\":6137:6202   */\n      tag_225\n      jump\t// in\n    tag_272:\n        /* \"#utility.yul\":6091:6209   */\n      swap3\n      swap2\n      pop\n      pop\n      jump\t// out\n        /* \"#utility.yul\":6215:6528   */\n    tag_75:\n        /* \"#utility.yul\":6328:6332   */\n      0x00\n        /* \"#utility.yul\":6366:6368   */\n      0x20\n        /* \"#utility.yul\":6355:6364   */\n      dup3\n        /* \"#utility.yul\":6351:6369   */\n      add\n        /* \"#utility.yul\":6343:6369   */\n      swap1\n      pop\n        /* \"#utility.yul\":6415:6424   */\n      dup2\n        /* \"#utility.yul\":6409:6413   */\n      dup2\n        /* \"#utility.yul\":6405:6425   */\n      sub\n        /* \"#utility.yul\":6401:6402   */\n      0x00\n        /* \"#utility.yul\":6390:6399   */\n      dup4\n        /* \"#utility.yul\":6386:6403   */\n      add\n        /* \"#utility.yul\":6379:6426   */\n      mstore\n        /* \"#utility.yul\":6443:6521   */\n      tag_274\n        /* \"#utility.yul\":6516:6520   */\n      dup2\n        /* \"#utility.yul\":6507:6513   */\n      dup5\n        /* \"#utility.yul\":6443:6521   */\n      tag_229\n      jump\t// in\n    tag_274:\n        /* \"#utility.yul\":6435:6521   */\n      swap1\n      pop\n        /* \"#utility.yul\":6333:6528   */\n      swap3\n      swap2\n      pop\n      pop\n      jump\t// out\n        /* \"#utility.yul\":6534:6945   */\n    tag_34:\n        /* \"#utility.yul\":6669:6673   */\n      0x00\n        /* \"#utility.yul\":6707:6709   */\n      0x40\n        /* \"#utility.yul\":6696:6705   */\n      dup3\n        /* \"#utility.yul\":6692:6710   */\n      add\n        /* \"#utility.yul\":6684:6710   */\n      swap1\n      pop\n        /* \"#utility.yul\":6756:6765   */\n      dup2\n        /* \"#utility.yul\":6750:6754   */\n      dup2\n        /* \"#utility.yul\":6746:6766   */\n      sub\n        /* \"#utility.yul\":6742:6743   */\n      0x00\n        /* \"#utility.yul\":6731:6740   */\n      dup4\n        /* \"#utility.yul\":6727:6744   */\n      add\n        /* \"#utility.yul\":6720:6767   */\n      mstore\n        /* \"#utility.yul\":6784:6862   */\n      tag_276\n        /* \"#utility.yul\":6857:6861   */\n      dup2\n        /* \"#utility.yul\":6848:6854   */\n      dup6\n        /* \"#utility.yul\":6784:6862   */\n      tag_229\n      jump\t// in\n    tag_276:\n        /* \"#utility.yul\":6776:6862   */\n      swap1\n      pop\n        /* \"#utility.yul\":6872:6938   */\n      tag_277\n        /* \"#utility.yul\":6934:6936   */\n      0x20\n        /* \"#utility.yul\":6923:6932   */\n      dup4\n        /* \"#utility.yul\":6919:6937   */\n      add\n        /* \"#utility.yul\":6910:6916   */\n      dup5\n        /* \"#utility.yul\":6872:6938   */\n      tag_225\n      jump\t// in\n    tag_277:\n        /* \"#utility.yul\":6674:6945   */\n      swap4\n      swap3\n      pop\n      pop\n      pop\n      jump\t// out\n        /* \"#utility.yul\":6951:7370   */\n    tag_130:\n        /* \"#utility.yul\":7117:7121   */\n      0x00\n        /* \"#utility.yul\":7155:7157   */\n      0x20\n        /* \"#utility.yul\":7144:7153   */\n      dup3\n        /* \"#utility.yul\":7140:7158   */\n      add\n        /* \"#utility.yul\":7132:7158   */\n      swap1\n      pop\n        /* \"#utility.yul\":7204:7213   */\n      dup2\n        /* \"#utility.yul\":7198:7202   */\n      dup2\n        /* \"#utility.yul\":7194:7214   */\n      sub\n        /* \"#utility.yul\":7190:7191   */\n      0x00\n        /* \"#utility.yul\":7179:7188   */\n      dup4\n        /* \"#utility.yul\":7175:7192   */\n      add\n        /* \"#utility.yul\":7168:7215   */\n      mstore\n        /* \"#utility.yul\":7232:7363   */\n      tag_279\n        /* \"#utility.yul\":7358:7362   */\n      dup2\n        /* \"#utility.yul\":7232:7363   */\n      tag_245\n      jump\t// in\n    tag_279:\n        /* \"#utility.yul\":7224:7363   */\n      swap1\n      pop\n        /* \"#utility.yul\":7122:7370   */\n      swap2\n      swap1\n      pop\n      jump\t// out\n        /* \"#utility.yul\":7376:7795   */\n    tag_85:\n        /* \"#utility.yul\":7542:7546   */\n      0x00\n        /* \"#utility.yul\":7580:7582   */\n      0x20\n        /* \"#utility.yul\":7569:7578   */\n      dup3\n        /* \"#utility.yul\":7565:7583   */\n      add\n        /* \"#utility.yul\":7557:7583   */\n      swap1\n      pop\n        /* \"#utility.yul\":7629:7638   */\n      dup2\n        /* \"#utility.yul\":7623:7627   */\n      dup2\n        /* \"#utility.yul\":7619:7639   */\n      sub\n        /* \"#utility.yul\":7615:7616   */\n      0x00\n        /* \"#utility.yul\":7604:7613   */\n      dup4\n        /* \"#utility.yul\":7600:7617   */\n      add\n        /* \"#utility.yul\":7593:7640   */\n      mstore\n        /* \"#utility.yul\":7657:7788   */\n      tag_281\n        /* \"#utility.yul\":7783:7787   */\n      dup2\n        /* \"#utility.yul\":7657:7788   */\n      tag_250\n      jump\t// in\n    tag_281:\n        /* \"#utility.yul\":7649:7788   */\n      swap1\n      pop\n        /* \"#utility.yul\":7547:7795   */\n      swap2\n      swap1\n      pop\n      jump\t// out\n        /* \"#utility.yul\":7801:8220   */\n    tag_90:\n        /* \"#utility.yul\":7967:7971   */\n      0x00\n        /* \"#utility.yul\":8005:8007   */\n      0x20\n        /* \"#utility.yul\":7994:8003   */\n      dup3\n        /* \"#utility.yul\":7990:8008   */\n      add\n        /* \"#utility.yul\":7982:8008   */\n      swap1\n      pop\n        /* \"#utility.yul\":8054:8063   */\n      dup2\n        /* \"#utility.yul\":8048:8052   */\n      dup2\n        /* \"#utility.yul\":8044:8064   */\n      sub\n        /* \"#utility.yul\":8040:8041   */\n      0x00\n        /* \"#utility.yul\":8029:8038   */\n      dup4\n        /* \"#utility.yul\":8025:8042   */\n      add\n        /* \"#utility.yul\":8018:8065   */\n      mstore\n        /* \"#utility.yul\":8082:8213   */\n      tag_283\n        /* \"#utility.yul\":8208:8212   */\n      dup2\n        /* \"#utility.yul\":8082:8213   */\n      tag_255\n      jump\t// in\n    tag_283:\n        /* \"#utility.yul\":8074:8213   */\n      swap1\n      pop\n        /* \"#utility.yul\":7972:8220   */\n      swap2\n      swap1\n      pop\n      jump\t// out\n        /* \"#utility.yul\":8226:8448   */\n    tag_43:\n        /* \"#utility.yul\":8319:8323   */\n      0x00\n        /* \"#utility.yul\":8357:8359   */\n      0x20\n        /* \"#utility.yul\":8346:8355   */\n      dup3\n        /* \"#utility.yul\":8342:8360   */\n      add\n        /* \"#utility.yul\":8334:8360   */\n      swap1\n      pop\n        /* \"#utility.yul\":8370:8441   */\n      tag_285\n        /* \"#utility.yul\":8438:8439   */\n      0x00\n        /* \"#utility.yul\":8427:8436   */\n      dup4\n        /* \"#utility.yul\":8423:8440   */\n      add\n        /* \"#utility.yul\":8414:8420   */\n      dup5\n        /* \"#utility.yul\":8370:8441   */\n      tag_260\n      jump\t// in\n    tag_285:\n        /* \"#utility.yul\":8324:8448   */\n      swap3\n      swap2\n      pop\n      pop\n      jump\t// out\n        /* \"#utility.yul\":8454:8583   */\n    tag_178:\n        /* \"#utility.yul\":8488:8494   */\n      0x00\n        /* \"#utility.yul\":8515:8535   */\n      tag_287\n      tag_288\n      jump\t// in\n    tag_287:\n        /* \"#utility.yul\":8505:8535   */\n      swap1\n      pop\n        /* \"#utility.yul\":8544:8577   */\n      tag_289\n        /* \"#utility.yul\":8572:8576   */\n      dup3\n        /* \"#utility.yul\":8564:8570   */\n      dup3\n        /* \"#utility.yul\":8544:8577   */\n      tag_290\n      jump\t// in\n    tag_289:\n        /* \"#utility.yul\":8495:8583   */\n      swap2\n      swap1\n      pop\n      jump\t// out\n        /* \"#utility.yul\":8589:8664   */\n    tag_288:\n        /* \"#utility.yul\":8622:8628   */\n      0x00\n        /* \"#utility.yul\":8655:8657   */\n      0x40\n        /* \"#utility.yul\":8649:8658   */\n      mload\n        /* \"#utility.yul\":8639:8658   */\n      swap1\n      pop\n        /* \"#utility.yul\":8629:8664   */\n      swap1\n      jump\t// out\n        /* \"#utility.yul\":8670:8978   */\n    tag_177:\n        /* \"#utility.yul\":8732:8736   */\n      0x00\n        /* \"#utility.yul\":8822:8840   */\n      0xffffffffffffffff\n        /* \"#utility.yul\":8814:8820   */\n      dup3\n        /* \"#utility.yul\":8811:8841   */\n      gt\n        /* \"#utility.yul\":8808:8810   */\n      iszero\n      tag_293\n      jumpi\n        /* \"#utility.yul\":8844:8862   */\n      tag_294\n      tag_295\n      jump\t// in\n    tag_294:\n        /* \"#utility.yul\":8808:8810   */\n    tag_293:\n        /* \"#utility.yul\":8882:8911   */\n      tag_296\n        /* \"#utility.yul\":8904:8910   */\n      dup3\n        /* \"#utility.yul\":8882:8911   */\n      tag_238\n      jump\t// in\n    tag_296:\n        /* \"#utility.yul\":8874:8911   */\n      swap1\n      pop\n        /* \"#utility.yul\":8966:8970   */\n      0x20\n        /* \"#utility.yul\":8960:8964   */\n      dup2\n        /* \"#utility.yul\":8956:8971   */\n      add\n        /* \"#utility.yul\":8948:8971   */\n      swap1\n      pop\n        /* \"#utility.yul\":8737:8978   */\n      swap2\n      swap1\n      pop\n      jump\t// out\n        /* \"#utility.yul\":8984:9083   */\n    tag_232:\n        /* \"#utility.yul\":9036:9042   */\n      0x00\n        /* \"#utility.yul\":9070:9075   */\n      dup2\n        /* \"#utility.yul\":9064:9076   */\n      mload\n        /* \"#utility.yul\":9054:9076   */\n      swap1\n      pop\n        /* \"#utility.yul\":9043:9083   */\n      swap2\n      swap1\n      pop\n      jump\t// out\n        /* \"#utility.yul\":9089:9258   */\n    tag_234:\n        /* \"#utility.yul\":9173:9184   */\n      0x00\n        /* \"#utility.yul\":9207:9213   */\n      dup3\n        /* \"#utility.yul\":9202:9205   */\n      dup3\n        /* \"#utility.yul\":9195:9214   */\n      mstore\n        /* \"#utility.yul\":9247:9251   */\n      0x20\n        /* \"#utility.yul\":9242:9245   */\n      dup3\n        /* \"#utility.yul\":9238:9252   */\n      add\n        /* \"#utility.yul\":9223:9252   */\n      swap1\n      pop\n        /* \"#utility.yul\":9185:9258   */\n      swap3\n      swap2\n      pop\n      pop\n      jump\t// out\n        /* \"#utility.yul\":9264:9412   */\n    tag_243:\n        /* \"#utility.yul\":9366:9377   */\n      0x00\n        /* \"#utility.yul\":9403:9406   */\n      dup2\n        /* \"#utility.yul\":9388:9406   */\n      swap1\n      pop\n        /* \"#utility.yul\":9378:9412   */\n      swap3\n      swap2\n      pop\n      pop\n      jump\t// out\n        /* \"#utility.yul\":9418:9723   */\n    tag_104:\n        /* \"#utility.yul\":9458:9461   */\n      0x00\n        /* \"#utility.yul\":9477:9497   */\n      tag_301\n        /* \"#utility.yul\":9495:9496   */\n      dup3\n        /* \"#utility.yul\":9477:9497   */\n      tag_263\n      jump\t// in\n    tag_301:\n        /* \"#utility.yul\":9472:9497   */\n      swap2\n      pop\n        /* \"#utility.yul\":9511:9531   */\n      tag_302\n        /* \"#utility.yul\":9529:9530   */\n      dup4\n        /* \"#utility.yul\":9511:9531   */\n      tag_263\n      jump\t// in\n    tag_302:\n        /* \"#utility.yul\":9506:9531   */\n      swap3\n      pop\n        /* \"#utility.yul\":9665:9666   */\n      dup3\n        /* \"#utility.yul\":9597:9663   */\n      0xffffffffffffffffffffffffffffffffffffffffffffffffffffffffffffffff\n        /* \"#utility.yul\":9593:9667   */\n      sub\n        /* \"#utility.yul\":9590:9591   */\n      dup3\n        /* \"#utility.yul\":9587:9668   */\n      gt\n        /* \"#utility.yul\":9584:9586   */\n      iszero\n      tag_303\n      jumpi\n        /* \"#utility.yul\":9671:9689   */\n      tag_304\n      tag_305\n      jump\t// in\n    tag_304:\n        /* \"#utility.yul\":9584:9586   */\n    tag_303:\n        /* \"#utility.yul\":9715:9716   */\n      dup3\n        /* \"#utility.yul\":9712:9713   */\n      dup3\n        /* \"#utility.yul\":9708:9717   */\n      add\n        /* \"#utility.yul\":9701:9717   */\n      swap1\n      pop\n        /* \"#utility.yul\":9462:9723   */\n      swap3\n      swap2\n      pop\n      pop\n      jump\t// out\n        /* \"#utility.yul\":9729:9914   */\n    tag_102:\n        /* \"#utility.yul\":9769:9770   */\n      0x00\n        /* \"#utility.yul\":9786:9806   */\n      tag_307\n        /* \"#utility.yul\":9804:9805   */\n      dup3\n        /* \"#utility.yul\":9786:9806   */\n      tag_263\n      jump\t// in\n    tag_307:\n        /* \"#utility.yul\":9781:9806   */\n      swap2\n      pop\n        /* \"#utility.yul\":9820:9840   */\n      tag_308\n        /* \"#utility.yul\":9838:9839   */\n      dup4\n        /* \"#utility.yul\":9820:9840   */\n      tag_263\n      jump\t// in\n    tag_308:\n        /* \"#utility.yul\":9815:9840   */\n      swap3\n      pop\n        /* \"#utility.yul\":9859:9860   */\n      dup3\n        /* \"#utility.yul\":9849:9851   */\n      tag_309\n      jumpi\n        /* \"#utility.yul\":9864:9882   */\n      tag_310\n      tag_311\n      jump\t// in\n    tag_310:\n        /* \"#utility.yul\":9849:9851   */\n    tag_309:\n        /* \"#utility.yul\":9906:9907   */\n      dup3\n        /* \"#utility.yul\":9903:9904   */\n      dup3\n        /* \"#utility.yul\":9899:9908   */\n      div\n        /* \"#utility.yul\":9894:9908   */\n      swap1\n      pop\n        /* \"#utility.yul\":9771:9914   */\n      swap3\n      swap2\n      pop\n      pop\n      jump\t// out\n        /* \"#utility.yul\":9920:10016   */\n    tag_224:\n        /* \"#utility.yul\":9957:9964   */\n      0x00\n        /* \"#utility.yul\":9986:10010   */\n      tag_313\n        /* \"#utility.yul\":10004:10009   */\n      dup3\n        /* \"#utility.yul\":9986:10010   */\n      tag_314\n      jump\t// in\n    tag_313:\n        /* \"#utility.yul\":9975:10010   */\n      swap1\n      pop\n        /* \"#utility.yul\":9965:10016   */\n      swap2\n      swap1\n      pop\n      jump\t// out\n        /* \"#utility.yul\":10022:10112   */\n    tag_228:\n        /* \"#utility.yul\":10056:10063   */\n      0x00\n        /* \"#utility.yul\":10099:10104   */\n      dup2\n        /* \"#utility.yul\":10092:10105   */\n      iszero\n        /* \"#utility.yul\":10085:10106   */\n      iszero\n        /* \"#utility.yul\":10074:10106   */\n      swap1\n      pop\n        /* \"#utility.yul\":10064:10112   */\n      swap2\n      swap1\n      pop\n      jump\t// out\n        /* \"#utility.yul\":10118:10244   */\n    tag_314:\n        /* \"#utility.yul\":10155:10162   */\n      0x00\n        /* \"#utility.yul\":10195:10237   */\n      0xffffffffffffffffffffffffffffffffffffffff\n        /* \"#utility.yul\":10188:10193   */\n      dup3\n        /* \"#utility.yul\":10184:10238   */\n      and\n        /* \"#utility.yul\":10173:10238   */\n      swap1\n      pop\n        /* \"#utility.yul\":10163:10244   */\n      swap2\n      swap1\n      pop\n      jump\t// out\n        /* \"#utility.yul\":10250:10327   */\n    tag_263:\n        /* \"#utility.yul\":10287:10294   */\n      0x00\n        /* \"#utility.yul\":10316:10321   */\n      dup2\n        /* \"#utility.yul\":10305:10321   */\n      swap1\n      pop\n        /* \"#utility.yul\":10295:10327   */\n      swap2\n      swap1\n      pop\n      jump\t// out\n        /* \"#utility.yul\":10333:10487   */\n    tag_183:\n        /* \"#utility.yul\":10417:10423   */\n      dup3\n        /* \"#utility.yul\":10412:10415   */\n      dup2\n        /* \"#utility.yul\":10407:10410   */\n      dup4\n        /* \"#utility.yul\":10394:10424   */\n      calldatacopy\n        /* \"#utility.yul\":10479:10480   */\n      0x00\n        /* \"#utility.yul\":10470:10476   */\n      dup4\n        /* \"#utility.yul\":10465:10468   */\n      dup4\n        /* \"#utility.yul\":10461:10477   */\n      add\n        /* \"#utility.yul\":10454:10481   */\n      mstore\n        /* \"#utility.yul\":10384:10487   */\n      pop\n      pop\n      pop\n      jump\t// out\n        /* \"#utility.yul\":10493:10800   */\n    tag_236:\n        /* \"#utility.yul\":10561:10562   */\n      0x00\n        /* \"#utility.yul\":10571:10684   */\n    tag_320:\n        /* \"#utility.yul\":10585:10591   */\n      dup4\n        /* \"#utility.yul\":10582:10583   */\n      dup2\n        /* \"#utility.yul\":10579:10592   */\n      lt\n        /* \"#utility.yul\":10571:10684   */\n      iszero\n      tag_322\n      jumpi\n        /* \"#utility.yul\":10670:10671   */\n      dup1\n        /* \"#utility.yul\":10665:10668   */\n      dup3\n        /* \"#utility.yul\":10661:10672   */\n      add\n        /* \"#utility.yul\":10655:10673   */\n      mload\n        /* \"#utility.yul\":10651:10652   */\n      dup2\n        /* \"#utility.yul\":10646:10649   */\n      dup5\n        /* \"#utility.yul\":10642:10653   */\n      add\n        /* \"#utility.yul\":10635:10674   */\n      mstore\n        /* \"#utility.yul\":10607:10609   */\n      0x20\n        /* \"#utility.yul\":10604:10605   */\n      dup2\n        /* \"#utility.yul\":10600:10610   */\n      add\n        /* \"#utility.yul\":10595:10610   */\n      swap1\n      pop\n        /* \"#utility.yul\":10571:10684   */\n      jump(tag_320)\n    tag_322:\n        /* \"#utility.yul\":10702:10708   */\n      dup4\n        /* \"#utility.yul\":10699:10700   */\n      dup2\n        /* \"#utility.yul\":10696:10709   */\n      gt\n        /* \"#utility.yul\":10693:10695   */\n      iszero\n      tag_323\n      jumpi\n        /* \"#utility.yul\":10782:10783   */\n      0x00\n        /* \"#utility.yul\":10773:10779   */\n      dup5\n        /* \"#utility.yul\":10768:10771   */\n      dup5\n        /* \"#utility.yul\":10764:10780   */\n      add\n        /* \"#utility.yul\":10757:10784   */\n      mstore\n        /* \"#utility.yul\":10693:10695   */\n    tag_323:\n        /* \"#utility.yul\":10542:10800   */\n      pop\n      pop\n      pop\n      pop\n      jump\t// out\n        /* \"#utility.yul\":10806:11126   */\n    tag_93:\n        /* \"#utility.yul\":10850:10856   */\n      0x00\n        /* \"#utility.yul\":10887:10888   */\n      0x02\n        /* \"#utility.yul\":10881:10885   */\n      dup3\n        /* \"#utility.yul\":10877:10889   */\n      div\n        /* \"#utility.yul\":10867:10889   */\n      swap1\n      pop\n        /* \"#utility.yul\":10934:10935   */\n      0x01\n        /* \"#utility.yul\":10928:10932   */\n      dup3\n        /* \"#utility.yul\":10924:10936   */\n      and\n        /* \"#utility.yul\":10955:10973   */\n      dup1\n        /* \"#utility.yul\":10945:10947   */\n      tag_325\n      jumpi\n        /* \"#utility.yul\":11011:11015   */\n      0x7f\n        /* \"#utility.yul\":11003:11009   */\n      dup3\n        /* \"#utility.yul\":10999:11016   */\n      and\n        /* \"#utility.yul\":10989:11016   */\n      swap2\n      pop\n        /* \"#utility.yul\":10945:10947   */\n    tag_325:\n        /* \"#utility.yul\":11073:11075   */\n      0x20\n        /* \"#utility.yul\":11065:11071   */\n      dup3\n        /* \"#utility.yul\":11062:11076   */\n      lt\n        /* \"#utility.yul\":11042:11060   */\n      dup2\n        /* \"#utility.yul\":11039:11077   */\n      eq\n        /* \"#utility.yul\":11036:11038   */\n      iszero\n      tag_326\n      jumpi\n        /* \"#utility.yul\":11092:11110   */\n      tag_327\n      tag_328\n      jump\t// in\n    tag_327:\n        /* \"#utility.yul\":11036:11038   */\n    tag_326:\n        /* \"#utility.yul\":10857:11126   */\n      pop\n      swap2\n      swap1\n      pop\n      jump\t// out\n        /* \"#utility.yul\":11132:11413   */\n    tag_290:\n        /* \"#utility.yul\":11215:11242   */\n      tag_330\n        /* \"#utility.yul\":11237:11241   */\n      dup3\n        /* \"#utility.yul\":11215:11242   */\n      tag_238\n      jump\t// in\n    tag_330:\n        /* \"#utility.yul\":11207:11213   */\n      dup2\n        /* \"#utility.yul\":11203:11243   */\n      add\n        /* \"#utility.yul\":11345:11351   */\n      dup2\n        /* \"#utility.yul\":11333:11343   */\n      dup2\n        /* \"#utility.yul\":11330:11352   */\n      lt\n        /* \"#utility.yul\":11309:11327   */\n      0xffffffffffffffff\n        /* \"#utility.yul\":11297:11307   */\n      dup3\n        /* \"#utility.yul\":11294:11328   */\n      gt\n        /* \"#utility.yul\":11291:11353   */\n      or\n        /* \"#utility.yul\":11288:11290   */\n      iszero\n      tag_331\n      jumpi\n        /* \"#utility.yul\":11356:11374   */\n      tag_332\n      tag_295\n      jump\t// in\n    tag_332:\n        /* \"#utility.yul\":11288:11290   */\n    tag_331:\n        /* \"#utility.yul\":11396:11406   */\n      dup1\n        /* \"#utility.yul\":11392:11394   */\n      0x40\n        /* \"#utility.yul\":11385:11407   */\n      mstore\n        /* \"#utility.yul\":11175:11413   */\n      pop\n      pop\n      pop\n      jump\t// out\n        /* \"#utility.yul\":11419:11652   */\n    tag_100:\n        /* \"#utility.yul\":11458:11461   */\n      0x00\n        /* \"#utility.yul\":11481:11505   */\n      tag_334\n        /* \"#utility.yul\":11499:11504   */\n      dup3\n        /* \"#utility.yul\":11481:11505   */\n      tag_263\n      jump\t// in\n    tag_334:\n        /* \"#utility.yul\":11472:11505   */\n      swap2\n      pop\n        /* \"#utility.yul\":11527:11593   */\n      0xffffffffffffffffffffffffffffffffffffffffffffffffffffffffffffffff\n        /* \"#utility.yul\":11520:11525   */\n      dup3\n        /* \"#utility.yul\":11517:11594   */\n      eq\n        /* \"#utility.yul\":11514:11516   */\n      iszero\n      tag_335\n      jumpi\n        /* \"#utility.yul\":11597:11615   */\n      tag_336\n      tag_305\n      jump\t// in\n    tag_336:\n        /* \"#utility.yul\":11514:11516   */\n    tag_335:\n        /* \"#utility.yul\":11644:11645   */\n      0x01\n        /* \"#utility.yul\":11637:11642   */\n      dup3\n        /* \"#utility.yul\":11633:11646   */\n      add\n        /* \"#utility.yul\":11626:11646   */\n      swap1\n      pop\n        /* \"#utility.yul\":11462:11652   */\n      swap2\n      swap1\n      pop\n      jump\t// out\n        /* \"#utility.yul\":11658:11838   */\n    tag_305:\n        /* \"#utility.yul\":11706:11783   */\n      0x4e487b7100000000000000000000000000000000000000000000000000000000\n        /* \"#utility.yul\":11703:11704   */\n      0x00\n        /* \"#utility.yul\":11696:11784   */\n      mstore\n        /* \"#utility.yul\":11803:11807   */\n      0x11\n        /* \"#utility.yul\":11800:11801   */\n      0x04\n        /* \"#utility.yul\":11793:11808   */\n      mstore\n        /* \"#utility.yul\":11827:11831   */\n      0x24\n        /* \"#utility.yul\":11824:11825   */\n      0x00\n        /* \"#utility.yul\":11817:11832   */\n      revert\n        /* \"#utility.yul\":11844:12024   */\n    tag_311:\n        /* \"#utility.yul\":11892:11969   */\n      0x4e487b7100000000000000000000000000000000000000000000000000000000\n        /* \"#utility.yul\":11889:11890   */\n      0x00\n        /* \"#utility.yul\":11882:11970   */\n      mstore\n        /* \"#utility.yul\":11989:11993   */\n      0x12\n        /* \"#utility.yul\":11986:11987   */\n      0x04\n        /* \"#utility.yul\":11979:11994   */\n      mstore\n        /* \"#utility.yul\":12013:12017   */\n      0x24\n        /* \"#utility.yul\":12010:12011   */\n      0x00\n        /* \"#utility.yul\":12003:12018   */\n      revert\n        /* \"#utility.yul\":12030:12210   */\n    tag_328:\n        /* \"#utility.yul\":12078:12155   */\n      0x4e487b7100000000000000000000000000000000000000000000000000000000\n        /* \"#utility.yul\":12075:12076   */\n      0x00\n        /* \"#utility.yul\":12068:12156   */\n      mstore\n        /* \"#utility.yul\":12175:12179   */\n      0x22\n        /* \"#utility.yul\":12172:12173   */\n      0x04\n        /* \"#utility.yul\":12165:12180   */\n      mstore\n        /* \"#utility.yul\":12199:12203   */\n      0x24\n        /* \"#utility.yul\":12196:12197   */\n      0x00\n        /* \"#utility.yul\":12189:12204   */\n      revert\n        /* \"#utility.yul\":12216:12396   */\n    tag_295:\n        /* \"#utility.yul\":12264:12341   */\n      0x4e487b7100000000000000000000000000000000000000000000000000000000\n        /* \"#utility.yul\":12261:12262   */\n      0x00\n        /* \"#utility.yul\":12254:12342   */\n      mstore\n        /* \"#utility.yul\":12361:12365   */\n      0x41\n        /* \"#utility.yul\":12358:12359   */\n      0x04\n        /* \"#utility.yul\":12351:12366   */\n      mstore\n        /* \"#utility.yul\":12385:12389   */\n      0x24\n        /* \"#utility.yul\":12382:12383   */\n      0x00\n        /* \"#utility.yul\":12375:12390   */\n      revert\n        /* \"#utility.yul\":12402:12519   */\n    tag_192:\n        /* \"#utility.yul\":12511:12512   */\n      0x00\n        /* \"#utility.yul\":12508:12509   */\n      dup1\n        /* \"#utility.yul\":12501:12513   */\n      revert\n        /* \"#utility.yul\":12525:12642   */\n    tag_181:\n        /* \"#utility.yul\":12634:12635   */\n      0x00\n        /* \"#utility.yul\":12631:12632   */\n      dup1\n        /* \"#utility.yul\":12624:12636   */\n      revert\n        /* \"#utility.yul\":12648:12765   */\n    tag_209:\n        /* \"#utility.yul\":12757:12758   */\n      0x00\n        /* \"#utility.yul\":12754:12755   */\n      dup1\n        /* \"#utility.yul\":12747:12759   */\n      revert\n        /* \"#utility.yul\":12771:12888   */\n    tag_201:\n        /* \"#utility.yul\":12880:12881   */\n      0x00\n        /* \"#utility.yul\":12877:12878   */\n      dup1\n        /* \"#utility.yul\":12870:12882   */\n      revert\n        /* \"#utility.yul\":12894:12996   */\n    tag_238:\n        /* \"#utility.yul\":12935:12941   */\n      0x00\n        /* \"#utility.yul\":12986:12988   */\n      0x1f\n        /* \"#utility.yul\":12982:12989   */\n      not\n        /* \"#utility.yul\":12977:12979   */\n      0x1f\n        /* \"#utility.yul\":12970:12975   */\n      dup4\n        /* \"#utility.yul\":12966:12980   */\n      add\n        /* \"#utility.yul\":12962:12990   */\n      and\n        /* \"#utility.yul\":12952:12990   */\n      swap1\n      pop\n        /* \"#utility.yul\":12942:12996   */\n      swap2\n      swap1\n      pop\n      jump\t// out\n        /* \"#utility.yul\":13002:13177   */\n    tag_249:\n        /* \"#utility.yul\":13142:13169   */\n      0x52657374617572616e7420616c72656164792065786973747300000000000000\n        /* \"#utility.yul\":13138:13139   */\n      0x00\n        /* \"#utility.yul\":13130:13136   */\n      dup3\n        /* \"#utility.yul\":13126:13140   */\n      add\n        /* \"#utility.yul\":13119:13170   */\n      mstore\n        /* \"#utility.yul\":13108:13177   */\n      pop\n      jump\t// out\n        /* \"#utility.yul\":13183:13405   */\n    tag_254:\n        /* \"#utility.yul\":13323:13357   */\n      0x43616e206f6e6c7920626520657865637574656420627920746865206d616e61\n        /* \"#utility.yul\":13319:13320   */\n      0x00\n        /* \"#utility.yul\":13311:13317   */\n      dup3\n        /* \"#utility.yul\":13307:13321   */\n      add\n        /* \"#utility.yul\":13300:13358   */\n      mstore\n        /* \"#utility.yul\":13392:13397   */\n      0x6765720000000000000000000000000000000000000000000000000000000000\n        /* \"#utility.yul\":13387:13389   */\n      0x20\n        /* \"#utility.yul\":13379:13385   */\n      dup3\n        /* \"#utility.yul\":13375:13390   */\n      add\n        /* \"#utility.yul\":13368:13398   */\n      mstore\n        /* \"#utility.yul\":13289:13405   */\n      pop\n      jump\t// out\n        /* \"#utility.yul\":13411:13633   */\n    tag_259:\n        /* \"#utility.yul\":13551:13585   */\n      0x43616e20766f7465206f6e6c79207768696c6520766f74696e67206973206f70\n        /* \"#utility.yul\":13547:13548   */\n      0x00\n        /* \"#utility.yul\":13539:13545   */\n      dup3\n        /* \"#utility.yul\":13535:13549   */\n      add\n        /* \"#utility.yul\":13528:13586   */\n      mstore\n        /* \"#utility.yul\":13620:13625   */\n      0x656e2e0000000000000000000000000000000000000000000000000000000000\n        /* \"#utility.yul\":13615:13617   */\n      0x20\n        /* \"#utility.yul\":13607:13613   */\n      dup3\n        /* \"#utility.yul\":13603:13618   */\n      add\n        /* \"#utility.yul\":13596:13626   */\n      mstore\n        /* \"#utility.yul\":13517:13633   */\n      pop\n      jump\t// out\n        /* \"#utility.yul\":13639:13761   */\n    tag_187:\n        /* \"#utility.yul\":13712:13736   */\n      tag_350\n        /* \"#utility.yul\":13730:13735   */\n      dup2\n        /* \"#utility.yul\":13712:13736   */\n      tag_224\n      jump\t// in\n    tag_350:\n        /* \"#utility.yul\":13705:13710   */\n      dup2\n        /* \"#utility.yul\":13702:13737   */\n      eq\n        /* \"#utility.yul\":13692:13694   */\n      tag_351\n      jumpi\n        /* \"#utility.yul\":13751:13752   */\n      0x00\n        /* \"#utility.yul\":13748:13749   */\n      dup1\n        /* \"#utility.yul\":13741:13753   */\n      revert\n        /* \"#utility.yul\":13692:13694   */\n    tag_351:\n        /* \"#utility.yul\":13682:13761   */\n      pop\n      jump\t// out\n        /* \"#utility.yul\":13767:13889   */\n    tag_197:\n        /* \"#utility.yul\":13840:13864   */\n      tag_353\n        /* \"#utility.yul\":13858:13863   */\n      dup2\n        /* \"#utility.yul\":13840:13864   */\n      tag_263\n      jump\t// in\n    tag_353:\n        /* \"#utility.yul\":13833:13838   */\n      dup2\n        /* \"#utility.yul\":13830:13865   */\n      eq\n        /* \"#utility.yul\":13820:13822   */\n      tag_354\n      jumpi\n        /* \"#utility.yul\":13879:13880   */\n      0x00\n        /* \"#utility.yul\":13876:13877   */\n      dup1\n        /* \"#utility.yul\":13869:13881   */\n      revert\n        /* \"#utility.yul\":13820:13822   */\n    tag_354:\n        /* \"#utility.yul\":13810:13889   */\n      pop\n      jump\t// out\n\n    auxdata: 0xa26469706673582212207e472bec101b310988601eab59a49b46fae2944feb7331eed511c40c861bc0e764736f6c63430008050033\n}\n",
				"bytecode": {
					"linkReferences": {},
					"object": "608060405260006003556000600455600060055560405180602001604052806000815250600790805190602001906200003a929190620000c6565b506001600a60006101000a81548160ff0219169083151502179055506001600a60016101000a81548160ff0219169083151502179055503480156200007e57600080fd5b5033600660006101000a81548173ffffffffffffffffffffffffffffffffffffffff021916908373ffffffffffffffffffffffffffffffffffffffff160217905550620001db565b828054620000d49062000176565b90600052602060002090601f016020900481019282620000f8576000855562000144565b82601f106200011357805160ff191683800117855562000144565b8280016001018555821562000144579182015b828111156200014357825182559160200191906001019062000126565b5b50905062000153919062000157565b5090565b5b808211156200017257600081600090555060010162000158565b5090565b600060028204905060018216806200018f57607f821691505b60208210811415620001a657620001a5620001ac565b5b50919050565b7f4e487b7100000000000000000000000000000000000000000000000000000000600052602260045260246000fd5b61167680620001eb6000396000f3fe608060405234801561001057600080fd5b50600436106100f55760003560e01c80635df8133011610097578063a6c7f8b211610066578063a6c7f8b21461028c578063ad5461d8146102bc578063b798867f146102ec578063c1c16efc1461030a576100f5565b80635df81330146101ef5780636d77bd3e14610220578063788d385114610250578063a3bef4d71461026e576100f5565b806322f3e2d4116100d357806322f3e2d4146101655780633b9f708d1461018357806347098f36146101b3578063481c6a75146101d1576100f5565b806312253a6c146100fa578063124258c6146101045780631ddabf7a14610134575b600080fd5b610102610328565b005b61011e60048036038101906101199190610fc0565b6103d5565b60405161012b9190611148565b60405180910390f35b61014e60048036038101906101499190610eee565b61060b565b60405161015c929190611185565b60405180910390f35b61016d6106c4565b60405161017a9190611148565b60405180910390f35b61019d60048036038101906101989190610f1b565b6106d7565b6040516101aa9190611215565b60405180910390f35b6101bb61082f565b6040516101c89190611215565b60405180910390f35b6101d9610835565b6040516101e69190611104565b60405180910390f35b61020960048036038101906102049190610fc0565b61085b565b60405161021792919061111f565b60405180910390f35b61023a60048036038101906102359190610f77565b61089f565b6040516102479190611215565b60405180910390f35b610258610a1f565b6040516102659190611148565b60405180910390f35b610276610a32565b6040516102839190611215565b60405180910390f35b6102a660048036038101906102a19190610f77565b610a38565b6040516102b39190611148565b60405180910390f35b6102d660048036038101906102d19190610fc0565b610a6e565b6040516102e39190611163565b60405180910390f35b6102f4610b0e565b6040516103019190611215565b60405180910390f35b610312610b14565b60405161031f9190611163565b60405180910390f35b600660009054906101000a900473ffffffffffffffffffffffffffffffffffffffff1673ffffffffffffffffffffffffffffffffffffffff163373ffffffffffffffffffffffffffffffffffffffff16146103b8576040517f08c379a00000000000000000000000000000000000000000000000000000000081526004016103af906111d5565b60405180910390fd5b6000600a60016101000a81548160ff021916908315150217905550565b600060011515600a60009054906101000a900460ff1615151461042d576040517f08c379a0000000000000000000000000000000000000000000000000000000008152600401610424906111f5565b60405180910390fd5b600090506000600160003373ffffffffffffffffffffffffffffffffffffffff1673ffffffffffffffffffffffffffffffffffffffff1681526020019081526020016000206000018054610480906113be565b9050146105da57600080600084815260200190815260200160002080546104a6906113be565b9050146105d9576001905060018060003373ffffffffffffffffffffffffffffffffffffffff1673ffffffffffffffffffffffffffffffffffffffff16815260200190815260200160002060010160006101000a81548160ff021916908315150217905550610513610cd8565b33816000019073ffffffffffffffffffffffffffffffffffffffff16908173ffffffffffffffffffffffffffffffffffffffff1681525050828160200181815250506005600081548092919061056890611421565b91905055508060086000600554815260200190815260200160002060008201518160000160006101000a81548173ffffffffffffffffffffffffffffffffffffffff021916908373ffffffffffffffffffffffffffffffffffffffff16021790555060208201518160010155905050505b5b600160026004546105eb9190611303565b6105f591906112ad565b6005541061060657610605610ba2565b5b919050565b600160205280600052604060002060009150905080600001805461062e906113be565b80601f016020809104026020016040519081016040528092919081815260200182805461065a906113be565b80156106a75780601f1061067c576101008083540402835291602001916106a7565b820191906000526020600020905b81548152906001019060200180831161068a57829003601f168201915b5050505050908060010160009054906101000a900460ff16905082565b600a60019054906101000a900460ff1681565b6000600660009054906101000a900473ffffffffffffffffffffffffffffffffffffffff1673ffffffffffffffffffffffffffffffffffffffff163373ffffffffffffffffffffffffffffffffffffffff1614610769576040517f08c379a0000000000000000000000000000000000000000000000000000000008152600401610760906111d5565b60405180910390fd5b610771610d08565b828160000181905250600081602001901515908115158152505080600160008673ffffffffffffffffffffffffffffffffffffffff1673ffffffffffffffffffffffffffffffffffffffff16815260200190815260200160002060008201518160000190805190602001906107e7929190610d24565b5060208201518160010160006101000a81548160ff0219169083151502179055509050506004600081548092919061081e90611421565b919050555060045491505092915050565b60045481565b600660009054906101000a900473ffffffffffffffffffffffffffffffffffffffff1681565b60086020528060005260406000206000915090508060000160009054906101000a900473ffffffffffffffffffffffffffffffffffffffff16908060010154905082565b6000600660009054906101000a900473ffffffffffffffffffffffffffffffffffffffff1673ffffffffffffffffffffffffffffffffffffffff163373ffffffffffffffffffffffffffffffffffffffff1614610931576040517f08c379a0000000000000000000000000000000000000000000000000000000008152600401610928906111d5565b60405180910390fd5b60028260405161094191906110ed565b908152602001604051809103902060009054906101000a900460ff161561099d576040517f08c379a0000000000000000000000000000000000000000000000000000000008152600401610994906111b5565b60405180910390fd5b600360008154809291906109b090611421565b919050555081600080600354815260200190815260200160002090805190602001906109dd929190610d24565b5060016002836040516109f091906110ed565b908152602001604051809103902060006101000a81548160ff0219169083151502179055506003549050919050565b600a60009054906101000a900460ff1681565b60055481565b6002818051602081018201805184825260208301602085012081835280955050505050506000915054906101000a900460ff1681565b60006020528060005260406000206000915090508054610a8d906113be565b80601f0160208091040260200160405190810160405280929190818152602001828054610ab9906113be565b8015610b065780601f10610adb57610100808354040283529160200191610b06565b820191906000526020600020905b815481529060010190602001808311610ae957829003601f168201915b505050505081565b60035481565b60078054610b21906113be565b80601f0160208091040260200160405190810160405280929190818152602001828054610b4d906113be565b8015610b9a5780601f10610b6f57610100808354040283529160200191610b9a565b820191906000526020600020905b815481529060010190602001808311610b7d57829003601f168201915b505050505081565b6000806000600190505b6005548111610c8c5760006001905060006009600060086000868152602001908152602001600020600101548152602001908152602001600020541115610c255760096000600860008581526020019081526020016000206001015481526020019081526020016000205481610c2291906112ad565b90505b8060096000600860008681526020019081526020016000206001015481526020019081526020016000208190555083811115610c7857809350600860008381526020019081526020016000206001015492505b508080610c8490611421565b915050610bac565b506000808281526020019081526020016000206007908054610cad906113be565b610cb8929190610daa565b506000600a60006101000a81548160ff0219169083151502179055505050565b6040518060400160405280600073ffffffffffffffffffffffffffffffffffffffff168152602001600081525090565b6040518060400160405280606081526020016000151581525090565b828054610d30906113be565b90600052602060002090601f016020900481019282610d525760008555610d99565b82601f10610d6b57805160ff1916838001178555610d99565b82800160010185558215610d99579182015b82811115610d98578251825591602001919060010190610d7d565b5b509050610da69190610e37565b5090565b828054610db6906113be565b90600052602060002090601f016020900481019282610dd85760008555610e26565b82601f10610de95780548555610e26565b82800160010185558215610e2657600052602060002091601f016020900482015b82811115610e25578254825591600101919060010190610e0a565b5b509050610e339190610e37565b5090565b5b80821115610e50576000816000905550600101610e38565b5090565b6000610e67610e6284611255565b611230565b905082815260208101848484011115610e8357610e8261152b565b5b610e8e84828561137c565b509392505050565b600081359050610ea581611612565b92915050565b600082601f830112610ec057610ebf611526565b5b8135610ed0848260208601610e54565b91505092915050565b600081359050610ee881611629565b92915050565b600060208284031215610f0457610f03611535565b5b6000610f1284828501610e96565b91505092915050565b60008060408385031215610f3257610f31611535565b5b6000610f4085828601610e96565b925050602083013567ffffffffffffffff811115610f6157610f60611530565b5b610f6d85828601610eab565b9150509250929050565b600060208284031215610f8d57610f8c611535565b5b600082013567ffffffffffffffff811115610fab57610faa611530565b5b610fb784828501610eab565b91505092915050565b600060208284031215610fd657610fd5611535565b5b6000610fe484828501610ed9565b91505092915050565b610ff681611334565b82525050565b61100581611346565b82525050565b600061101682611286565b6110208185611291565b935061103081856020860161138b565b6110398161153a565b840191505092915050565b600061104f82611286565b61105981856112a2565b935061106981856020860161138b565b80840191505092915050565b6000611082601983611291565b915061108d8261154b565b602082019050919050565b60006110a5602383611291565b91506110b082611574565b604082019050919050565b60006110c8602383611291565b91506110d3826115c3565b604082019050919050565b6110e781611372565b82525050565b60006110f98284611044565b915081905092915050565b60006020820190506111196000830184610fed565b92915050565b60006040820190506111346000830185610fed565b61114160208301846110de565b9392505050565b600060208201905061115d6000830184610ffc565b92915050565b6000602082019050818103600083015261117d818461100b565b905092915050565b6000604082019050818103600083015261119f818561100b565b90506111ae6020830184610ffc565b9392505050565b600060208201905081810360008301526111ce81611075565b9050919050565b600060208201905081810360008301526111ee81611098565b9050919050565b6000602082019050818103600083015261120e816110bb565b9050919050565b600060208201905061122a60008301846110de565b92915050565b600061123a61124b565b905061124682826113f0565b919050565b6000604051905090565b600067ffffffffffffffff8211156112705761126f6114f7565b5b6112798261153a565b9050602081019050919050565b600081519050919050565b600082825260208201905092915050565b600081905092915050565b60006112b882611372565b91506112c383611372565b9250827fffffffffffffffffffffffffffffffffffffffffffffffffffffffffffffffff038211156112f8576112f761146a565b5b828201905092915050565b600061130e82611372565b915061131983611372565b92508261132957611328611499565b5b828204905092915050565b600061133f82611352565b9050919050565b60008115159050919050565b600073ffffffffffffffffffffffffffffffffffffffff82169050919050565b6000819050919050565b82818337600083830152505050565b60005b838110156113a957808201518184015260208101905061138e565b838111156113b8576000848401525b50505050565b600060028204905060018216806113d657607f821691505b602082108114156113ea576113e96114c8565b5b50919050565b6113f98261153a565b810181811067ffffffffffffffff82111715611418576114176114f7565b5b80604052505050565b600061142c82611372565b91507fffffffffffffffffffffffffffffffffffffffffffffffffffffffffffffffff82141561145f5761145e61146a565b5b600182019050919050565b7f4e487b7100000000000000000000000000000000000000000000000000000000600052601160045260246000fd5b7f4e487b7100000000000000000000000000000000000000000000000000000000600052601260045260246000fd5b7f4e487b7100000000000000000000000000000000000000000000000000000000600052602260045260246000fd5b7f4e487b7100000000000000000000000000000000000000000000000000000000600052604160045260246000fd5b600080fd5b600080fd5b600080fd5b600080fd5b6000601f19601f8301169050919050565b7f52657374617572616e7420616c72656164792065786973747300000000000000600082015250565b7f43616e206f6e6c7920626520657865637574656420627920746865206d616e6160008201527f6765720000000000000000000000000000000000000000000000000000000000602082015250565b7f43616e20766f7465206f6e6c79207768696c6520766f74696e67206973206f7060008201527f656e2e0000000000000000000000000000000000000000000000000000000000602082015250565b61161b81611334565b811461162657600080fd5b50565b61163281611372565b811461163d57600080fd5b5056fea26469706673582212207e472bec101b310988601eab59a49b46fae2944feb7331eed511c40c861bc0e764736f6c63430008050033",
					"opcodes": "PUSH1 0x80 PUSH1 0x40 MSTORE PUSH1 0x0 PUSH1 0x3 SSTORE PUSH1 0x0 PUSH1 0x4 SSTORE PUSH1 0x0 PUSH1 0x5 SSTORE PUSH1 0x40 MLOAD DUP1 PUSH1 0x20 ADD PUSH1 0x40 MSTORE DUP1 PUSH1 0x0 DUP2 MSTORE POP PUSH1 0x7 SWAP1 DUP1 MLOAD SWAP1 PUSH1 0x20 ADD SWAP1 PUSH3 0x3A SWAP3 SWAP2 SWAP1 PUSH3 0xC6 JUMP JUMPDEST POP PUSH1 0x1 PUSH1 0xA PUSH1 0x0 PUSH2 0x100 EXP DUP2 SLOAD DUP2 PUSH1 0xFF MUL NOT AND SWAP1 DUP4 ISZERO ISZERO MUL OR SWAP1 SSTORE POP PUSH1 0x1 PUSH1 0xA PUSH1 0x1 PUSH2 0x100 EXP DUP2 SLOAD DUP2 PUSH1 0xFF MUL NOT AND SWAP1 DUP4 ISZERO ISZERO MUL OR SWAP1 SSTORE POP CALLVALUE DUP1 ISZERO PUSH3 0x7E JUMPI PUSH1 0x0 DUP1 REVERT JUMPDEST POP CALLER PUSH1 0x6 PUSH1 0x0 PUSH2 0x100 EXP DUP2 SLOAD DUP2 PUSH20 0xFFFFFFFFFFFFFFFFFFFFFFFFFFFFFFFFFFFFFFFF MUL NOT AND SWAP1 DUP4 PUSH20 0xFFFFFFFFFFFFFFFFFFFFFFFFFFFFFFFFFFFFFFFF AND MUL OR SWAP1 SSTORE POP PUSH3 0x1DB JUMP JUMPDEST DUP3 DUP1 SLOAD PUSH3 0xD4 SWAP1 PUSH3 0x176 JUMP JUMPDEST SWAP1 PUSH1 0x0 MSTORE PUSH1 0x20 PUSH1 0x0 KECCAK256 SWAP1 PUSH1 0x1F ADD PUSH1 0x20 SWAP1 DIV DUP2 ADD SWAP3 DUP3 PUSH3 0xF8 JUMPI PUSH1 0x0 DUP6 SSTORE PUSH3 0x144 JUMP JUMPDEST DUP3 PUSH1 0x1F LT PUSH3 0x113 JUMPI DUP1 MLOAD PUSH1 0xFF NOT AND DUP4 DUP1 ADD OR DUP6 SSTORE PUSH3 0x144 JUMP JUMPDEST DUP3 DUP1 ADD PUSH1 0x1 ADD DUP6 SSTORE DUP3 ISZERO PUSH3 0x144 JUMPI SWAP2 DUP3 ADD JUMPDEST DUP3 DUP2 GT ISZERO PUSH3 0x143 JUMPI DUP3 MLOAD DUP3 SSTORE SWAP2 PUSH1 0x20 ADD SWAP2 SWAP1 PUSH1 0x1 ADD SWAP1 PUSH3 0x126 JUMP JUMPDEST JUMPDEST POP SWAP1 POP PUSH3 0x153 SWAP2 SWAP1 PUSH3 0x157 JUMP JUMPDEST POP SWAP1 JUMP JUMPDEST JUMPDEST DUP1 DUP3 GT ISZERO PUSH3 0x172 JUMPI PUSH1 0x0 DUP2 PUSH1 0x0 SWAP1 SSTORE POP PUSH1 0x1 ADD PUSH3 0x158 JUMP JUMPDEST POP SWAP1 JUMP JUMPDEST PUSH1 0x0 PUSH1 0x2 DUP3 DIV SWAP1 POP PUSH1 0x1 DUP3 AND DUP1 PUSH3 0x18F JUMPI PUSH1 0x7F DUP3 AND SWAP2 POP JUMPDEST PUSH1 0x20 DUP3 LT DUP2 EQ ISZERO PUSH3 0x1A6 JUMPI PUSH3 0x1A5 PUSH3 0x1AC JUMP JUMPDEST JUMPDEST POP SWAP2 SWAP1 POP JUMP JUMPDEST PUSH32 0x4E487B7100000000000000000000000000000000000000000000000000000000 PUSH1 0x0 MSTORE PUSH1 0x22 PUSH1 0x4 MSTORE PUSH1 0x24 PUSH1 0x0 REVERT JUMPDEST PUSH2 0x1676 DUP1 PUSH3 0x1EB PUSH1 0x0 CODECOPY PUSH1 0x0 RETURN INVALID PUSH1 0x80 PUSH1 0x40 MSTORE CALLVALUE DUP1 ISZERO PUSH2 0x10 JUMPI PUSH1 0x0 DUP1 REVERT JUMPDEST POP PUSH1 0x4 CALLDATASIZE LT PUSH2 0xF5 JUMPI PUSH1 0x0 CALLDATALOAD PUSH1 0xE0 SHR DUP1 PUSH4 0x5DF81330 GT PUSH2 0x97 JUMPI DUP1 PUSH4 0xA6C7F8B2 GT PUSH2 0x66 JUMPI DUP1 PUSH4 0xA6C7F8B2 EQ PUSH2 0x28C JUMPI DUP1 PUSH4 0xAD5461D8 EQ PUSH2 0x2BC JUMPI DUP1 PUSH4 0xB798867F EQ PUSH2 0x2EC JUMPI DUP1 PUSH4 0xC1C16EFC EQ PUSH2 0x30A JUMPI PUSH2 0xF5 JUMP JUMPDEST DUP1 PUSH4 0x5DF81330 EQ PUSH2 0x1EF JUMPI DUP1 PUSH4 0x6D77BD3E EQ PUSH2 0x220 JUMPI DUP1 PUSH4 0x788D3851 EQ PUSH2 0x250 JUMPI DUP1 PUSH4 0xA3BEF4D7 EQ PUSH2 0x26E JUMPI PUSH2 0xF5 JUMP JUMPDEST DUP1 PUSH4 0x22F3E2D4 GT PUSH2 0xD3 JUMPI DUP1 PUSH4 0x22F3E2D4 EQ PUSH2 0x165 JUMPI DUP1 PUSH4 0x3B9F708D EQ PUSH2 0x183 JUMPI DUP1 PUSH4 0x47098F36 EQ PUSH2 0x1B3 JUMPI DUP1 PUSH4 0x481C6A75 EQ PUSH2 0x1D1 JUMPI PUSH2 0xF5 JUMP JUMPDEST DUP1 PUSH4 0x12253A6C EQ PUSH2 0xFA JUMPI DUP1 PUSH4 0x124258C6 EQ PUSH2 0x104 JUMPI DUP1 PUSH4 0x1DDABF7A EQ PUSH2 0x134 JUMPI JUMPDEST PUSH1 0x0 DUP1 REVERT JUMPDEST PUSH2 0x102 PUSH2 0x328 JUMP JUMPDEST STOP JUMPDEST PUSH2 0x11E PUSH1 0x4 DUP1 CALLDATASIZE SUB DUP2 ADD SWAP1 PUSH2 0x119 SWAP2 SWAP1 PUSH2 0xFC0 JUMP JUMPDEST PUSH2 0x3D5 JUMP JUMPDEST PUSH1 0x40 MLOAD PUSH2 0x12B SWAP2 SWAP1 PUSH2 0x1148 JUMP JUMPDEST PUSH1 0x40 MLOAD DUP1 SWAP2 SUB SWAP1 RETURN JUMPDEST PUSH2 0x14E PUSH1 0x4 DUP1 CALLDATASIZE SUB DUP2 ADD SWAP1 PUSH2 0x149 SWAP2 SWAP1 PUSH2 0xEEE JUMP JUMPDEST PUSH2 0x60B JUMP JUMPDEST PUSH1 0x40 MLOAD PUSH2 0x15C SWAP3 SWAP2 SWAP1 PUSH2 0x1185 JUMP JUMPDEST PUSH1 0x40 MLOAD DUP1 SWAP2 SUB SWAP1 RETURN JUMPDEST PUSH2 0x16D PUSH2 0x6C4 JUMP JUMPDEST PUSH1 0x40 MLOAD PUSH2 0x17A SWAP2 SWAP1 PUSH2 0x1148 JUMP JUMPDEST PUSH1 0x40 MLOAD DUP1 SWAP2 SUB SWAP1 RETURN JUMPDEST PUSH2 0x19D PUSH1 0x4 DUP1 CALLDATASIZE SUB DUP2 ADD SWAP1 PUSH2 0x198 SWAP2 SWAP1 PUSH2 0xF1B JUMP JUMPDEST PUSH2 0x6D7 JUMP JUMPDEST PUSH1 0x40 MLOAD PUSH2 0x1AA SWAP2 SWAP1 PUSH2 0x1215 JUMP JUMPDEST PUSH1 0x40 MLOAD DUP1 SWAP2 SUB SWAP1 RETURN JUMPDEST PUSH2 0x1BB PUSH2 0x82F JUMP JUMPDEST PUSH1 0x40 MLOAD PUSH2 0x1C8 SWAP2 SWAP1 PUSH2 0x1215 JUMP JUMPDEST PUSH1 0x40 MLOAD DUP1 SWAP2 SUB SWAP1 RETURN JUMPDEST PUSH2 0x1D9 PUSH2 0x835 JUMP JUMPDEST PUSH1 0x40 MLOAD PUSH2 0x1E6 SWAP2 SWAP1 PUSH2 0x1104 JUMP JUMPDEST PUSH1 0x40 MLOAD DUP1 SWAP2 SUB SWAP1 RETURN JUMPDEST PUSH2 0x209 PUSH1 0x4 DUP1 CALLDATASIZE SUB DUP2 ADD SWAP1 PUSH2 0x204 SWAP2 SWAP1 PUSH2 0xFC0 JUMP JUMPDEST PUSH2 0x85B JUMP JUMPDEST PUSH1 0x40 MLOAD PUSH2 0x217 SWAP3 SWAP2 SWAP1 PUSH2 0x111F JUMP JUMPDEST PUSH1 0x40 MLOAD DUP1 SWAP2 SUB SWAP1 RETURN JUMPDEST PUSH2 0x23A PUSH1 0x4 DUP1 CALLDATASIZE SUB DUP2 ADD SWAP1 PUSH2 0x235 SWAP2 SWAP1 PUSH2 0xF77 JUMP JUMPDEST PUSH2 0x89F JUMP JUMPDEST PUSH1 0x40 MLOAD PUSH2 0x247 SWAP2 SWAP1 PUSH2 0x1215 JUMP JUMPDEST PUSH1 0x40 MLOAD DUP1 SWAP2 SUB SWAP1 RETURN JUMPDEST PUSH2 0x258 PUSH2 0xA1F JUMP JUMPDEST PUSH1 0x40 MLOAD PUSH2 0x265 SWAP2 SWAP1 PUSH2 0x1148 JUMP JUMPDEST PUSH1 0x40 MLOAD DUP1 SWAP2 SUB SWAP1 RETURN JUMPDEST PUSH2 0x276 PUSH2 0xA32 JUMP JUMPDEST PUSH1 0x40 MLOAD PUSH2 0x283 SWAP2 SWAP1 PUSH2 0x1215 JUMP JUMPDEST PUSH1 0x40 MLOAD DUP1 SWAP2 SUB SWAP1 RETURN JUMPDEST PUSH2 0x2A6 PUSH1 0x4 DUP1 CALLDATASIZE SUB DUP2 ADD SWAP1 PUSH2 0x2A1 SWAP2 SWAP1 PUSH2 0xF77 JUMP JUMPDEST PUSH2 0xA38 JUMP JUMPDEST PUSH1 0x40 MLOAD PUSH2 0x2B3 SWAP2 SWAP1 PUSH2 0x1148 JUMP JUMPDEST PUSH1 0x40 MLOAD DUP1 SWAP2 SUB SWAP1 RETURN JUMPDEST PUSH2 0x2D6 PUSH1 0x4 DUP1 CALLDATASIZE SUB DUP2 ADD SWAP1 PUSH2 0x2D1 SWAP2 SWAP1 PUSH2 0xFC0 JUMP JUMPDEST PUSH2 0xA6E JUMP JUMPDEST PUSH1 0x40 MLOAD PUSH2 0x2E3 SWAP2 SWAP1 PUSH2 0x1163 JUMP JUMPDEST PUSH1 0x40 MLOAD DUP1 SWAP2 SUB SWAP1 RETURN JUMPDEST PUSH2 0x2F4 PUSH2 0xB0E JUMP JUMPDEST PUSH1 0x40 MLOAD PUSH2 0x301 SWAP2 SWAP1 PUSH2 0x1215 JUMP JUMPDEST PUSH1 0x40 MLOAD DUP1 SWAP2 SUB SWAP1 RETURN JUMPDEST PUSH2 0x312 PUSH2 0xB14 JUMP JUMPDEST PUSH1 0x40 MLOAD PUSH2 0x31F SWAP2 SWAP1 PUSH2 0x1163 JUMP JUMPDEST PUSH1 0x40 MLOAD DUP1 SWAP2 SUB SWAP1 RETURN JUMPDEST PUSH1 0x6 PUSH1 0x0 SWAP1 SLOAD SWAP1 PUSH2 0x100 EXP SWAP1 DIV PUSH20 0xFFFFFFFFFFFFFFFFFFFFFFFFFFFFFFFFFFFFFFFF AND PUSH20 0xFFFFFFFFFFFFFFFFFFFFFFFFFFFFFFFFFFFFFFFF AND CALLER PUSH20 0xFFFFFFFFFFFFFFFFFFFFFFFFFFFFFFFFFFFFFFFF AND EQ PUSH2 0x3B8 JUMPI PUSH1 0x40 MLOAD PUSH32 0x8C379A000000000000000000000000000000000000000000000000000000000 DUP2 MSTORE PUSH1 0x4 ADD PUSH2 0x3AF SWAP1 PUSH2 0x11D5 JUMP JUMPDEST PUSH1 0x40 MLOAD DUP1 SWAP2 SUB SWAP1 REVERT JUMPDEST PUSH1 0x0 PUSH1 0xA PUSH1 0x1 PUSH2 0x100 EXP DUP2 SLOAD DUP2 PUSH1 0xFF MUL NOT AND SWAP1 DUP4 ISZERO ISZERO MUL OR SWAP1 SSTORE POP JUMP JUMPDEST PUSH1 0x0 PUSH1 0x1 ISZERO ISZERO PUSH1 0xA PUSH1 0x0 SWAP1 SLOAD SWAP1 PUSH2 0x100 EXP SWAP1 DIV PUSH1 0xFF AND ISZERO ISZERO EQ PUSH2 0x42D JUMPI PUSH1 0x40 MLOAD PUSH32 0x8C379A000000000000000000000000000000000000000000000000000000000 DUP2 MSTORE PUSH1 0x4 ADD PUSH2 0x424 SWAP1 PUSH2 0x11F5 JUMP JUMPDEST PUSH1 0x40 MLOAD DUP1 SWAP2 SUB SWAP1 REVERT JUMPDEST PUSH1 0x0 SWAP1 POP PUSH1 0x0 PUSH1 0x1 PUSH1 0x0 CALLER PUSH20 0xFFFFFFFFFFFFFFFFFFFFFFFFFFFFFFFFFFFFFFFF AND PUSH20 0xFFFFFFFFFFFFFFFFFFFFFFFFFFFFFFFFFFFFFFFF AND DUP2 MSTORE PUSH1 0x20 ADD SWAP1 DUP2 MSTORE PUSH1 0x20 ADD PUSH1 0x0 KECCAK256 PUSH1 0x0 ADD DUP1 SLOAD PUSH2 0x480 SWAP1 PUSH2 0x13BE JUMP JUMPDEST SWAP1 POP EQ PUSH2 0x5DA JUMPI PUSH1 0x0 DUP1 PUSH1 0x0 DUP5 DUP2 MSTORE PUSH1 0x20 ADD SWAP1 DUP2 MSTORE PUSH1 0x20 ADD PUSH1 0x0 KECCAK256 DUP1 SLOAD PUSH2 0x4A6 SWAP1 PUSH2 0x13BE JUMP JUMPDEST SWAP1 POP EQ PUSH2 0x5D9 JUMPI PUSH1 0x1 SWAP1 POP PUSH1 0x1 DUP1 PUSH1 0x0 CALLER PUSH20 0xFFFFFFFFFFFFFFFFFFFFFFFFFFFFFFFFFFFFFFFF AND PUSH20 0xFFFFFFFFFFFFFFFFFFFFFFFFFFFFFFFFFFFFFFFF AND DUP2 MSTORE PUSH1 0x20 ADD SWAP1 DUP2 MSTORE PUSH1 0x20 ADD PUSH1 0x0 KECCAK256 PUSH1 0x1 ADD PUSH1 0x0 PUSH2 0x100 EXP DUP2 SLOAD DUP2 PUSH1 0xFF MUL NOT AND SWAP1 DUP4 ISZERO ISZERO MUL OR SWAP1 SSTORE POP PUSH2 0x513 PUSH2 0xCD8 JUMP JUMPDEST CALLER DUP2 PUSH1 0x0 ADD SWAP1 PUSH20 0xFFFFFFFFFFFFFFFFFFFFFFFFFFFFFFFFFFFFFFFF AND SWAP1 DUP2 PUSH20 0xFFFFFFFFFFFFFFFFFFFFFFFFFFFFFFFFFFFFFFFF AND DUP2 MSTORE POP POP DUP3 DUP2 PUSH1 0x20 ADD DUP2 DUP2 MSTORE POP POP PUSH1 0x5 PUSH1 0x0 DUP2 SLOAD DUP1 SWAP3 SWAP2 SWAP1 PUSH2 0x568 SWAP1 PUSH2 0x1421 JUMP JUMPDEST SWAP2 SWAP1 POP SSTORE POP DUP1 PUSH1 0x8 PUSH1 0x0 PUSH1 0x5 SLOAD DUP2 MSTORE PUSH1 0x20 ADD SWAP1 DUP2 MSTORE PUSH1 0x20 ADD PUSH1 0x0 KECCAK256 PUSH1 0x0 DUP3 ADD MLOAD DUP2 PUSH1 0x0 ADD PUSH1 0x0 PUSH2 0x100 EXP DUP2 SLOAD DUP2 PUSH20 0xFFFFFFFFFFFFFFFFFFFFFFFFFFFFFFFFFFFFFFFF MUL NOT AND SWAP1 DUP4 PUSH20 0xFFFFFFFFFFFFFFFFFFFFFFFFFFFFFFFFFFFFFFFF AND MUL OR SWAP1 SSTORE POP PUSH1 0x20 DUP3 ADD MLOAD DUP2 PUSH1 0x1 ADD SSTORE SWAP1 POP POP POP JUMPDEST JUMPDEST PUSH1 0x1 PUSH1 0x2 PUSH1 0x4 SLOAD PUSH2 0x5EB SWAP2 SWAP1 PUSH2 0x1303 JUMP JUMPDEST PUSH2 0x5F5 SWAP2 SWAP1 PUSH2 0x12AD JUMP JUMPDEST PUSH1 0x5 SLOAD LT PUSH2 0x606 JUMPI PUSH2 0x605 PUSH2 0xBA2 JUMP JUMPDEST JUMPDEST SWAP2 SWAP1 POP JUMP JUMPDEST PUSH1 0x1 PUSH1 0x20 MSTORE DUP1 PUSH1 0x0 MSTORE PUSH1 0x40 PUSH1 0x0 KECCAK256 PUSH1 0x0 SWAP2 POP SWAP1 POP DUP1 PUSH1 0x0 ADD DUP1 SLOAD PUSH2 0x62E SWAP1 PUSH2 0x13BE JUMP JUMPDEST DUP1 PUSH1 0x1F ADD PUSH1 0x20 DUP1 SWAP2 DIV MUL PUSH1 0x20 ADD PUSH1 0x40 MLOAD SWAP1 DUP2 ADD PUSH1 0x40 MSTORE DUP1 SWAP3 SWAP2 SWAP1 DUP2 DUP2 MSTORE PUSH1 0x20 ADD DUP3 DUP1 SLOAD PUSH2 0x65A SWAP1 PUSH2 0x13BE JUMP JUMPDEST DUP1 ISZERO PUSH2 0x6A7 JUMPI DUP1 PUSH1 0x1F LT PUSH2 0x67C JUMPI PUSH2 0x100 DUP1 DUP4 SLOAD DIV MUL DUP4 MSTORE SWAP2 PUSH1 0x20 ADD SWAP2 PUSH2 0x6A7 JUMP JUMPDEST DUP3 ADD SWAP2 SWAP1 PUSH1 0x0 MSTORE PUSH1 0x20 PUSH1 0x0 KECCAK256 SWAP1 JUMPDEST DUP2 SLOAD DUP2 MSTORE SWAP1 PUSH1 0x1 ADD SWAP1 PUSH1 0x20 ADD DUP1 DUP4 GT PUSH2 0x68A JUMPI DUP3 SWAP1 SUB PUSH1 0x1F AND DUP3 ADD SWAP2 JUMPDEST POP POP POP POP POP SWAP1 DUP1 PUSH1 0x1 ADD PUSH1 0x0 SWAP1 SLOAD SWAP1 PUSH2 0x100 EXP SWAP1 DIV PUSH1 0xFF AND SWAP1 POP DUP3 JUMP JUMPDEST PUSH1 0xA PUSH1 0x1 SWAP1 SLOAD SWAP1 PUSH2 0x100 EXP SWAP1 DIV PUSH1 0xFF AND DUP2 JUMP JUMPDEST PUSH1 0x0 PUSH1 0x6 PUSH1 0x0 SWAP1 SLOAD SWAP1 PUSH2 0x100 EXP SWAP1 DIV PUSH20 0xFFFFFFFFFFFFFFFFFFFFFFFFFFFFFFFFFFFFFFFF AND PUSH20 0xFFFFFFFFFFFFFFFFFFFFFFFFFFFFFFFFFFFFFFFF AND CALLER PUSH20 0xFFFFFFFFFFFFFFFFFFFFFFFFFFFFFFFFFFFFFFFF AND EQ PUSH2 0x769 JUMPI PUSH1 0x40 MLOAD PUSH32 0x8C379A000000000000000000000000000000000000000000000000000000000 DUP2 MSTORE PUSH1 0x4 ADD PUSH2 0x760 SWAP1 PUSH2 0x11D5 JUMP JUMPDEST PUSH1 0x40 MLOAD DUP1 SWAP2 SUB SWAP1 REVERT JUMPDEST PUSH2 0x771 PUSH2 0xD08 JUMP JUMPDEST DUP3 DUP2 PUSH1 0x0 ADD DUP2 SWAP1 MSTORE POP PUSH1 0x0 DUP2 PUSH1 0x20 ADD SWAP1 ISZERO ISZERO SWAP1 DUP2 ISZERO ISZERO DUP2 MSTORE POP POP DUP1 PUSH1 0x1 PUSH1 0x0 DUP7 PUSH20 0xFFFFFFFFFFFFFFFFFFFFFFFFFFFFFFFFFFFFFFFF AND PUSH20 0xFFFFFFFFFFFFFFFFFFFFFFFFFFFFFFFFFFFFFFFF AND DUP2 MSTORE PUSH1 0x20 ADD SWAP1 DUP2 MSTORE PUSH1 0x20 ADD PUSH1 0x0 KECCAK256 PUSH1 0x0 DUP3 ADD MLOAD DUP2 PUSH1 0x0 ADD SWAP1 DUP1 MLOAD SWAP1 PUSH1 0x20 ADD SWAP1 PUSH2 0x7E7 SWAP3 SWAP2 SWAP1 PUSH2 0xD24 JUMP JUMPDEST POP PUSH1 0x20 DUP3 ADD MLOAD DUP2 PUSH1 0x1 ADD PUSH1 0x0 PUSH2 0x100 EXP DUP2 SLOAD DUP2 PUSH1 0xFF MUL NOT AND SWAP1 DUP4 ISZERO ISZERO MUL OR SWAP1 SSTORE POP SWAP1 POP POP PUSH1 0x4 PUSH1 0x0 DUP2 SLOAD DUP1 SWAP3 SWAP2 SWAP1 PUSH2 0x81E SWAP1 PUSH2 0x1421 JUMP JUMPDEST SWAP2 SWAP1 POP SSTORE POP PUSH1 0x4 SLOAD SWAP2 POP POP SWAP3 SWAP2 POP POP JUMP JUMPDEST PUSH1 0x4 SLOAD DUP2 JUMP JUMPDEST PUSH1 0x6 PUSH1 0x0 SWAP1 SLOAD SWAP1 PUSH2 0x100 EXP SWAP1 DIV PUSH20 0xFFFFFFFFFFFFFFFFFFFFFFFFFFFFFFFFFFFFFFFF AND DUP2 JUMP JUMPDEST PUSH1 0x8 PUSH1 0x20 MSTORE DUP1 PUSH1 0x0 MSTORE PUSH1 0x40 PUSH1 0x0 KECCAK256 PUSH1 0x0 SWAP2 POP SWAP1 POP DUP1 PUSH1 0x0 ADD PUSH1 0x0 SWAP1 SLOAD SWAP1 PUSH2 0x100 EXP SWAP1 DIV PUSH20 0xFFFFFFFFFFFFFFFFFFFFFFFFFFFFFFFFFFFFFFFF AND SWAP1 DUP1 PUSH1 0x1 ADD SLOAD SWAP1 POP DUP3 JUMP JUMPDEST PUSH1 0x0 PUSH1 0x6 PUSH1 0x0 SWAP1 SLOAD SWAP1 PUSH2 0x100 EXP SWAP1 DIV PUSH20 0xFFFFFFFFFFFFFFFFFFFFFFFFFFFFFFFFFFFFFFFF AND PUSH20 0xFFFFFFFFFFFFFFFFFFFFFFFFFFFFFFFFFFFFFFFF AND CALLER PUSH20 0xFFFFFFFFFFFFFFFFFFFFFFFFFFFFFFFFFFFFFFFF AND EQ PUSH2 0x931 JUMPI PUSH1 0x40 MLOAD PUSH32 0x8C379A000000000000000000000000000000000000000000000000000000000 DUP2 MSTORE PUSH1 0x4 ADD PUSH2 0x928 SWAP1 PUSH2 0x11D5 JUMP JUMPDEST PUSH1 0x40 MLOAD DUP1 SWAP2 SUB SWAP1 REVERT JUMPDEST PUSH1 0x2 DUP3 PUSH1 0x40 MLOAD PUSH2 0x941 SWAP2 SWAP1 PUSH2 0x10ED JUMP JUMPDEST SWAP1 DUP2 MSTORE PUSH1 0x20 ADD PUSH1 0x40 MLOAD DUP1 SWAP2 SUB SWAP1 KECCAK256 PUSH1 0x0 SWAP1 SLOAD SWAP1 PUSH2 0x100 EXP SWAP1 DIV PUSH1 0xFF AND ISZERO PUSH2 0x99D JUMPI PUSH1 0x40 MLOAD PUSH32 0x8C379A000000000000000000000000000000000000000000000000000000000 DUP2 MSTORE PUSH1 0x4 ADD PUSH2 0x994 SWAP1 PUSH2 0x11B5 JUMP JUMPDEST PUSH1 0x40 MLOAD DUP1 SWAP2 SUB SWAP1 REVERT JUMPDEST PUSH1 0x3 PUSH1 0x0 DUP2 SLOAD DUP1 SWAP3 SWAP2 SWAP1 PUSH2 0x9B0 SWAP1 PUSH2 0x1421 JUMP JUMPDEST SWAP2 SWAP1 POP SSTORE POP DUP2 PUSH1 0x0 DUP1 PUSH1 0x3 SLOAD DUP2 MSTORE PUSH1 0x20 ADD SWAP1 DUP2 MSTORE PUSH1 0x20 ADD PUSH1 0x0 KECCAK256 SWAP1 DUP1 MLOAD SWAP1 PUSH1 0x20 ADD SWAP1 PUSH2 0x9DD SWAP3 SWAP2 SWAP1 PUSH2 0xD24 JUMP JUMPDEST POP PUSH1 0x1 PUSH1 0x2 DUP4 PUSH1 0x40 MLOAD PUSH2 0x9F0 SWAP2 SWAP1 PUSH2 0x10ED JUMP JUMPDEST SWAP1 DUP2 MSTORE PUSH1 0x20 ADD PUSH1 0x40 MLOAD DUP1 SWAP2 SUB SWAP1 KECCAK256 PUSH1 0x0 PUSH2 0x100 EXP DUP2 SLOAD DUP2 PUSH1 0xFF MUL NOT AND SWAP1 DUP4 ISZERO ISZERO MUL OR SWAP1 SSTORE POP PUSH1 0x3 SLOAD SWAP1 POP SWAP2 SWAP1 POP JUMP JUMPDEST PUSH1 0xA PUSH1 0x0 SWAP1 SLOAD SWAP1 PUSH2 0x100 EXP SWAP1 DIV PUSH1 0xFF AND DUP2 JUMP JUMPDEST PUSH1 0x5 SLOAD DUP2 JUMP JUMPDEST PUSH1 0x2 DUP2 DUP1 MLOAD PUSH1 0x20 DUP2 ADD DUP3 ADD DUP1 MLOAD DUP5 DUP3 MSTORE PUSH1 0x20 DUP4 ADD PUSH1 0x20 DUP6 ADD KECCAK256 DUP2 DUP4 MSTORE DUP1 SWAP6 POP POP POP POP POP POP PUSH1 0x0 SWAP2 POP SLOAD SWAP1 PUSH2 0x100 EXP SWAP1 DIV PUSH1 0xFF AND DUP2 JUMP JUMPDEST PUSH1 0x0 PUSH1 0x20 MSTORE DUP1 PUSH1 0x0 MSTORE PUSH1 0x40 PUSH1 0x0 KECCAK256 PUSH1 0x0 SWAP2 POP SWAP1 POP DUP1 SLOAD PUSH2 0xA8D SWAP1 PUSH2 0x13BE JUMP JUMPDEST DUP1 PUSH1 0x1F ADD PUSH1 0x20 DUP1 SWAP2 DIV MUL PUSH1 0x20 ADD PUSH1 0x40 MLOAD SWAP1 DUP2 ADD PUSH1 0x40 MSTORE DUP1 SWAP3 SWAP2 SWAP1 DUP2 DUP2 MSTORE PUSH1 0x20 ADD DUP3 DUP1 SLOAD PUSH2 0xAB9 SWAP1 PUSH2 0x13BE JUMP JUMPDEST DUP1 ISZERO PUSH2 0xB06 JUMPI DUP1 PUSH1 0x1F LT PUSH2 0xADB JUMPI PUSH2 0x100 DUP1 DUP4 SLOAD DIV MUL DUP4 MSTORE SWAP2 PUSH1 0x20 ADD SWAP2 PUSH2 0xB06 JUMP JUMPDEST DUP3 ADD SWAP2 SWAP1 PUSH1 0x0 MSTORE PUSH1 0x20 PUSH1 0x0 KECCAK256 SWAP1 JUMPDEST DUP2 SLOAD DUP2 MSTORE SWAP1 PUSH1 0x1 ADD SWAP1 PUSH1 0x20 ADD DUP1 DUP4 GT PUSH2 0xAE9 JUMPI DUP3 SWAP1 SUB PUSH1 0x1F AND DUP3 ADD SWAP2 JUMPDEST POP POP POP POP POP DUP2 JUMP JUMPDEST PUSH1 0x3 SLOAD DUP2 JUMP JUMPDEST PUSH1 0x7 DUP1 SLOAD PUSH2 0xB21 SWAP1 PUSH2 0x13BE JUMP JUMPDEST DUP1 PUSH1 0x1F ADD PUSH1 0x20 DUP1 SWAP2 DIV MUL PUSH1 0x20 ADD PUSH1 0x40 MLOAD SWAP1 DUP2 ADD PUSH1 0x40 MSTORE DUP1 SWAP3 SWAP2 SWAP1 DUP2 DUP2 MSTORE PUSH1 0x20 ADD DUP3 DUP1 SLOAD PUSH2 0xB4D SWAP1 PUSH2 0x13BE JUMP JUMPDEST DUP1 ISZERO PUSH2 0xB9A JUMPI DUP1 PUSH1 0x1F LT PUSH2 0xB6F JUMPI PUSH2 0x100 DUP1 DUP4 SLOAD DIV MUL DUP4 MSTORE SWAP2 PUSH1 0x20 ADD SWAP2 PUSH2 0xB9A JUMP JUMPDEST DUP3 ADD SWAP2 SWAP1 PUSH1 0x0 MSTORE PUSH1 0x20 PUSH1 0x0 KECCAK256 SWAP1 JUMPDEST DUP2 SLOAD DUP2 MSTORE SWAP1 PUSH1 0x1 ADD SWAP1 PUSH1 0x20 ADD DUP1 DUP4 GT PUSH2 0xB7D JUMPI DUP3 SWAP1 SUB PUSH1 0x1F AND DUP3 ADD SWAP2 JUMPDEST POP POP POP POP POP DUP2 JUMP JUMPDEST PUSH1 0x0 DUP1 PUSH1 0x0 PUSH1 0x1 SWAP1 POP JUMPDEST PUSH1 0x5 SLOAD DUP2 GT PUSH2 0xC8C JUMPI PUSH1 0x0 PUSH1 0x1 SWAP1 POP PUSH1 0x0 PUSH1 0x9 PUSH1 0x0 PUSH1 0x8 PUSH1 0x0 DUP7 DUP2 MSTORE PUSH1 0x20 ADD SWAP1 DUP2 MSTORE PUSH1 0x20 ADD PUSH1 0x0 KECCAK256 PUSH1 0x1 ADD SLOAD DUP2 MSTORE PUSH1 0x20 ADD SWAP1 DUP2 MSTORE PUSH1 0x20 ADD PUSH1 0x0 KECCAK256 SLOAD GT ISZERO PUSH2 0xC25 JUMPI PUSH1 0x9 PUSH1 0x0 PUSH1 0x8 PUSH1 0x0 DUP6 DUP2 MSTORE PUSH1 0x20 ADD SWAP1 DUP2 MSTORE PUSH1 0x20 ADD PUSH1 0x0 KECCAK256 PUSH1 0x1 ADD SLOAD DUP2 MSTORE PUSH1 0x20 ADD SWAP1 DUP2 MSTORE PUSH1 0x20 ADD PUSH1 0x0 KECCAK256 SLOAD DUP2 PUSH2 0xC22 SWAP2 SWAP1 PUSH2 0x12AD JUMP JUMPDEST SWAP1 POP JUMPDEST DUP1 PUSH1 0x9 PUSH1 0x0 PUSH1 0x8 PUSH1 0x0 DUP7 DUP2 MSTORE PUSH1 0x20 ADD SWAP1 DUP2 MSTORE PUSH1 0x20 ADD PUSH1 0x0 KECCAK256 PUSH1 0x1 ADD SLOAD DUP2 MSTORE PUSH1 0x20 ADD SWAP1 DUP2 MSTORE PUSH1 0x20 ADD PUSH1 0x0 KECCAK256 DUP2 SWAP1 SSTORE POP DUP4 DUP2 GT ISZERO PUSH2 0xC78 JUMPI DUP1 SWAP4 POP PUSH1 0x8 PUSH1 0x0 DUP4 DUP2 MSTORE PUSH1 0x20 ADD SWAP1 DUP2 MSTORE PUSH1 0x20 ADD PUSH1 0x0 KECCAK256 PUSH1 0x1 ADD SLOAD SWAP3 POP JUMPDEST POP DUP1 DUP1 PUSH2 0xC84 SWAP1 PUSH2 0x1421 JUMP JUMPDEST SWAP2 POP POP PUSH2 0xBAC JUMP JUMPDEST POP PUSH1 0x0 DUP1 DUP3 DUP2 MSTORE PUSH1 0x20 ADD SWAP1 DUP2 MSTORE PUSH1 0x20 ADD PUSH1 0x0 KECCAK256 PUSH1 0x7 SWAP1 DUP1 SLOAD PUSH2 0xCAD SWAP1 PUSH2 0x13BE JUMP JUMPDEST PUSH2 0xCB8 SWAP3 SWAP2 SWAP1 PUSH2 0xDAA JUMP JUMPDEST POP PUSH1 0x0 PUSH1 0xA PUSH1 0x0 PUSH2 0x100 EXP DUP2 SLOAD DUP2 PUSH1 0xFF MUL NOT AND SWAP1 DUP4 ISZERO ISZERO MUL OR SWAP1 SSTORE POP POP POP JUMP JUMPDEST PUSH1 0x40 MLOAD DUP1 PUSH1 0x40 ADD PUSH1 0x40 MSTORE DUP1 PUSH1 0x0 PUSH20 0xFFFFFFFFFFFFFFFFFFFFFFFFFFFFFFFFFFFFFFFF AND DUP2 MSTORE PUSH1 0x20 ADD PUSH1 0x0 DUP2 MSTORE POP SWAP1 JUMP JUMPDEST PUSH1 0x40 MLOAD DUP1 PUSH1 0x40 ADD PUSH1 0x40 MSTORE DUP1 PUSH1 0x60 DUP2 MSTORE PUSH1 0x20 ADD PUSH1 0x0 ISZERO ISZERO DUP2 MSTORE POP SWAP1 JUMP JUMPDEST DUP3 DUP1 SLOAD PUSH2 0xD30 SWAP1 PUSH2 0x13BE JUMP JUMPDEST SWAP1 PUSH1 0x0 MSTORE PUSH1 0x20 PUSH1 0x0 KECCAK256 SWAP1 PUSH1 0x1F ADD PUSH1 0x20 SWAP1 DIV DUP2 ADD SWAP3 DUP3 PUSH2 0xD52 JUMPI PUSH1 0x0 DUP6 SSTORE PUSH2 0xD99 JUMP JUMPDEST DUP3 PUSH1 0x1F LT PUSH2 0xD6B JUMPI DUP1 MLOAD PUSH1 0xFF NOT AND DUP4 DUP1 ADD OR DUP6 SSTORE PUSH2 0xD99 JUMP JUMPDEST DUP3 DUP1 ADD PUSH1 0x1 ADD DUP6 SSTORE DUP3 ISZERO PUSH2 0xD99 JUMPI SWAP2 DUP3 ADD JUMPDEST DUP3 DUP2 GT ISZERO PUSH2 0xD98 JUMPI DUP3 MLOAD DUP3 SSTORE SWAP2 PUSH1 0x20 ADD SWAP2 SWAP1 PUSH1 0x1 ADD SWAP1 PUSH2 0xD7D JUMP JUMPDEST JUMPDEST POP SWAP1 POP PUSH2 0xDA6 SWAP2 SWAP1 PUSH2 0xE37 JUMP JUMPDEST POP SWAP1 JUMP JUMPDEST DUP3 DUP1 SLOAD PUSH2 0xDB6 SWAP1 PUSH2 0x13BE JUMP JUMPDEST SWAP1 PUSH1 0x0 MSTORE PUSH1 0x20 PUSH1 0x0 KECCAK256 SWAP1 PUSH1 0x1F ADD PUSH1 0x20 SWAP1 DIV DUP2 ADD SWAP3 DUP3 PUSH2 0xDD8 JUMPI PUSH1 0x0 DUP6 SSTORE PUSH2 0xE26 JUMP JUMPDEST DUP3 PUSH1 0x1F LT PUSH2 0xDE9 JUMPI DUP1 SLOAD DUP6 SSTORE PUSH2 0xE26 JUMP JUMPDEST DUP3 DUP1 ADD PUSH1 0x1 ADD DUP6 SSTORE DUP3 ISZERO PUSH2 0xE26 JUMPI PUSH1 0x0 MSTORE PUSH1 0x20 PUSH1 0x0 KECCAK256 SWAP2 PUSH1 0x1F ADD PUSH1 0x20 SWAP1 DIV DUP3 ADD JUMPDEST DUP3 DUP2 GT ISZERO PUSH2 0xE25 JUMPI DUP3 SLOAD DUP3 SSTORE SWAP2 PUSH1 0x1 ADD SWAP2 SWAP1 PUSH1 0x1 ADD SWAP1 PUSH2 0xE0A JUMP JUMPDEST JUMPDEST POP SWAP1 POP PUSH2 0xE33 SWAP2 SWAP1 PUSH2 0xE37 JUMP JUMPDEST POP SWAP1 JUMP JUMPDEST JUMPDEST DUP1 DUP3 GT ISZERO PUSH2 0xE50 JUMPI PUSH1 0x0 DUP2 PUSH1 0x0 SWAP1 SSTORE POP PUSH1 0x1 ADD PUSH2 0xE38 JUMP JUMPDEST POP SWAP1 JUMP JUMPDEST PUSH1 0x0 PUSH2 0xE67 PUSH2 0xE62 DUP5 PUSH2 0x1255 JUMP JUMPDEST PUSH2 0x1230 JUMP JUMPDEST SWAP1 POP DUP3 DUP2 MSTORE PUSH1 0x20 DUP2 ADD DUP5 DUP5 DUP5 ADD GT ISZERO PUSH2 0xE83 JUMPI PUSH2 0xE82 PUSH2 0x152B JUMP JUMPDEST JUMPDEST PUSH2 0xE8E DUP5 DUP3 DUP6 PUSH2 0x137C JUMP JUMPDEST POP SWAP4 SWAP3 POP POP POP JUMP JUMPDEST PUSH1 0x0 DUP2 CALLDATALOAD SWAP1 POP PUSH2 0xEA5 DUP2 PUSH2 0x1612 JUMP JUMPDEST SWAP3 SWAP2 POP POP JUMP JUMPDEST PUSH1 0x0 DUP3 PUSH1 0x1F DUP4 ADD SLT PUSH2 0xEC0 JUMPI PUSH2 0xEBF PUSH2 0x1526 JUMP JUMPDEST JUMPDEST DUP2 CALLDATALOAD PUSH2 0xED0 DUP5 DUP3 PUSH1 0x20 DUP7 ADD PUSH2 0xE54 JUMP JUMPDEST SWAP2 POP POP SWAP3 SWAP2 POP POP JUMP JUMPDEST PUSH1 0x0 DUP2 CALLDATALOAD SWAP1 POP PUSH2 0xEE8 DUP2 PUSH2 0x1629 JUMP JUMPDEST SWAP3 SWAP2 POP POP JUMP JUMPDEST PUSH1 0x0 PUSH1 0x20 DUP3 DUP5 SUB SLT ISZERO PUSH2 0xF04 JUMPI PUSH2 0xF03 PUSH2 0x1535 JUMP JUMPDEST JUMPDEST PUSH1 0x0 PUSH2 0xF12 DUP5 DUP3 DUP6 ADD PUSH2 0xE96 JUMP JUMPDEST SWAP2 POP POP SWAP3 SWAP2 POP POP JUMP JUMPDEST PUSH1 0x0 DUP1 PUSH1 0x40 DUP4 DUP6 SUB SLT ISZERO PUSH2 0xF32 JUMPI PUSH2 0xF31 PUSH2 0x1535 JUMP JUMPDEST JUMPDEST PUSH1 0x0 PUSH2 0xF40 DUP6 DUP3 DUP7 ADD PUSH2 0xE96 JUMP JUMPDEST SWAP3 POP POP PUSH1 0x20 DUP4 ADD CALLDATALOAD PUSH8 0xFFFFFFFFFFFFFFFF DUP2 GT ISZERO PUSH2 0xF61 JUMPI PUSH2 0xF60 PUSH2 0x1530 JUMP JUMPDEST JUMPDEST PUSH2 0xF6D DUP6 DUP3 DUP7 ADD PUSH2 0xEAB JUMP JUMPDEST SWAP2 POP POP SWAP3 POP SWAP3 SWAP1 POP JUMP JUMPDEST PUSH1 0x0 PUSH1 0x20 DUP3 DUP5 SUB SLT ISZERO PUSH2 0xF8D JUMPI PUSH2 0xF8C PUSH2 0x1535 JUMP JUMPDEST JUMPDEST PUSH1 0x0 DUP3 ADD CALLDATALOAD PUSH8 0xFFFFFFFFFFFFFFFF DUP2 GT ISZERO PUSH2 0xFAB JUMPI PUSH2 0xFAA PUSH2 0x1530 JUMP JUMPDEST JUMPDEST PUSH2 0xFB7 DUP5 DUP3 DUP6 ADD PUSH2 0xEAB JUMP JUMPDEST SWAP2 POP POP SWAP3 SWAP2 POP POP JUMP JUMPDEST PUSH1 0x0 PUSH1 0x20 DUP3 DUP5 SUB SLT ISZERO PUSH2 0xFD6 JUMPI PUSH2 0xFD5 PUSH2 0x1535 JUMP JUMPDEST JUMPDEST PUSH1 0x0 PUSH2 0xFE4 DUP5 DUP3 DUP6 ADD PUSH2 0xED9 JUMP JUMPDEST SWAP2 POP POP SWAP3 SWAP2 POP POP JUMP JUMPDEST PUSH2 0xFF6 DUP2 PUSH2 0x1334 JUMP JUMPDEST DUP3 MSTORE POP POP JUMP JUMPDEST PUSH2 0x1005 DUP2 PUSH2 0x1346 JUMP JUMPDEST DUP3 MSTORE POP POP JUMP JUMPDEST PUSH1 0x0 PUSH2 0x1016 DUP3 PUSH2 0x1286 JUMP JUMPDEST PUSH2 0x1020 DUP2 DUP6 PUSH2 0x1291 JUMP JUMPDEST SWAP4 POP PUSH2 0x1030 DUP2 DUP6 PUSH1 0x20 DUP7 ADD PUSH2 0x138B JUMP JUMPDEST PUSH2 0x1039 DUP2 PUSH2 0x153A JUMP JUMPDEST DUP5 ADD SWAP2 POP POP SWAP3 SWAP2 POP POP JUMP JUMPDEST PUSH1 0x0 PUSH2 0x104F DUP3 PUSH2 0x1286 JUMP JUMPDEST PUSH2 0x1059 DUP2 DUP6 PUSH2 0x12A2 JUMP JUMPDEST SWAP4 POP PUSH2 0x1069 DUP2 DUP6 PUSH1 0x20 DUP7 ADD PUSH2 0x138B JUMP JUMPDEST DUP1 DUP5 ADD SWAP2 POP POP SWAP3 SWAP2 POP POP JUMP JUMPDEST PUSH1 0x0 PUSH2 0x1082 PUSH1 0x19 DUP4 PUSH2 0x1291 JUMP JUMPDEST SWAP2 POP PUSH2 0x108D DUP3 PUSH2 0x154B JUMP JUMPDEST PUSH1 0x20 DUP3 ADD SWAP1 POP SWAP2 SWAP1 POP JUMP JUMPDEST PUSH1 0x0 PUSH2 0x10A5 PUSH1 0x23 DUP4 PUSH2 0x1291 JUMP JUMPDEST SWAP2 POP PUSH2 0x10B0 DUP3 PUSH2 0x1574 JUMP JUMPDEST PUSH1 0x40 DUP3 ADD SWAP1 POP SWAP2 SWAP1 POP JUMP JUMPDEST PUSH1 0x0 PUSH2 0x10C8 PUSH1 0x23 DUP4 PUSH2 0x1291 JUMP JUMPDEST SWAP2 POP PUSH2 0x10D3 DUP3 PUSH2 0x15C3 JUMP JUMPDEST PUSH1 0x40 DUP3 ADD SWAP1 POP SWAP2 SWAP1 POP JUMP JUMPDEST PUSH2 0x10E7 DUP2 PUSH2 0x1372 JUMP JUMPDEST DUP3 MSTORE POP POP JUMP JUMPDEST PUSH1 0x0 PUSH2 0x10F9 DUP3 DUP5 PUSH2 0x1044 JUMP JUMPDEST SWAP2 POP DUP2 SWAP1 POP SWAP3 SWAP2 POP POP JUMP JUMPDEST PUSH1 0x0 PUSH1 0x20 DUP3 ADD SWAP1 POP PUSH2 0x1119 PUSH1 0x0 DUP4 ADD DUP5 PUSH2 0xFED JUMP JUMPDEST SWAP3 SWAP2 POP POP JUMP JUMPDEST PUSH1 0x0 PUSH1 0x40 DUP3 ADD SWAP1 POP PUSH2 0x1134 PUSH1 0x0 DUP4 ADD DUP6 PUSH2 0xFED JUMP JUMPDEST PUSH2 0x1141 PUSH1 0x20 DUP4 ADD DUP5 PUSH2 0x10DE JUMP JUMPDEST SWAP4 SWAP3 POP POP POP JUMP JUMPDEST PUSH1 0x0 PUSH1 0x20 DUP3 ADD SWAP1 POP PUSH2 0x115D PUSH1 0x0 DUP4 ADD DUP5 PUSH2 0xFFC JUMP JUMPDEST SWAP3 SWAP2 POP POP JUMP JUMPDEST PUSH1 0x0 PUSH1 0x20 DUP3 ADD SWAP1 POP DUP2 DUP2 SUB PUSH1 0x0 DUP4 ADD MSTORE PUSH2 0x117D DUP2 DUP5 PUSH2 0x100B JUMP JUMPDEST SWAP1 POP SWAP3 SWAP2 POP POP JUMP JUMPDEST PUSH1 0x0 PUSH1 0x40 DUP3 ADD SWAP1 POP DUP2 DUP2 SUB PUSH1 0x0 DUP4 ADD MSTORE PUSH2 0x119F DUP2 DUP6 PUSH2 0x100B JUMP JUMPDEST SWAP1 POP PUSH2 0x11AE PUSH1 0x20 DUP4 ADD DUP5 PUSH2 0xFFC JUMP JUMPDEST SWAP4 SWAP3 POP POP POP JUMP JUMPDEST PUSH1 0x0 PUSH1 0x20 DUP3 ADD SWAP1 POP DUP2 DUP2 SUB PUSH1 0x0 DUP4 ADD MSTORE PUSH2 0x11CE DUP2 PUSH2 0x1075 JUMP JUMPDEST SWAP1 POP SWAP2 SWAP1 POP JUMP JUMPDEST PUSH1 0x0 PUSH1 0x20 DUP3 ADD SWAP1 POP DUP2 DUP2 SUB PUSH1 0x0 DUP4 ADD MSTORE PUSH2 0x11EE DUP2 PUSH2 0x1098 JUMP JUMPDEST SWAP1 POP SWAP2 SWAP1 POP JUMP JUMPDEST PUSH1 0x0 PUSH1 0x20 DUP3 ADD SWAP1 POP DUP2 DUP2 SUB PUSH1 0x0 DUP4 ADD MSTORE PUSH2 0x120E DUP2 PUSH2 0x10BB JUMP JUMPDEST SWAP1 POP SWAP2 SWAP1 POP JUMP JUMPDEST PUSH1 0x0 PUSH1 0x20 DUP3 ADD SWAP1 POP PUSH2 0x122A PUSH1 0x0 DUP4 ADD DUP5 PUSH2 0x10DE JUMP JUMPDEST SWAP3 SWAP2 POP POP JUMP JUMPDEST PUSH1 0x0 PUSH2 0x123A PUSH2 0x124B JUMP JUMPDEST SWAP1 POP PUSH2 0x1246 DUP3 DUP3 PUSH2 0x13F0 JUMP JUMPDEST SWAP2 SWAP1 POP JUMP JUMPDEST PUSH1 0x0 PUSH1 0x40 MLOAD SWAP1 POP SWAP1 JUMP JUMPDEST PUSH1 0x0 PUSH8 0xFFFFFFFFFFFFFFFF DUP3 GT ISZERO PUSH2 0x1270 JUMPI PUSH2 0x126F PUSH2 0x14F7 JUMP JUMPDEST JUMPDEST PUSH2 0x1279 DUP3 PUSH2 0x153A JUMP JUMPDEST SWAP1 POP PUSH1 0x20 DUP2 ADD SWAP1 POP SWAP2 SWAP1 POP JUMP JUMPDEST PUSH1 0x0 DUP2 MLOAD SWAP1 POP SWAP2 SWAP1 POP JUMP JUMPDEST PUSH1 0x0 DUP3 DUP3 MSTORE PUSH1 0x20 DUP3 ADD SWAP1 POP SWAP3 SWAP2 POP POP JUMP JUMPDEST PUSH1 0x0 DUP2 SWAP1 POP SWAP3 SWAP2 POP POP JUMP JUMPDEST PUSH1 0x0 PUSH2 0x12B8 DUP3 PUSH2 0x1372 JUMP JUMPDEST SWAP2 POP PUSH2 0x12C3 DUP4 PUSH2 0x1372 JUMP JUMPDEST SWAP3 POP DUP3 PUSH32 0xFFFFFFFFFFFFFFFFFFFFFFFFFFFFFFFFFFFFFFFFFFFFFFFFFFFFFFFFFFFFFFFF SUB DUP3 GT ISZERO PUSH2 0x12F8 JUMPI PUSH2 0x12F7 PUSH2 0x146A JUMP JUMPDEST JUMPDEST DUP3 DUP3 ADD SWAP1 POP SWAP3 SWAP2 POP POP JUMP JUMPDEST PUSH1 0x0 PUSH2 0x130E DUP3 PUSH2 0x1372 JUMP JUMPDEST SWAP2 POP PUSH2 0x1319 DUP4 PUSH2 0x1372 JUMP JUMPDEST SWAP3 POP DUP3 PUSH2 0x1329 JUMPI PUSH2 0x1328 PUSH2 0x1499 JUMP JUMPDEST JUMPDEST DUP3 DUP3 DIV SWAP1 POP SWAP3 SWAP2 POP POP JUMP JUMPDEST PUSH1 0x0 PUSH2 0x133F DUP3 PUSH2 0x1352 JUMP JUMPDEST SWAP1 POP SWAP2 SWAP1 POP JUMP JUMPDEST PUSH1 0x0 DUP2 ISZERO ISZERO SWAP1 POP SWAP2 SWAP1 POP JUMP JUMPDEST PUSH1 0x0 PUSH20 0xFFFFFFFFFFFFFFFFFFFFFFFFFFFFFFFFFFFFFFFF DUP3 AND SWAP1 POP SWAP2 SWAP1 POP JUMP JUMPDEST PUSH1 0x0 DUP2 SWAP1 POP SWAP2 SWAP1 POP JUMP JUMPDEST DUP3 DUP2 DUP4 CALLDATACOPY PUSH1 0x0 DUP4 DUP4 ADD MSTORE POP POP POP JUMP JUMPDEST PUSH1 0x0 JUMPDEST DUP4 DUP2 LT ISZERO PUSH2 0x13A9 JUMPI DUP1 DUP3 ADD MLOAD DUP2 DUP5 ADD MSTORE PUSH1 0x20 DUP2 ADD SWAP1 POP PUSH2 0x138E JUMP JUMPDEST DUP4 DUP2 GT ISZERO PUSH2 0x13B8 JUMPI PUSH1 0x0 DUP5 DUP5 ADD MSTORE JUMPDEST POP POP POP POP JUMP JUMPDEST PUSH1 0x0 PUSH1 0x2 DUP3 DIV SWAP1 POP PUSH1 0x1 DUP3 AND DUP1 PUSH2 0x13D6 JUMPI PUSH1 0x7F DUP3 AND SWAP2 POP JUMPDEST PUSH1 0x20 DUP3 LT DUP2 EQ ISZERO PUSH2 0x13EA JUMPI PUSH2 0x13E9 PUSH2 0x14C8 JUMP JUMPDEST JUMPDEST POP SWAP2 SWAP1 POP JUMP JUMPDEST PUSH2 0x13F9 DUP3 PUSH2 0x153A JUMP JUMPDEST DUP2 ADD DUP2 DUP2 LT PUSH8 0xFFFFFFFFFFFFFFFF DUP3 GT OR ISZERO PUSH2 0x1418 JUMPI PUSH2 0x1417 PUSH2 0x14F7 JUMP JUMPDEST JUMPDEST DUP1 PUSH1 0x40 MSTORE POP POP POP JUMP JUMPDEST PUSH1 0x0 PUSH2 0x142C DUP3 PUSH2 0x1372 JUMP JUMPDEST SWAP2 POP PUSH32 0xFFFFFFFFFFFFFFFFFFFFFFFFFFFFFFFFFFFFFFFFFFFFFFFFFFFFFFFFFFFFFFFF DUP3 EQ ISZERO PUSH2 0x145F JUMPI PUSH2 0x145E PUSH2 0x146A JUMP JUMPDEST JUMPDEST PUSH1 0x1 DUP3 ADD SWAP1 POP SWAP2 SWAP1 POP JUMP JUMPDEST PUSH32 0x4E487B7100000000000000000000000000000000000000000000000000000000 PUSH1 0x0 MSTORE PUSH1 0x11 PUSH1 0x4 MSTORE PUSH1 0x24 PUSH1 0x0 REVERT JUMPDEST PUSH32 0x4E487B7100000000000000000000000000000000000000000000000000000000 PUSH1 0x0 MSTORE PUSH1 0x12 PUSH1 0x4 MSTORE PUSH1 0x24 PUSH1 0x0 REVERT JUMPDEST PUSH32 0x4E487B7100000000000000000000000000000000000000000000000000000000 PUSH1 0x0 MSTORE PUSH1 0x22 PUSH1 0x4 MSTORE PUSH1 0x24 PUSH1 0x0 REVERT JUMPDEST PUSH32 0x4E487B7100000000000000000000000000000000000000000000000000000000 PUSH1 0x0 MSTORE PUSH1 0x41 PUSH1 0x4 MSTORE PUSH1 0x24 PUSH1 0x0 REVERT JUMPDEST PUSH1 0x0 DUP1 REVERT JUMPDEST PUSH1 0x0 DUP1 REVERT JUMPDEST PUSH1 0x0 DUP1 REVERT JUMPDEST PUSH1 0x0 DUP1 REVERT JUMPDEST PUSH1 0x0 PUSH1 0x1F NOT PUSH1 0x1F DUP4 ADD AND SWAP1 POP SWAP2 SWAP1 POP JUMP JUMPDEST PUSH32 0x52657374617572616E7420616C72656164792065786973747300000000000000 PUSH1 0x0 DUP3 ADD MSTORE POP JUMP JUMPDEST PUSH32 0x43616E206F6E6C7920626520657865637574656420627920746865206D616E61 PUSH1 0x0 DUP3 ADD MSTORE PUSH32 0x6765720000000000000000000000000000000000000000000000000000000000 PUSH1 0x20 DUP3 ADD MSTORE POP JUMP JUMPDEST PUSH32 0x43616E20766F7465206F6E6C79207768696C6520766F74696E67206973206F70 PUSH1 0x0 DUP3 ADD MSTORE PUSH32 0x656E2E0000000000000000000000000000000000000000000000000000000000 PUSH1 0x20 DUP3 ADD MSTORE POP JUMP JUMPDEST PUSH2 0x161B DUP2 PUSH2 0x1334 JUMP JUMPDEST DUP2 EQ PUSH2 0x1626 JUMPI PUSH1 0x0 DUP1 REVERT JUMPDEST POP JUMP JUMPDEST PUSH2 0x1632 DUP2 PUSH2 0x1372 JUMP JUMPDEST DUP2 EQ PUSH2 0x163D JUMPI PUSH1 0x0 DUP1 REVERT JUMPDEST POP JUMP INVALID LOG2 PUSH5 0x6970667358 0x22 SLT KECCAK256 PUSH31 0x472BEC101B310988601EAB59A49B46FAE2944FEB7331EED511C40C861BC0E7 PUSH5 0x736F6C6343 STOP ADDMOD SDIV STOP CALLER "
				},
				"gasEstimates": {
					"creation": {
						"codeDepositCost": "1150000",
						"executionCost": "infinite",
						"totalCost": "infinite"
					},
					"external": {
						"addFriend(address,string)": "infinite",
						"addRestaurant(string)": "infinite",
						"doVote(uint256)": "infinite",
						"friends(address)": "infinite",
						"isActive()": "2544",
						"manager()": "2603",
						"numFriends()": "2496",
						"numRestaurants()": "2495",
						"numVotes()": "2518",
						"restaurantExists(string)": "infinite",
						"restaurants(uint256)": "infinite",
						"stopContract()": "26655",
						"voteOpen()": "2538",
						"votedRestaurant()": "infinite",
						"votes(uint256)": "infinite"
					},
					"internal": {
						"finalResult()": "infinite"
					}
				},
				"methodIdentifiers": {
					"addFriend(address,string)": "3b9f708d",
					"addRestaurant(string)": "6d77bd3e",
					"doVote(uint256)": "124258c6",
					"friends(address)": "1ddabf7a",
					"isActive()": "22f3e2d4",
					"manager()": "481c6a75",
					"numFriends()": "47098f36",
					"numRestaurants()": "b798867f",
					"numVotes()": "a3bef4d7",
					"restaurantExists(string)": "a6c7f8b2",
					"restaurants(uint256)": "ad5461d8",
					"stopContract()": "12253a6c",
					"voteOpen()": "788d3851",
					"votedRestaurant()": "c1c16efc",
					"votes(uint256)": "5df81330"
				}
			},
			"storageLayout": {
				"storage": [
					{
						"astId": 16,
						"contract": "contracts/LunVenue_update.sol:LunchVenue",
						"label": "restaurants",
						"offset": 0,
						"slot": "0",
						"type": "t_mapping(t_uint256,t_string_storage)"
					},
					{
						"astId": 21,
						"contract": "contracts/LunVenue_update.sol:LunchVenue",
						"label": "friends",
						"offset": 0,
						"slot": "1",
						"type": "t_mapping(t_address,t_struct(Friend)7_storage)"
					},
					{
						"astId": 25,
						"contract": "contracts/LunVenue_update.sol:LunchVenue",
						"label": "restaurantExists",
						"offset": 0,
						"slot": "2",
						"type": "t_mapping(t_string_memory_ptr,t_bool)"
					},
					{
						"astId": 28,
						"contract": "contracts/LunVenue_update.sol:LunchVenue",
						"label": "numRestaurants",
						"offset": 0,
						"slot": "3",
						"type": "t_uint256"
					},
					{
						"astId": 31,
						"contract": "contracts/LunVenue_update.sol:LunchVenue",
						"label": "numFriends",
						"offset": 0,
						"slot": "4",
						"type": "t_uint256"
					},
					{
						"astId": 34,
						"contract": "contracts/LunVenue_update.sol:LunchVenue",
						"label": "numVotes",
						"offset": 0,
						"slot": "5",
						"type": "t_uint256"
					},
					{
						"astId": 36,
						"contract": "contracts/LunVenue_update.sol:LunchVenue",
						"label": "manager",
						"offset": 0,
						"slot": "6",
						"type": "t_address"
					},
					{
						"astId": 39,
						"contract": "contracts/LunVenue_update.sol:LunchVenue",
						"label": "votedRestaurant",
						"offset": 0,
						"slot": "7",
						"type": "t_string_storage"
					},
					{
						"astId": 44,
						"contract": "contracts/LunVenue_update.sol:LunchVenue",
						"label": "votes",
						"offset": 0,
						"slot": "8",
						"type": "t_mapping(t_uint256,t_struct(Vote)12_storage)"
					},
					{
						"astId": 48,
						"contract": "contracts/LunVenue_update.sol:LunchVenue",
						"label": "_results",
						"offset": 0,
						"slot": "9",
						"type": "t_mapping(t_uint256,t_uint256)"
					},
					{
						"astId": 51,
						"contract": "contracts/LunVenue_update.sol:LunchVenue",
						"label": "voteOpen",
						"offset": 0,
						"slot": "10",
						"type": "t_bool"
					},
					{
						"astId": 54,
						"contract": "contracts/LunVenue_update.sol:LunchVenue",
						"label": "isActive",
						"offset": 1,
						"slot": "10",
						"type": "t_bool"
					}
				],
				"types": {
					"t_address": {
						"encoding": "inplace",
						"label": "address",
						"numberOfBytes": "20"
					},
					"t_bool": {
						"encoding": "inplace",
						"label": "bool",
						"numberOfBytes": "1"
					},
					"t_mapping(t_address,t_struct(Friend)7_storage)": {
						"encoding": "mapping",
						"key": "t_address",
						"label": "mapping(address => struct LunchVenue.Friend)",
						"numberOfBytes": "32",
						"value": "t_struct(Friend)7_storage"
					},
					"t_mapping(t_string_memory_ptr,t_bool)": {
						"encoding": "mapping",
						"key": "t_string_memory_ptr",
						"label": "mapping(string => bool)",
						"numberOfBytes": "32",
						"value": "t_bool"
					},
					"t_mapping(t_uint256,t_string_storage)": {
						"encoding": "mapping",
						"key": "t_uint256",
						"label": "mapping(uint256 => string)",
						"numberOfBytes": "32",
						"value": "t_string_storage"
					},
					"t_mapping(t_uint256,t_struct(Vote)12_storage)": {
						"encoding": "mapping",
						"key": "t_uint256",
						"label": "mapping(uint256 => struct LunchVenue.Vote)",
						"numberOfBytes": "32",
						"value": "t_struct(Vote)12_storage"
					},
					"t_mapping(t_uint256,t_uint256)": {
						"encoding": "mapping",
						"key": "t_uint256",
						"label": "mapping(uint256 => uint256)",
						"numberOfBytes": "32",
						"value": "t_uint256"
					},
					"t_string_memory_ptr": {
						"encoding": "bytes",
						"label": "string",
						"numberOfBytes": "32"
					},
					"t_string_storage": {
						"encoding": "bytes",
						"label": "string",
						"numberOfBytes": "32"
					},
					"t_struct(Friend)7_storage": {
						"encoding": "inplace",
						"label": "struct LunchVenue.Friend",
						"members": [
							{
								"astId": 4,
								"contract": "contracts/LunVenue_update.sol:LunchVenue",
								"label": "name",
								"offset": 0,
								"slot": "0",
								"type": "t_string_storage"
							},
							{
								"astId": 6,
								"contract": "contracts/LunVenue_update.sol:LunchVenue",
								"label": "voted",
								"offset": 0,
								"slot": "1",
								"type": "t_bool"
							}
						],
						"numberOfBytes": "64"
					},
					"t_struct(Vote)12_storage": {
						"encoding": "inplace",
						"label": "struct LunchVenue.Vote",
						"members": [
							{
								"astId": 9,
								"contract": "contracts/LunVenue_update.sol:LunchVenue",
								"label": "voterAddress",
								"offset": 0,
								"slot": "0",
								"type": "t_address"
							},
							{
								"astId": 11,
								"contract": "contracts/LunVenue_update.sol:LunchVenue",
								"label": "restaurant",
								"offset": 0,
								"slot": "1",
								"type": "t_uint256"
							}
						],
						"numberOfBytes": "64"
					},
					"t_uint256": {
						"encoding": "inplace",
						"label": "uint256",
						"numberOfBytes": "32"
					}
				}
			},
			"userdoc": {
				"kind": "user",
				"methods": {
					"addFriend(address,string)": {
						"notice": "Add a new friend to voter list"
					},
					"addRestaurant(string)": {
						"notice": "Add a new restaurant"
					},
					"doVote(uint256)": {
						"notice": "Vote for a restaurant"
					},
					"stopContract()": {
						"notice": "stop the contract"
					}
				},
				"version": 1
			}
		}
	}
}